:020000040800F2
:10000000D80E0020450100084D0100084F010008EE
:1000100051010008530100085501000800000000CC
:100020000000000000000000000000005701000870
:1000300059010008000000005B0100085D01000894
:100040005F0100085F0100085F0100085F01000810
:100050005F0100085F0100085F0100085F01000800
:100060007D0D0008C10D0008FD0D00085F010008AE
:100070005F0100085F0100085F0100085F010008E0
:100080005F0100085F0100085F0100085F010008D0
:100090005F0100085F0100085F0100083D0E0008D5
:1000A0005F0100085F0100085F0100085F010008B0
:1000B00035210008A1220008E12300085F010008A3
:1000C0005F0100085F0100085F0100085F01000890
:1000D0005F010008A52800085F0100085F01000813
:1000E0005F0100085F0100085F0100085F01000870
:1000F0005F0100085F0100085F0100085F01000860
:100100005F0100085F0100085F0100085F0100084F
:100110005F0100085F0100085F0100085F0100083F
:100120005F0100085F0100085F0100085F0100082F
:10013000DFF80CD000F0C0FB00480047712D00082C
:10014000D80E00200648804706480047FEE7FEE735
:10015000FEE7FEE7FEE7FEE7FEE7FEE7FEE7FEE777
:10016000D52000083101000840EA01039B0703D0B5
:1001700009E008C9121F08C0042AFAD203E011F8E6
:10018000013B00F8013B521EF9D27047F0B480EAFF
:100190000102D40F4200B2EB410F02D202460846E0
:1001A00011464A0042D0C30DDDB2C1F3C752AD1AA9
:1001B000202D35DAC1F3160141F4000204B1524298
:1001C000C5F1200602FA06F12A411044B3EBD05FD4
:1001D00023D0C4B1012DA0EBC35009DCF0BC4FF01B
:1001E000004202EAC352DBB200F5000000F0D9BAC7
:1001F000400000F1807000EBC350A0F1807040EA35
:10020000D170490009E0490841EAC071A0EBC35030
:1002100000F50000400800EBC350F0BC00F0B8BA95
:100220006142012202EB4101001BF6E7F0BC70477E
:1002300081F00041AAE780F00040A7E780EA0102D0
:1002400010B502F00043400022D04A001FD0010E3A
:1002500001EB1261C0F35600C2F3560240F40000F5
:1002600042F40002A0FB022000047F39140400D0F5
:10027000401C50EA124001D44000491EC2B20C0694
:1002800004EBD010401C4008802A02D003E000207C
:1002900010BD20F00100002900DA0020184310BD35
:1002A00030B480EA010202F0004530F0004221F053
:1002B000004013D090B1C30DD40DC2F31601C0F3AA
:1002C0001600E41A41F4000140F400027D3491422A
:1002D00001D3641C00E04900002C02DA30BC00208D
:1002E00070474FF400000023914201D3891A034361
:1002F00040084FEA4101F7D151B1914202D14FF08C
:10030000004105E002D24FF0010101E06FF0010170
:1003100003EBC450284430BC00F03ABA2DE9FE4F3C
:10032000804681EA0300C00F0C46009021F0004196
:1003300023F00045B8EB0200A94105D24046214612
:1003400090461C460B46024623F00040104347D01F
:10035000270DC7F30A00C3F30A510290401A019017
:1003600040286BDAC3F3130040F4801B00989246D8
:1003700020B10023D2EB030A63EB0B0B0198594623
:10038000C0F14002504600F0E2F906460D465046E4
:100390005946019A00F0EAF910EB08006141002487
:1003A00087EA115284EAE7731A4340D0009A62B395
:1003B000019A012A4FEA075215DC001B61EB02018A
:1003C0004FF0004202EA0752CDE90042001C41F51D
:1003D000801132462B4600F021FA03B0BDE8F08FC1
:1003E00040462146F9E7001B61EB0201001C41F584
:1003F000801300185B412018A2F5001747EB03019A
:1004000040EAD570B6196D4111E06D084FEA360625
:1004100045EAC0754FEA0752001B61EB0201001C60
:1004200041F5801149084FEA300000195141324628
:100430002B4603B0BDE8F04F00F0E1B9009801226F
:1004400040000023D0EB020263EBE07300982146EA
:100450004FEAE074B8EB000061EB0401E9E783F0D8
:1004600000435BE781F0004158E72DE9FE4F81EA48
:10047000030404F0004421F0004100944FF0000B0D
:1004800023F0004350EA01045ED052EA03045BD03B
:10049000C3F30A54C1F30A552C44A4F2F334019473
:1004A000A0FB0254C1F3130141F48011C3F3130301
:1004B00043F4801301FB024400FB034E840A970AB5
:1004C00044EA815447EA8357A4FB076802958D0AE2
:1004D00005FB07854FEA932C04FB0C542705029D6E
:1004E0004FEA065847EA1637B5EB08056EEB070CDE
:1004F000870E920E47EA811742EA8312A7FB020198
:10050000B6EB0B0164EB00042B0D43EA0C335E18D1
:1005100044EB1C50DA465146E7FB0201C5F31304D5
:100520004FEA0B3343EA14534FEA0432019C43EA87
:100530000603A4F10C040294009CCDE900B400F081
:100540006DF903B0BDE8F08F00200146F9E72DE911
:10055000F04D81EA030404F0004B21F000451446FD
:100560004FF0000A23F0004150EA050220D054EA7F
:1005700001021DD0C5F30A570246C5F31303C1F3A8
:100580001300C1F30A5640F4801543F48013A7EB1F
:100590000608101BD64608F2FD3873EB050002D39F
:1005A00008F1010801E092185B41B8F1000F03DA8D
:1005B00000200146BDE8F08D00204FF48011064672
:1005C00084460EE0171B73EB050705D3121B63EB84
:1005D000050306434CEA010C49084FEA3000921823
:1005E0005B4150EA0107EDD152EA030012D082EAE2
:1005F000040083EA0501084305D0101BAB4106D275
:100600000122002306E000224FF0004302E06FF0D9
:10061000010253101AEB06004CEB085110EB0A00D4
:1006200041EB0B01BDE8F04D00F0E9B8C10F80EAE5
:10063000E0700844CA079623002100F0B2B8962360
:100640000022114600F0ADB80EB5C10F80EAE0708F
:100650000844CA07002140F233438DE80E000A46E1
:100660000B4600F0DBF803B000BD00F0004220F0C4
:100670000040C10DC0F3160040F400007F2901DAEC
:1006800000207047962903DCC1F19601C84001E0C3
:1006900096398840002AF4D04042704720F000404C
:1006A000C10DC0F3160040F400007F2901DA0020DC
:1006B0007047962903DCC1F19601C840704796390E
:1006C0008840704700F0004230F000400AD0C10D71
:1006D00001F56071C0F3160042EA0151C2084007FB
:1006E0001143704700200146704701F0004330B4C9
:1006F00021F0004150EA010206D00A0DA2F5607215
:10070000C1F31301002A02DC30BC00207047440F03
:1007100044EAC104C100E01830BC00EBC25000F054
:1007200037B830B50B46014600202022012409E0ED
:1007300021FA02F59D4205D303FA02F5491B04FA9A
:1007400002F52844151EA2F10102F1DC30BD202A79
:1007500004DB203A00FA02F1002070479140C2F118
:10076000200320FA03F3194390407047202A06DB48
:10077000CB17203A41FA02F043EAE07306E041FA6F
:1007800002F3D040C2F1200291400843194670475D
:100790000029A8BF7047401C490008BF20F0010095
:1007A000704710B4B0FA80FC00FA0CF050EA010473
:1007B00004BF10BC704749B1CCF1200421FA04F405
:1007C00011FA0CF118BF012121430843A3EB0C01DE
:1007D000CB1D4FEA00614FEA102042BF002010BC41
:1007E000704700EBC35010440029A4BF10BC7047F1
:1007F000401C490008BF20F0010010BC704710B534
:10080000141E73F1000408DA401C41F10001921833
:100810005B411A4301D120F0010010BD2DE9F04DDC
:1008200092469B4611B1B1FA81F202E0B0FA80F231
:1008300020329046FFF78BFF04460F4640EA0A003D
:1008400041EA0B0153465A46084313D0114653EA76
:10085000010019D0C8F14002504600F03FF80546AB
:100860000E46504659464246FFF771FF084305D0F1
:10087000012004E020463946BDE8F08D0020054304
:1008800046EAE0762C4337430A986305E40AA0EB76
:1008900008000022FD0A44EA47540A3002D500202D
:1008A0000146E9E7010510196941DDE9084500192C
:1008B0006941BDE8F04DA2E7064C074D06E0E0684F
:1008C00040F0010394E8070098471034AC42F6D397
:1008D000FFF732FC202E0008402E0008202A04DBFF
:1008E000203A21FA02F00021704721FA02F3D040A9
:1008F000C2F1200291400843194670472DE9F34F99
:1009000085B04FF0000A002004900390DDE9050156
:10091000FFF78EFC029052E0AAF1C800FFF794FEA8
:1009200080460022294BFFF7A0FD06460022284BF7
:10093000FFF70DFE0446FFF7D8FE0490049880F000
:10094000004B5846FFF7BEFECDE9000102F0DAF990
:10095000064600221F4BFFF7E1FC044622460B46E9
:1009600000201C49FFF7F3FD8046FFF7BEFE039011
:10097000DDE90201FFF762FC04460699FFF706FC79
:10098000154941F82A00154800680921B0FBF1F724
:100990003846FFF754FE06460F4850F82A103046F6
:1009A000FFF77EFC05464FF07E51FFF741FC044601
:1009B000FFF774FE0A4921F81A000AF1010ABAF594
:1009C000C87FA9DB07B0BDE8F08F0000000014402D
:1009D000000069400000F03F74010020000000208A
:1009E000B40700202DE9FC5F04460D46C82004FB37
:1009F00000F605FB00F74FF4FA584FF448794FF42E
:100A0000486A4FF4487B4FF47A7002F049F948463F
:100A1000FFF70CFE01904046FFF708FE062300900A
:100A200001467042019A00F029FD00BF224800787B
:100A30000028FBD14FF4FA6002F032F95846FFF774
:100A4000F5FD01905046FFF7F1FD072300900146A8
:100A50007842019A00F012FD00BF17480078002884
:100A6000FBD1022002F042F95846FFF7DFFD01906A
:100A70005046FFF7DBFD0723009001463846019AF8
:100A800000F0FCFC00BF0C4800780028FBD1484671
:100A9000FFF7CCFD01904046FFF7C8FD062300900C
:100AA00001463046019A00F0E9FC00BF0248007898
:100AB0000028FBD1BDE8FC9F6C00002008B5012197
:100AC000102001F051F80121102001F04DF8012112
:100AD000042001F049F80121102001F045F802201E
:100AE000ADF8000010208DF8030003208DF80200FF
:100AF00069464F4800F072FB0820ADF80000102056
:100B00008DF8030003208DF802006946484800F084
:100B100065FB0120ADF8000010208DF803000320D4
:100B20008DF802006946434800F058FB0420ADF8F8
:100B3000000010208DF8030003208DF802006946A4
:100B40003B4800F04BFB1020ADF800008DF803008F
:100B500003208DF802006946364800F03FFB202054
:100B6000ADF8000010208DF8030003208DF802007E
:100B70006946304800F032FB1020ADF800008DF8D7
:100B8000030003208DF802006946294800F026FB87
:100B90000120ADF8000010208DF8030003208DF82F
:100BA00002006946244800F019FB2020ADF800003F
:100BB00010208DF8030003208DF8020069461E48BE
:100BC00000F00CFB4020ADF8000010208DF8030071
:100BD00003208DF802006946174800F0FFFA022151
:100BE000134800F088FB0821114800F082FB012126
:100BF000104800F080FB04210D4800F07AFB102122
:100C00000C4800F078FB20210A4800F072FB10210C
:100C1000074800F070FB0121074800F06AFB202123
:100C2000054800F068FB4021034800F062FB08BD66
:100C30000010014000080140000C014010B535488B
:100C4000008800F40040002861D032480088C0F3DA
:100C50000D000A2802D04FF0FF3010BD2E4800785A
:100C60003038642148432C494978303901EB8101FF
:100C700000EB410128488078303808442749086053
:100C80002548C078303864214843234909793039F0
:100C900001EB810100EB41011F48407930380844E5
:100CA0001E4948601C4880793038642148431A49FD
:100CB000C979303901EB810100EB41011648007A16
:100CC00030380844154988601348407A30388881A4
:100CD0000846016812A001F0F7FE1048416813A011
:100CE00001F0F2FE0D48816813A001F0EDFE0B4803
:100CF000B0F90C1013A001F0E7FE06480088C0F31D
:100D00000D0113A001F0E0FE002002490880002040
:100D1000A3E7000060000020980000208800002069
:100D2000585F6D6D3A25640D0A000000595F315F10
:100D30006D6D3A25640D0A00595F325F6D6D3A257D
:100D4000640D0A005A5F6D6D3A25640D0A000000BB
:100D500075736172743A25640D0A00007FB505460B
:100D60000C467020ADF800000020ADF80200022013
:100D7000ADF8080069462846A0477FBD10B504209D
:100D800000F03CF988B1042000F032F90A2001F0AB
:100D900087FF0648006840B902200549087408200A
:100DA0000449087004A001F08FFE10BD0801234221
:100DB00060010020680000205A5F55500D0A0000B5
:100DC00010B5082000F01AF978B1082000F010F9E9
:100DD0000A2001F065FF0548006830B90A2004497F
:100DE000087004490448FFF7B9FF10BD0C01234205
:100DF000680000202D2500080004004010B51020D8
:100E000000F0FCF888B1102000F0F2F80A2001F0A0
:100E100047FF0648006840B905480068C0430549D7
:100E2000C1F8940101200449087010BD100123424B
:100E300094812142008021426800002010B50A20E0
:100E400001F02EFF202000F0D9F8402000F0D6F865
:100E500078B1402000F0CCF82248006848B906205C
:100E60002149087021492248FFF778FF21A001F0AD
:100E70002BFE802000F0C2F878B1802000F0B8F896
:100E80001848001D006840B902201D490874072059
:100E9000154908701BA001F017FE4FF4807000F098
:100EA000ADF818B14FF4807000F0A2F84FF4007064
:100EB00000F0A4F8A0B14FF4007000F099F80948D0
:100EC0000C30006860B94FF4007000F091F8052014
:100ED000054908700DA001F0F7FD172000F048F853
:100EE00010BD00001801234268000020D925000829
:100EF00000080040455854495F59320D0A0000006F
:100F0000600100204C580D0A000000004B310D0A12
:100F10000000000010B500F0F1F90921042000F0F4
:100F20003DF90821042000F039F90721042000F0E0
:100F300035F90621042000F031F90521042000F0E4
:100F40002DF90421084600F029F90321042000F0BE
:100F500025F90221042000F021F900F0FFFC00F047
:100F60000CFD00F019FD00F026FD00F022F810BD88
:100F700038B50446E0B28DF8000001208DF801007C
:100F80008DF8020000208DF80300684600F028FD6F
:100F900038BD38B50446E0B28DF8000001208DF868
:100FA00001008DF802008DF80300684600F018FD7E
:100FB00038BD1CB54FF46F70009000208DF8040010
:100FC0000C208DF8050001208DF80600684600F021
:100FD00029F84020009000208DF8040010208DF8A2
:100FE000050001208DF80600684600F01BF81CBDC6
:100FF00001490860704700001404014001460020C8
:101000000022074B1B6803EA0102054B14331B68DF
:101010000B4013B10AB1012000E00020704700002E
:1010200000040140002123498279002A3AD00A466F
:10103000126803689A430B461A600A1D1268036817
:101040009A430B1D1A60027911440A6803681A4317
:101050000A60184A0832126803689A43154B08332D
:101060001A601A1D126803689A43124B0C331A60F7
:101070004279102A0ED11A1F126803681A430D4BC9
:1010800008331A601A1D126803681A43094B0C339F
:101090001A600DE00749427911440A6803681A434F
:1010A0000A6005E0027911440A6803689A430A60FD
:1010B00070470000000401407FB505460C467020D3
:1010C000ADF800000120ADF802000220ADF80800E4
:1010D00069462846A0477FBD2DE9F84F04460D46D6
:1010E000C82004FB00F607014FF448784FF4486924
:1010F0004FF4487A5046FFF799FA83464846FFF77F
:1011000095FA08235A4601460090284600F0B6F9A1
:1011100000BF1B4800780028FBD100F073FE19A027
:1011200001F0D2FC4046FFF781FA83463846FFF7CC
:101130007DFA07235A4601460090704200F09EF95E
:1011400000BF0F4800780028FBD100F0D7FD10A0A9
:1011500001F0BAFC4046FFF769FA83463846FFF7CC
:1011600065FA07235A4601460090304600F086F99A
:1011700000BF034800780028FBD1BDE8F88F0000CD
:101180006C000020CFF2CFC2D4CBB6AF0D0A000066
:10119000CFF2C9CFD4CBB6AF0D0A000030B50022D4
:1011A0008B071C0F0F2303FA04F20B4B8C1053F820
:1011B00024309343084C8D1044F8253023468C107E
:1011C00053F824308C07240F00FA04F42343024C14
:1011D0008D1044F8253030BD080001402DE9F04164
:1011E000024600250026002000230024002791F855
:1011F00003C00CF00F0591F803C00CF0100CBCF10B
:10120000000F03D091F802C04CEA050591F800C028
:10121000BCF1000F31D0146800202BE04FF0010C1E
:101220000CFA00F3B1F800C00CEA03069E4220D18C
:1012300083004FF00F0C0CFA03F7BC4305FA03FCD4
:101240004CEA040491F803C0BCF1280F06D14FF01A
:10125000010C0CFA00FCC2F814C00AE091F803C0BB
:10126000BCF1480F05D14FF0010C0CFA00FCC2F89C
:1012700010C0401C0828D1D31460B1F800C0BCF1E4
:10128000FF0F34DD546800202EE000F1080C4FF011
:10129000010808FA0CF3B1F800C00CEA03069E42FC
:1012A00021D183004FF00F0C0CFA03F7BC4305FA71
:1012B00003FC4CEA040491F803C0BCF1280F05D1EB
:1012C00000F1080C08FA0CF8C2F8148091F803C079
:1012D000BCF1480F07D100F1080C4FF0010808FAE3
:1012E0000CF8C2F81080401C0828CED35460BDE82A
:1012F000F0814161704701617047000008B501212C
:10130000412000F031FC4FF47F70ADF80000482020
:101310008DF8030003208DF8020069460148FFF7AD
:101320005DFF08BD0018014008B50121082000F04C
:101330001BFC2020ADF8000010208DF803000320D6
:101340008DF8020069460248FFF748FF08BD00001B
:10135000000C01400FB410B5142202A94448FEF756
:1013600003FF4348407C062827D14148007820B934
:1013700002214048FFF7BFFF07E03D480078012801
:1013800003D102213B48FFF7B4FF01220821C80620
:1013900001F027FA3648808881B24FF0804001F092
:1013A00023FA3348B0F9044004EBD470C0F34F0182
:1013B0004FF0804001F01CFA56E02D48407C072891
:1013C00027D12B48007820B901212B48FFF793FF44
:1013D00007E027480078012803D101212648FFF7BC
:1013E00088FF01220821C80601F0FBF92048808807
:1013F00081B24FF0804001F0F7F91D48B0F9044088
:1014000004EBD470C0F34F014FF0804001F0F2F9CB
:101410002AE01748407C082826D11548007820B9D2
:1014200010211548FFF767FF07E0114800780128F1
:1014300003D110211048FFF75CFF01220821C806E4
:1014400001F0CFF90A48808881B24FF0804001F066
:10145000CBF90748B0F9044004EBD470C0F34F0156
:101460004FF0804001F0C8F910BC5DF814FB00009B
:101470006001002000100140000801402DE9F04FFC
:1014800087B004460D4616461F468DF81970314642
:101490002846FFF733FA002C04DA01208DF8080003
:1014A000644202E000208DF8080020B2ADF80A0086
:1014B000012C1FD101200590374800680921B0FB9D
:1014C000F1FB5846FFF7BBF882463146FEF7E8FECF
:1014D00081464FF07E51FEF7ABFE8046FFF7C5F820
:1014E00000B2ADF80C0004208DF8180001202B4943
:1014F000087027E034B3B4F5487F12DC2848008830
:1015000000B2ADF80C00204604EBD07149100591F3
:101510000598049003208DF8180001201F490870D9
:1015200010E01F48008800B2ADF80C004FF4C870FE
:101530000590A4F5C870049003208DF818000120D0
:10154000164908700698009002A80FC8FFF702FF1E
:101550001448407C062805D113494FF08040FFF71E
:10156000ABFD11E00F48407C072805D10F494FF033
:101570008040FFF7A1FD07E00A48407C082803D11E
:101580000B49C006FFF798FD0121880700F0A8FF6E
:1015900007B0BDE8F08F0000000000206C000020C4
:1015A000B407002060010020D92500089926000812
:1015B0004D2700082DE9F05F4FF4C8544FF416652D
:1015C0004FF47A66E7104FF448684FF448790020EA
:1015D000314908701720FFF7CBFC3846FFF726F893
:1015E00082463046FFF722F8834606235246594684
:1015F0006042FFF743FF00BF284800780028FBD176
:101600004846FFF713F882464046FFF70FF8834637
:101610000723524659466842FFF730FF00BF1F4874
:1016200000780028FBD14846FFF700F88246404684
:10163000FEF7FCFF83460723524659462846FFF72C
:101640001DFF00BF154800780028FBD11720FFF7C9
:10165000A0FC3846FEF7EAFF82463046FEF7E6FF7A
:101660008346E000062352465946FFF707FF00BFB6
:101670000A4800780028FBD100F088FB012001F027
:1016800035FB0021064800F02BFF06490448FFF710
:1016900065FBBDE8F09F0000680000206C000020A2
:1016A00000040040D925000870B505460C46207C92
:1016B000022806D003282AD0042873D0052872D126
:1016C00063E00020564908805649087000212846EA
:1016D00000F006FF5448407C062805D153494FF0DE
:1016E0008040FFF73BFB11E04F48407C072805D1C5
:1016F0004F494FF08040FFF731FB07E04A48407CFC
:10170000082803D14B49C006FFF728FB85E0444871
:101710000088401C42490880207828B94648006863
:10172000401C4549086004E043480068401E4249A7
:1017300008603B490988E068884209DD3F4838492C
:10174000098830F8110000B2A080032020741BE04B
:1017500033490988A06888420AD831480088401E69
:10176000364931F8100000B2A080042020740BE04C
:101770002B480088B0F5C87F06DB3048B0F81E0360
:1017800000B2A0800520207447E025480088401C56
:1017900023490880207838B927480068401C26492A
:1017A000086006E012E037E023480068401E224946
:1017B00008601B490988A068884206D81F48B0F80D
:1017C0001E0300B2A0800420207426E01448008884
:1017D000401C13490880207828B917480068401C2D
:1017E0001549086004E014480068401E124908606A
:1017F000B4F902000A49098888420ADDB4F90200F6
:1018000007490988401A0D4931F8100000B2A0803C
:1018100001E00220207400E000BF00BF70BD0000A6
:10182000840000206C00002060010020D925000801
:10183000992600084D27000870000020B4070020FA
:101840002DE9F04106460D4614463046FEF7F7FEF8
:101850001B4908602846FEF7F2FE1A490860092075
:101860001949487401220821184800F0BAFF24B928
:1018700010211748FFF73FFD05E0012C03D110218F
:101880001348FFF736FD0E480068FEF707FF87B2E2
:1018900039460E4800F0A8FF0A480068FEF7FEFE31
:1018A00087B23946094800F0A1FF0A490748FFF707
:1018B00003FC0121054800F013FEBDE8F0810000A3
:1018C0007400002078000020600100200004004027
:1018D000001001402D2500082DE9F04106460D4677
:1018E00014463046FEF7ABFE174908602846FEF75F
:1018F000A6FE1649086024B920211548FFF7FBFC15
:1019000005E0012C03D120211148FFF7F2FC0E481D
:101910000068FEF7C3FE87B239460E4800F064FF48
:101920000A480068FEF7BAFE87B23946094800F057
:101930005FFF09490748FFF7BFFB0121054800F099
:10194000CFFDBDE8F08100007C0000208000002079
:10195000000C014000080040D925000808B5082007
:101960008DF8000001208DF801008DF802008DF83F
:101970000300684600F034F808BD08B509208DF86A
:10198000000001208DF801008DF802008DF80300A1
:10199000684600F025F808BD08B50A208DF800005B
:1019A00001208DF801008DF802008DF803006846D3
:1019B00000F016F808BD08B517208DF800000120CA
:1019C0008DF801008DF802008DF80300684600F0E4
:1019D00007F808BD10B54FF4A06000F039F810BD4D
:1019E00070B5002100230F22C47804B3154C24687D
:1019F00004F4E064C4F5E064210AC1F10403CA40C0
:101A0000447804FA03F184781440214309010E4C10
:101A10000678A155047804F01F050124AC40057830
:101A20006D11AD0005F1E025C5F8004109E004782D
:101A300004F01F050124AC40044D0678761145F8EA
:101A4000264070BD0CED00E000E400E080E100E025
:101A500002490143024A1160704700000000FA0584
:101A60000CED00E070B544F61F646510264604EBEB
:101A7000D670411001222046FFF7E2FE2E4605EB0C
:101A8000D670411001222846FFF726FF00BF1348F9
:101A900000680128FBD01248007805280FD10020EB
:101AA0000F490870022001F021F90EA001F00CF896
:101AB0000F491048FFF752F91720FFF76AFA00BFE5
:101AC00006480C3800680128FAD004480C38006831
:101AD00018B909490948FFF741F970BD24012342AB
:101AE000680000205931CDA3D6B90D0A00000000CE
:101AF0002D25000800040040D925000800080040FA
:101B000070B541F2873400200B490870254604EB7C
:101B1000D570411001222046FFF7DEFE012001F0C2
:101B2000E5F800BF054800680028FBD004490548D7
:101B3000FFF714F970BD000068000020180123426F
:101B4000D92500080008004029B1064AD26902439D
:101B5000044BDA6104E0034AD2698243014BDA6143
:101B6000704700000010024029B1064A9269024302
:101B7000044B9A6104E0034A92698243014B9A61E3
:101B8000704700000010024030B500210022002400
:101B900000232D4D6D6805F00C0121B1042905D0FD
:101BA000082923D105E0294D056022E0274D056075
:101BB0001FE0254D6D6805F47012234D6D6805F426
:101BC0008034022505EB92421CB9214D5543056036
:101BD0000BE01D4D6D6805F400351DB11C4D5543DE
:101BE000056002E0194D5543056002E0174D0560A0
:101BF00000BF00BF144D6D6805F0F0010909154DD7
:101C00006B5C0568DD4045600F4D6D6805F4E06173
:101C1000090A104D6B5C4568DD4085600A4D6D68B2
:101C200005F46051C90A0B4D6B5C4568DD40C56029
:101C3000054D6D6805F44041890B074D6B5CC56827
:101C4000B5FBF3F5056130BD0010024000127A00CB
:101C500000093D0014000020240000202DE9F84F69
:101C600004460D46C82004FB00F607014FF44878EF
:101C70004FF448694FF4487A4046FEF7D7FC834654
:101C80003846FEF7D3FC07235A46014600907042BF
:101C9000FFF7F4FB00BF184800780028FBD100F0E4
:101CA000B1F84046FEF7C2FC00903846FEF7BEFC95
:101CB0008346072359463046009AFFF7DFFB00BFF3
:101CC0000D4800780028FBD100F018F85046FEF7C8
:101CD000ADFC83464846FEF7A9FC08235A46014658
:101CE00000906842FFF7CAFB00BF03480078002855
:101CF000FBD1BDE8F88F00006C00002010B54FF458
:101D0000FA7000F0CDFF1A481A4908601A481B49BA
:101D100008600B201A49487401224721194800F035
:101D200060FD14480068FEF7B9FC84B221461548EE
:101D300000F05AFD11480068FEF7B0FC84B221465D
:101D4000104800F055FD10490E48FFF7B5F9012184
:101D50000C4800F0C5FB4FF4FA7000F0A1FF002121
:101D6000084800F0BDFB08490648FEF7F7FF10BD24
:101D7000003E9C467400002000209944780000201A
:101D80006001002000040040D925000810B5FFF7CD
:101D9000B5FF0B201649487401224721154800F071
:101DA00020FD15480068FEF779FC84B221461148F1
:101DB00000F01AFD11480068FEF770FC84B221465D
:101DC0000C4800F015FD0E490A48FFF775F901218E
:101DD000084800F085FB4FF47A7000F061FF0021A5
:101DE000044800F07DFB06490248FEF7B7FF10BD2E
:101DF00060010020000400407400002078000020F2
:101E0000D925000810B54FF4FA7000F049FF1A48C0
:101E10001A4908601A481B4908600B201A4948747F
:101E200001224721194800F0DCFC14480068FEF745
:101E300035FC84B22146154800F0D6FC11480068F4
:101E4000FEF72CFC84B22146104800F0D1FC10496A
:101E50000E48FFF731F901210C4800F041FB4FF427
:101E6000487000F01DFF0021084800F039FB0849C8
:101E70000648FEF773FF10BD003E9C46740000202C
:101E80000000F543780000206001002000040040BD
:101E9000D925000810B500F001F810BD0CB50020E0
:101EA000019000903348006840F480303149086068
:101EB00000BF3048006800F4003000900198401CDA
:101EC0000190009818B90198B0F5A06FF1D1294898
:101ED000006800F4003010B10120009001E0002003
:101EE00000900098012843D12348006840F010007A
:101EF000214908600846006820F003000860084691
:101F0000006840F0020008601A48406819494860BB
:101F10000846406848600846406840F48060486071
:101F20000846406820F47C1048600846406840F449
:101F3000E81048600846006840F08070086000BF04
:101F40000C48006800F000700028F9D0094840688B
:101F500020F00300074948600846406840F002004E
:101F6000486000BF0348406800F00C000828F9D121
:101F70000CBD000000100240002002400024172584
:101F800028262F4887685AE02E48008800F4004031
:101F900000282BD0FEF752FE0446601C30B3002010
:101FA0002949087029A000F08FFDFFF75BFD17207D
:101FB000FEF7DEFF2948B0F90C102846FFF78CF831
:101FC000264908683146FEF70DFD2448B0F90C108B
:101FD0002846FFF743FE1720FEF7DBFFFFF790FDD3
:101FE0000020194908701EA000F06EFD1648007808
:101FF00001281ED1002014490870FFF733FD172077
:10200000FEF7B6FF39462846FFF766F83146BE2090
:10201000FEF7E8FC39462846FFF720FE1720FEF7BA
:10202000B8FFFFF76DFD0020074908700CA000F015
:102030004BFD054800780A2801D1FFF7BBFAA3E75A
:102040002800002060000020680000207573726185
:10205000742073746172740D0A00000088000020FF
:1020600066696E6973680D0A0000000010B500F023
:10207000F5FDFFF7AFFC4FF4165000F081FEFFF7BF
:1020800053F9FEF747FFFEF719FD082142F20F70E2
:1020900000F09AF8082142F20F7000F041F908218F
:1020A00042F20F7000F0C0F910BD042808D14FF0C3
:1020B000E021096941F004014FF0E022116107E0DD
:1020C0004FF0E021096921F004014FF0E022116195
:1020D0007047000010B51348006840F00100114936
:1020E000086008464068104908400E4948600846A4
:1020F00000680E4908400B4908600846006820F453
:10210000802008600846406820F4FE0048604FF4D4
:102110001F008860FFF7BEFE4FF0006004490860B2
:1021200010BD0000001002400000FFF8FFFFF6FEA7
:1021300008ED00E010B50121880700F0DDF9002866
:102140003ED00121880700F0C8F91E494FF08040B9
:10215000FFF7AAFA1B48808881B24FF0804000F058
:1021600043FB1848407C06280BD11648B0F90440C0
:1021700004EBD470C0F34F014FF0804000F038FB07
:102180001EE01048407C07280BD10E48B0F90440EF
:1021900004EBD470C0F34F014FF0804000F02AFBF5
:1021A0000EE00848407C08280AD10648B0F90440EF
:1021B00004EBD470C0F34F014FF0804000F01CFBE3
:1021C00010BD00006001002030B585B005460C460A
:1021D00001210520FFF7C8FC01210846FFF7B4FCE8
:1021E0000E20ADF8100018208DF8130003208DF894
:1021F000120004A92648FEF7F1FF26494FF080405F
:10220000FEF7ACFD24494FF08040FEF7A7FD2349BF
:102210004FF08040FEF7A2FD0821C80600F02EFA1C
:102220000821C80600F088FA0821C80600F0CCFA98
:102230000121880700F04EF901221146900700F0B5
:102240006CF94FF4A060FFF703FC1C208DF80C0024
:1022500002208DF80D008DF80E0001208DF80F0082
:1022600003A8FFF7BDFBADF80450ADF80040002017
:10227000ADF80600ADF8020069464FF0804000F06E
:10228000BFFA00214FF0804000F02AF905B030BDC0
:1022900000080140D9250008992600084D270008AC
:1022A00010B501211A4800F027F980B30121184820
:1022B00000F013F91748407C092812D1164800682D
:1022C000FEF7ECF984B22146114800F08DFA13486C
:1022D0000068FEF7E3F984B221460D4800F086FA63
:1022E00015E00C48407C0B2811D10B480068FEF724
:1022F000D5F984B22146064800F076FA074800680E
:10230000FEF7CCF984B22146014800F071FA10BD05
:1023100000040040600100207400002078000020CC
:1023200030B585B005460C4601210520FFF71CFCA1
:1023300001210220FFF708FCC020ADF81000182092
:102340008DF8130003208DF8120004A92048FEF731
:1023500045FF20492048FEF701FD20491E48FEF7B1
:10236000FDFC08211C4800F02DF908211A4800F056
:1023700085F90121184800F0ADF8012211461648F0
:1023800000F0CBF84FF4A060FFF762FB1D208DF842
:102390000C0002208DF80D008DF80E0001208DF844
:1023A0000F0003A8FFF71CFBADF80450ADF8004088
:1023B0000020ADF80600ADF802006946064800F0BE
:1023C0001FFA0021044800F08BF805B030BD000072
:1023D000000801402D25000800040040D925000810
:1023E00010B501210D4800F087F8A8B101210B4874
:1023F00000F073F80A480068FEF750F984B22146ED
:10240000064800F0F1F907480068FEF747F984B282
:102410002146024800F0ECF910BD00000008004021
:102420007C0000208000002030B585B005460C46B9
:1024300001210920FFF798FB01210420FFF784FB0D
:102440008020ADF8100018208DF8130003208DF8BF
:10245000120004A91C48FEF7C1FE1C491C48FEF7E7
:102460007DFC08211A4800F009F90121184800F004
:1024700031F801221146164800F04FF84FF4A060E1
:10248000FFF7E6FA1D208DF80C0002208DF80D00F4
:102490008DF80E0001208DF80F0003A8FFF7A0FAB9
:1024A000ADF80450ADF800400020ADF80600ADF8DE
:1024B00002006946064800F0A3F90021044800F034
:1024C0000FF805B030BD0000000C0140D925000810
:1024D00000080040CA4302827047CA430282704724
:1024E00021B1028842F00102028004E002884FF626
:1024F000FE731A400280704730B502460020002368
:102500000024158A05EA0103958905EA010413B13F
:102510000CB1012000E0002030BD1AB183890B43CB
:10252000838102E083898B438381704770B50024E7
:1025300000220023058C4FF6FE7635400584028C80
:102540008388048B4FF68F752C40B51E2C400D8868
:102550002C43751E2A400D892A434D882A43144D69
:10256000A8420BD0134DA84208D0134DA84205D065
:10257000124DA84202D0124DA84213D14FF6F77562
:102580002A404D892A434FF6FB752A408D882A43FD
:102590004FF6FF652B404FF6FF552B408D892B439F
:1025A000CD892B4383800483CD888586028470BDCA
:1025B000002C014000340140004001400044014033
:1025C000004801400A460021018B4FF6F77319407D
:1025D000114301837047000070B5002400220023DE
:1025E000058C4FF6EF7635400584028C8388048B8A
:1025F00048F6FF752C404FF6FF452C400D884FF6EE
:10260000FF7606EA05252C434FF6DF752A400D8933
:1026100006EA05152A434D8806EA05152A43154D95
:10262000A84202D0144DA8421DD14FF67F752A4012
:102630004D894FF6FF7606EA05152A434FF6BF751A
:102640002A408D8806EA05152A434FF6FF352B40B0
:102650004FF2FF752B408D8906EA85052B43CD8906
:1026600006EA85052B4383800483CD880587028491
:1026700070BD0000002C0140003401400A460021DA
:10268000018B4FF2FF7319404FF6FF7303EA0223E9
:10269000194301837047000070B500240022002315
:1026A000058C4FF6FF6635400584028C8388848B49
:1026B0004FF68F752C404FF6FC752C400D882C433F
:1026C0004FF6FF552A400D894FF6FF7606EA05259D
:1026D0002A434D8806EA05252A43154DA84202D013
:1026E000144DA8421DD14FF2FF752A404D894FF677
:1026F000FF7606EA05252A434FF6FF352A408D88E6
:1027000006EA05252A434EF6FF752B404DF6FF7568
:102710002B408D8906EA05152B43CD8906EA051560
:102720002B4383808483CD888587028470BD00001D
:10273000002C0140003401400A460021818B4FF6F5
:10274000F7731940114381837047000070B5002270
:1027500000230024058C4EF6FF7635400584038C5B
:102760008488828B48F6FF752A404FF6FF452A4041
:102770000D884FF6FF7606EA05252A434DF6FF75CC
:102780002B400D8906EA05352B434D8806EA0535B1
:102790002B430B4DA84202D00A4DA84208D14BF65C
:1027A000FF752C408D894FF6FF7606EA85152C4380
:1027B00084808283CD88A0F84050038470BD0000DF
:1027C000002C0140003401400A460021818B4FF269
:1027D000FF7319404FF6FF7303EA02231943818305
:1027E0007047018582827047818570478186704776
:1027F0000187704781877047A0F84010704700003C
:10280000002202881D4B98420ED01D4B98420BD0DF
:10281000B0F1804F08D01B4B984205D01A4B98421C
:1028200002D01A4B984204D14FF68F731A404B884E
:102830001A43174B984207D0164B984204D04FF6D4
:10284000FF431A40CB881A4302808B8883850B880C
:1028500003850A4B98420BD0094B984208D00E4B87
:10286000984205D00D4B984202D00D4B984201D1B1
:102870000B7A03860123838270470000002C0140FD
:10288000003401400004004000080040000C0040FB
:10289000001000400014004000400140004401408E
:1028A0000048014010B5002440F225511C4800F0BA
:1028B00049F810B31A4800F001F9C4B21948008869
:1028C00000F40040C8B91748008800F4804060B1A7
:1028D0000A2C03D000201349088020E0114800880A
:1028E00040F400400F49088019E00D2C06D10D4836
:1028F000008840F480400B49088010E009480088B7
:10290000C0F30D0008490C5406480088401C0549D6
:10291000088008460088C72801DD0020088010BD17
:1029200000380140600000209800002021B1828919
:1029300042F40052828104E082894DF6FF731A400E
:102940008281704770B502460024002300250020D4
:1029500040F66A16B14200D100BFC1F3421501F042
:102960001F03012606FA03F3012D02D19689334095
:1029700006E0022D02D1168A334001E0968A3340E8
:102980000C12012606FA04F41688344013B10CB177
:10299000012000E0002070BDF0B5034600240026B1
:1029A0000025002040F66A17B94200D100BF184642
:1029B000C1F3421401F01F06012707FA06F5012CA6
:1029C00001D10C3004E0022C01D1103000E01430B1
:1029D0001AB107682F43076002E00768AF4307603A
:1029E000F0BD00002DE9F04786B005460E460024F4
:1029F000A24600BFA1460027B08900B100BF2F4604
:102A00002C8A4CF6FF700440F08804432C82AC8979
:102A10004EF6F3100440B0883189084371890843A9
:102A20000443AC81AC8A4FF6FF400440B0890443B4
:102A3000AC8201A8FFF7A8F81F48874202D1DDF851
:102A400010A001E0DDF80CA0A88900F4004040B11E
:102A50000AEBCA0000EB0A1031684900B0FBF1F83C
:102A600007E00AEBCA0000EB0A1031688900B0FBEE
:102A7000F1F86420B8FBF0F004012009642101FBA7
:102A80001089A88900F4004040B1322000EBC90051
:102A9000B0FBF1F000F00700044308E0322000EB47
:102AA00009106421B0FBF1F000F00F0004432C8109
:102AB00006B0BDE8F0870000003801400146888874
:102AC000C0F30800704700000FB4054B10B503A910
:102AD000044A029800F018F810BC5DF814FB0000DE
:102AE000552D00085C00002002E008C8121F08C134
:102AF000002AFAD170477047002001E001C1121F7F
:102B0000002AFBD1704700002DE9FF4F89B09B469A
:102B10000446002506E025280BD05A460B9990471D
:102B2000641C6D1C20780028F5D10DB02846BDE846
:102B3000F08F0027B8460122474900E0074314F808
:102B4000013F203B02FA03F00842F7D120782E28FB
:102B500019D114F8010F47F004072A280ED06FF09E
:102B60002F022078A0F1300109290CD808EB880148
:102B700002EB410100EB0108641CF2E70A98641CB7
:102B800050F8048B0A9020780028CED0642808D012
:102B9000692806D075281ED05A460B9990476D1C9F
:102BA00058E00A994FF00A0901C90A91002802DA8F
:102BB00040422D2102E0390504D52B218DF820104B
:102BC000012103E0F90704D02021F7E78A4608AE87
:102BD0000DE00021FAE70A994FF00A0901C90A91AC
:102BE000F7E74946FDF79DFD303106F8011D002845
:102BF000F7D1ADEB060000F12009780701D44FF0C2
:102C00000108C84502DDA8EB090000E0002080466D
:102C1000002706E008A85A46C05D0B9990476D1C36
:102C20007F1C5745F6DB04E030205A460B9990474D
:102C30006D1CB8F10001A8F10108F5DC05E016F8FB
:102C4000010B5A460B9990476D1CB9F10001A9F18F
:102C50000109F4DC641C65E70928010010B56FF078
:102C60000400FFF722FA0A4800680A49B0FBF1F0B5
:102C7000094908700846007800EB4001C1EBC0101C
:102C80004FF6FF7101EAC0000449088010BD000042
:102C90000000002000127A0056000020580000209A
:102CA0000146114A12884A434FF0E0235A6100223C
:102CB0009A611A46126942F001021A6100BF4FF090
:102CC000E022106900F001021AB100F48032002AFB
:102CD000F5D04FF0E022126922F001024FF0E0231C
:102CE0001A6100229A6170475800002010B504460E
:102CF00005E04FF47A70FFF7D3FF601E84B2002C1A
:102D0000F7DC10BD2DE9F04104460D4600260022F7
:102D10000E4B20462946FDF71AFC074600220C4BB5
:102D2000FDF7FCFA04460D4609E022462B462046F4
:102D30002946FDF79AFB04460D46701C86B2082E04
:102D4000F3DB20462946BDE8F0810000000070401A
:102D50000000F03F00BF054A128802F04002002A3E
:102D6000F9D0C2B2014B1B1D1A80704700380140D8
:102D700010B5FFF77BF9FFF701F9002010BD000047
:102D800010B586B00446012144F20400FEF7ECFEC3
:102D90004FF40070ADF8140003208DF816001820D1
:102DA0008DF8170005A91C48FEF718FA4FF480604B
:102DB000ADF8140004208DF8170005A91648FEF799
:102DC0000DFA25208DF8000003208DF801008DF804
:102DD000020001208DF803006846FEF701FE019411
:102DE0000020ADF80800ADF80A00ADF80C00ADF811
:102DF00010000C20ADF80E0001A90848FFF7F2FD05
:102E0000012240F225510548FFF7C6FD0121034884
:102E1000FFF78CFD06B010BD0008014000380140EE
:102E2000402E00080000002088000000E82A00086A
:102E3000C82E000888000020500E0000F82A000864
:102E400000A24A0400000000000000000102030488
:102E50000607080900000000010203040102030440
:102E6000060708090204060800000000C800000068
:102E70009001000058020000000048460000C843CE
:102E8000200300000000AF450000C8430000804060
:102E900000001F4E4700000000000000000000007E
:102EA0000000000000000000000000000000000022
:102EB0000000000000000000000000000000000012
:082EC00000000000000000000A
:0400000508000131BD
:00000001FF
