:020000040800F2
:10000000980E0020450100084D0100084F0100082E
:1000100051010008530100085501000800000000CC
:100020000000000000000000000000005701000870
:1000300059010008000000005B0100085D01000894
:100040005F0100085F0100085F0100085F01000810
:100050005F0100085F0100085F0100085F01000800
:1000600065040008A9040008E50400085F01000811
:100070005F0100085F0100085F0100085F010008E0
:100080005F0100085F0100085F0100085F010008D0
:100090005F0100085F0100085F01000825050008F6
:1000A0005F0100085F0100085F0100085F010008B0
:1000B0009D0F000809110008611200085F01000887
:1000C0005F0100085F0100085F0100085F01000890
:1000D0005F010008251700085F0100085F010008A4
:1000E0005F0100085F0100085F0100085F01000870
:1000F0005F0100085F0100085F0100085F01000860
:100100005F0100085F0100085F0100085F0100084F
:100110005F0100085F0100085F0100085F0100083F
:100120005F0100085F0100085F0100085F0100082F
:10013000DFF80CD000F0B4F800480047891B000835
:10014000980E00200648804706480047FEE7FEE775
:10015000FEE7FEE7FEE7FEE7FEE7FEE7FEE7FEE777
:100160003D0F00083101000880EA010210B502F0DD
:100170000043400022D04A001FD0010E01EB126163
:10018000C0F35600C2F3560240F4000042F40002ED
:10019000A0FB022000047F39140400D0401C50EA68
:1001A000124001D44000491EC2B20C0604EBD0102C
:1001B000401C4008802A02D003E0002010BD20F03F
:1001C0000100002900DA0020184310BDC10F80EAA9
:1001D000E0700844CA079623002100F033B820F0ED
:1001E0000040C10DC0F3160040F400007F2901DA81
:1001F00000207047962903DCC1F19601C840704782
:1002000096398840704730B50B46014600202022C1
:10021000012409E021FA02F59D4205D303FA02F513
:10022000491B04FA02F52844151EA2F10102F1DC73
:1002300030BD0029A8BF7047401C490008BF20F00E
:100240000100704710B4B0FA80FC00FA0CF050EADC
:10025000010404BF10BC704749B1CCF1200421FA5D
:1002600004F411FA0CF118BF012121430843A3EB58
:100270000C01CB1D4FEA00614FEA102042BF002065
:1002800010BC704700EBC35010440029A4BF10BC41
:100290007047401C490008BF20F0010010BC7047A7
:1002A000064C074D06E0E06840F0010394E80700C3
:1002B00098471034AC42F6D3FFF73EFF381C0008D5
:1002C000581C000808B50121102000F095FC012100
:1002D000102000F091FC0121042000F08DFC012190
:1002E000102000F089FC0220ADF8000010208DF8ED
:1002F000030003208DF8020069464F4800F060FAC1
:100300000820ADF8000010208DF8030003208DF8C0
:1003100002006946484800F053FA0120ADF8000099
:1003200010208DF8030003208DF802006946434831
:1003300000F046FA0420ADF8000010208DF803000C
:1003400003208DF8020069463B4800F039FA10207E
:10035000ADF800008DF8030003208DF80200694617
:10036000364800F02DFA2020ADF8000010208DF85E
:10037000030003208DF802006946304800F020FA9F
:100380001020ADF800008DF8030003208DF8020066
:100390006946294800F014FA0120ADF80000102049
:1003A0008DF8030003208DF802006946244800F010
:1003B00007FA2020ADF8000010208DF8030003207C
:1003C0008DF8020069461E4800F0FAF94020ADF8A9
:1003D000000010208DF8030003208DF8020069460C
:1003E000174800F0EDF90221134800F076FA0821D1
:1003F000114800F070FA0121104800F06EFA042153
:100400000D4800F068FA10210C4800F066FA20212F
:100410000A4800F060FA1021074800F05EFA012156
:10042000074800F058FA2021054800F056FA40210C
:10043000034800F050FA08BD0010014000080140D8
:10044000000C01407FB505460C467020ADF8000059
:100450000020ADF802000220ADF8080069462846E9
:10046000A0477FBD10B5042000F01CF988B104201E
:1004700000F012F90A2001F053FB0648006840B969
:1004800002200549087408200449087004A001F0FE
:100490005BFA10BD08012342200100203800002033
:1004A0005A5F55500D0A000010B5082000F0FAF808
:1004B00078B1082000F0F0F80A2001F031FB05487F
:1004C000006830B90A200449087004490448FFF75D
:1004D000B9FF10BD0C01234238000020AD13000805
:1004E0000004004010B5102000F0DCF888B11020A6
:1004F00000F0D2F80A2001F013FB0648006840B96A
:1005000005480068C0430549C1F894010120044929
:10051000087010BD100123429481214200802142C5
:100520003800002010B50A2001F0FAFA202000F06F
:10053000B9F840B12748006828B9202000F0ACF88D
:10054000052025490870402000F0ACF880B140201B
:1005500000F0A2F81F48001D006848B906201E4997
:1005600008701E491E48FFF76DFF1EA001F0ECF950
:10057000802000F097F878B1802000F08DF81548C1
:100580000830006840B90220194908740720124950
:10059000087018A001F0D8F94FF4807000F082F8CC
:1005A00018B14FF4807000F077F84FF4007000F04D
:1005B00079F868B14FF4007000F06EF8054810301B
:1005C000006828B902200A49087409200249087005
:1005D00010BD000014012342380000205914000807
:1005E00000080040455854495F59320D0A00000088
:1005F000200100204C580D0A0000000010B500F04A
:100600006FF90921042000F0BBF80821042000F054
:10061000B7F80721042000F0B3F80621042000F009
:10062000AFF80521042000F0ABF80421084600F0E3
:10063000A7F80321042000F0A3F80221042000F011
:100640009FF800F045FA00F052FA00F05FFA00F06F
:100650006CFA00F001F810BD1CB54FF46F700090FB
:1006600000208DF804000C208DF8050001208DF885
:100670000600684600F02AF84020009000208DF81F
:10068000040010208DF8050001208DF80600684652
:1006900000F01CF81CBD0000014908607047000014
:1006A00014040140014600200022074B1B6803EAA6
:1006B0000102054B14331B680B4013B10AB1012032
:1006C00000E00020704700000004014000212349A1
:1006D0008279002A3AD00A46126803689A430B4688
:1006E0001A600A1D126803689A430B1D1A6002798A
:1006F00011440A6803681A430A60184A08321268EB
:1007000003689A43154B08331A601A1D1268036870
:100710009A43124B0C331A604279102A0ED11A1FD9
:10072000126803681A430D4B08331A601A1D1268C9
:1007300003681A43094B0C331A600DE007494279EC
:1007400011440A6803681A430A6005E002791144FB
:100750000A6803689A430A60704700000004014079
:100760007FB505460C467020ADF800000120ADF8BD
:1007700002000220ADF8080069462846A0477FBD68
:1007800030B500228B071C0F0F2303FA04F20B4B2A
:100790008C1053F824309343084C8D1044F82530C6
:1007A00023468C1053F824308C07240F00FA04F4ED
:1007B0002343024C8D1044F8253030BD0800014021
:1007C0002DE9F041024600250026002000230024E8
:1007D000002791F803C00CF00F0591F803C00CF04E
:1007E000100CBCF1000F03D091F802C04CEA0505D3
:1007F00091F800C0BCF1000F31D0146800202BE04C
:100800004FF0010C0CFA00F3B1F800C00CEA03063B
:100810009E4220D183004FF00F0C0CFA03F7BC432B
:1008200005FA03FC4CEA040491F803C0BCF1280F5C
:1008300006D14FF0010C0CFA00FCC2F814C00AE01B
:1008400091F803C0BCF1480F05D14FF0010C0CFA30
:1008500000FCC2F810C0401C0828D1D31460B1F8C5
:1008600000C0BCF1FF0F34DD546800202EE000F121
:10087000080C4FF0010808FA0CF3B1F800C00CEABC
:1008800003069E4221D183004FF00F0C0CFA03F7B0
:10089000BC4305FA03FC4CEA040491F803C0BCF124
:1008A000280F05D100F1080C08FA0CF8C2F81480E2
:1008B00091F803C0BCF1480F07D100F1080C4FF0CC
:1008C000010808FA0CF8C2F81080401C0828CED3A2
:1008D0005460BDE8F08141617047016170470000DC
:1008E00008B50121412000F087F94FF47F70ADF881
:1008F000000048208DF8030003208DF802006946AF
:100900000148FFF75DFF08BD0018014008B501214F
:10091000082000F071F92020ADF8000010208DF8BB
:10092000030003208DF8020069460248FFF748FFE4
:1009300008BD0000000C014070B505460C46207C47
:10094000022806D003282AD0042873D0052872D1A3
:1009500063E0002056490880564908700021284667
:1009600000F0FEFC5448407C062805D153494FF066
:100970008040FFF767FD11E04F48407C072805D114
:100980004F494FF08040FFF75DFD07E04A48407C4B
:10099000082803D14B49C006FFF754FD85E04448C1
:1009A0000088401C42490880207828B946480068E1
:1009B000401C4549086004E043480068401E424925
:1009C00008603B490988E068884209DD3F483849AA
:1009D000098830F8110000B2A080032020741BE0C9
:1009E00033490988A06888420AD831480088401EE7
:1009F000364931F8100000B2A080042020740BE0CA
:100A00002B480088B0F5C87F06DB3048B0F81E03DD
:100A100000B2A0800520207447E025480088401CD3
:100A200023490880207838B927480068401C2649A7
:100A3000086006E012E037E023480068401E2249C3
:100A400008601B490988A068884206D81F48B0F88A
:100A50001E0300B2A0800420207426E01448008801
:100A6000401C13490880207828B917480068401CAA
:100A70001549086004E014480068401E12490860E7
:100A8000B4F902000A49098888420ADDB4F9020073
:100A900007490988401A0D4931F8100000B2A080BA
:100AA00001E00220207400E000BF00BF70BD000024
:100AB000540000203C0000202001002059140008B0
:100AC00019150008CD15000840000020740700200B
:100AD00008B508208DF8000001208DF801008DF880
:100AE00002008DF80300684600F034F808BD08B530
:100AF00009208DF8000001208DF801008DF802001A
:100B00008DF80300684600F025F808BD08B50A20F6
:100B10008DF8000001208DF801008DF802008DF89D
:100B20000300684600F016F808BD08B517208DF8D8
:100B3000000001208DF801008DF802008DF80300FF
:100B4000684600F007F808BD10B54FF4A06000F04B
:100B500039F810BD70B5002100230F22C47804B30A
:100B6000154C246804F4E064C4F5E064210AC1F182
:100B70000403CA40447804FA03F184781440214302
:100B800009010E4C0678A155047804F01F050124D4
:100B9000AC4005786D11AD0005F1E025C5F80041C8
:100BA00009E0047804F01F050124AC40044D0678E8
:100BB000761145F8264070BD0CED00E000E400E041
:100BC00080E100E002490143024A116070470000E1
:100BD0000000FA050CED00E029B1064AD269024393
:100BE000044BDA6104E0034AD2698243014BDA61C3
:100BF000704700000010024029B1064A9269024382
:100C0000044B9A6104E0034A92698243014B9A6162
:100C1000704700000010024030B50021002200247F
:100C200000232D4D6D6805F00C0121B1042905D07C
:100C3000082923D105E0294D056022E0274D0560F4
:100C40001FE0254D6D6805F47012234D6D6805F4A5
:100C50008034022505EB92421CB9214D55430560B5
:100C60000BE01D4D6D6805F400351DB11C4D55435D
:100C7000056002E0194D5543056002E0174D05601F
:100C800000BF00BF144D6D6805F0F0010909154D56
:100C90006B5C0568DD4045600F4D6D6805F4E061F3
:100CA000090A104D6B5C4568DD4085600A4D6D6832
:100CB00005F46051C90A0B4D6B5C4568DD40C560A9
:100CC000054D6D6805F44041890B074D6B5CC568A7
:100CD000B5FBF3F5056130BD0010024000127A004B
:100CE00000093D00140000202400002010B5144825
:100CF000144908601448154908600B2014494874C9
:100D000001224721134800F0ACFC0E480068FFF7B1
:100D100066FA84B221460F4800F0A6FC0B48006832
:100D2000FFF75DFA84B221460A4800F0A1FC0A49A7
:100D30000848FFF715FD0121064800F011FB10BD22
:100D4000003E9C46440000200020884448000020CB
:100D500020010020000400405914000810B500F0E4
:100D600001F810BD0CB500200190009033480068D8
:100D700040F480303149086000BF3048006800F41A
:100D8000003000900198401C0190009818B901981B
:100D9000B0F5A06FF1D12948006800F4003010B11F
:100DA0000120009001E0002000900098012843D12C
:100DB0002348006840F01000214908600846006898
:100DC00020F0030008600846006840F00200086058
:100DD0001A48406819494860084640684860084613
:100DE000406840F4806048600846406820F47C1009
:100DF00048600846406840F4E810486008460068CB
:100E000040F08070086000BF0C48006800F000707F
:100E10000028F9D00948406820F0030007494860DD
:100E20000846406840F00200486000BF0348406840
:100E300000F00C000828F9D10CBD000000100240A1
:100E40000020024010B5044603492046FFF78CF904
:100E50000249086010BD0000000044424800002024
:100E6000052427E014480078012807D10020124902
:100E7000087012A000F068FDFFF738FF11480088E5
:100E800000F40040B0B11048407830380E4909787D
:100E9000303901EB810100EB41042046FFF796F960
:100EA0000546FFF7CFFF214608A000F04DFD0020CA
:100EB00004490880D6E700003800002053746172AE
:100EC000740D0A00300000205800002043433A25EA
:100ED000640D0A0010B500F001FEFFF735FE4FF477
:100EE000165000F059FEFFF711FDFFF787FBFFF7E3
:100EF000E9F9082142F20F7000F09AF8082142F255
:100F00000F7000F04DF9082142F20F7000F0CCF99B
:100F100010BD042808D14FF0E021096941F0040117
:100F20004FF0E022116107E04FF0E021096921F064
:100F300004014FF0E02211617047000010B5134822
:100F4000006840F0010011490860084640681049F7
:100F500008400E494860084600680E4908400B49A1
:100F600008600846006820F4802008600846406851
:100F700020F4FE0048604FF41F008860FFF7EEFE8B
:100F80004FF000600449086010BD000000100240EE
:100F90000000FFF8FFFFF6FE08ED00E010B50121AC
:100FA000880700F0E9F900283ED00121880700F009
:100FB000D4F91E494FF08040FFF7BEFC1B488088E3
:100FC00081B24FF0804000F04FFB1848407C06286B
:100FD0000BD11648B0F9044004EBD470C0F34F01B4
:100FE0004FF0804000F044FB1EE01048407C072892
:100FF0000BD10E48B0F9044004EBD470C0F34F019C
:101000004FF0804000F036FB0EE00848407C082896
:101010000AD10648B0F9044004EBD470C0F34F0184
:101020004FF0804000F028FB10BD000020010020A0
:1010300030B585B005460C4601210520FFF7DCFDE3
:1010400001210846FFF7C8FD0E20ADF8100018205A
:101050008DF8130003208DF8120004A92648FFF72D
:10106000AFFB26494FF08040FFF7ECF924494FF0E1
:101070008040FFF7E7F923494FF08040FFF7E2F99E
:101080000821C80600F03AFA0821C80600F094FAD0
:101090000821C80600F0D8FA0121880700F05AF9A3
:1010A00001221146900700F078F94FF4A060FFF795
:1010B00089FD1C208DF80C0002208DF80D008DF8A4
:1010C0000E0001208DF80F0003A8FFF743FDADF8D7
:1010D0000450ADF800400020ADF80600ADF8020065
:1010E00069464FF0804000F0CBFA00214FF080407D
:1010F00000F036F905B030BD000801405914000871
:1011000019150008CD15000810B501211E4800F082
:1011100033F9002836D001211B4800F01EF91B4886
:10112000407C092812D11A480068FFF758F884B2A9
:101130002146154800F098FA16480068FFF74FF866
:1011400084B22146104800F091FA1BE00F48407C21
:101150000B2817D110480068C0431049C1F894010A
:101160000B480068FFF73BF884B22146064800F0C0
:101170007BFA08480068FFF732F884B2214602483B
:1011800000F076FA10BD00000004004020010020AD
:101190004400002048000020948121420080214228
:1011A00030B585B005460C4601210520FFF724FD2A
:1011B00001210220FFF710FDC020ADF8100018201B
:1011C0008DF8130003208DF8120004A92048FFF7C2
:1011D000F7FA20492048FFF735F920491E48FFF764
:1011E00031F908211C4800F02DF908211A4800F0B7
:1011F00085F90121184800F0ADF801221146164882
:1012000000F0CBF84FF4A060FFF7DCFC1D208DF858
:101210000C0002208DF80D008DF80E0001208DF8D5
:101220000F0003A8FFF796FCADF80450ADF800409E
:101230000020ADF80600ADF802006946064800F04F
:101240001FFA0021044800F08BF805B030BD000003
:1012500000080140AD1300080004004059140008C4
:1012600010B501210D4800F087F8A8B101210B4805
:1012700000F073F80A480068FEF7B1FF84B2214617
:10128000064800F0F1F907480068FEF7A8FF84B2AD
:101290002146024800F0ECF910BD000000080040B3
:1012A0004C0000205000002030B585B005460C46AB
:1012B00001210920FFF7A0FC01210420FFF78CFC8D
:1012C0008020ADF8100018208DF8130003208DF851
:1012D000120004A91C48FFF773FA1C491C48FFF7C9
:1012E000B1F808211A4800F009F90121184800F066
:1012F00031F801221146164800F04FF84FF4A06073
:10130000FFF760FC1D208DF80C0002208DF80D0009
:101310008DF80E0001208DF80F0003A8FFF71AFCCE
:10132000ADF80450ADF800400020ADF80600ADF86F
:1013300002006946064800F0A3F90021044800F0C5
:101340000FF805B030BD0000000C01405914000832
:1013500000080040CA4302827047CA4302827047B5
:1013600021B1028842F00102028004E002884FF6B7
:10137000FE731A400280704730B5024600200023F9
:101380000024158A05EA0103958905EA010413B1D1
:101390000CB1012000E0002030BD1AB183890B435D
:1013A000838102E083898B438381704770B5002479
:1013B00000220023058C4FF6FE7635400584028C12
:1013C0008388048B4FF68F752C40B51E2C400D88FA
:1013D0002C43751E2A400D892A434D882A43144DFB
:1013E000A8420BD0134DA84208D0134DA84205D0F7
:1013F000124DA84202D0124DA84213D14FF6F775F4
:101400002A404D892A434FF6FB752A408D882A438E
:101410004FF6FF652B404FF6FF552B408D892B4330
:10142000CD892B4383800483CD888586028470BD5B
:10143000002C0140003401400040014000440140C4
:10144000004801400A460021018B4FF6F77319400E
:10145000114301837047000070B50024002200236F
:10146000058C4FF6EF7635400584028C8388048B1B
:1014700048F6FF752C404FF6FF452C400D884FF67F
:10148000FF7606EA05252C434FF6DF752A400D89C5
:1014900006EA05152A434D8806EA05152A43154D27
:1014A000A84202D0144DA8421DD14FF67F752A40A4
:1014B0004D894FF6FF7606EA05152A434FF6BF75AC
:1014C0002A408D8806EA05152A434FF6FF352B4042
:1014D0004FF2FF752B408D8906EA85052B43CD8998
:1014E00006EA85052B4383800483CD880587028423
:1014F00070BD0000002C0140003401400A4600216C
:10150000018B4FF2FF7319404FF6FF7303EA02237A
:10151000194301837047000070B5002400220023A6
:10152000058C4FF6FF6635400584028C8388848BDA
:101530004FF68F752C404FF6FC752C400D882C43D0
:101540004FF6FF552A400D894FF6FF7606EA05252E
:101550002A434D8806EA05252A43154DA84202D0A4
:10156000144DA8421DD14FF2FF752A404D894FF608
:10157000FF7606EA05252A434FF6FF352A408D8877
:1015800006EA05252A434EF6FF752B404DF6FF75FA
:101590002B408D8906EA05152B43CD8906EA0515F2
:1015A0002B4383808483CD888587028470BD0000AF
:1015B000002C0140003401400A460021818B4FF687
:1015C000F7731940114381837047000070B5002202
:1015D00000230024058C4EF6FF7635400584038CED
:1015E0008488828B48F6FF752A404FF6FF452A40D3
:1015F0000D884FF6FF7606EA05252A434DF6FF755E
:101600002B400D8906EA05352B434D8806EA053542
:101610002B430B4DA84202D00A4DA84208D14BF6ED
:10162000FF752C408D894FF6FF7606EA85152C4311
:1016300084808283CD88A0F84050038470BD000070
:10164000002C0140003401400A460021818B4FF2FA
:10165000FF7319404FF6FF7303EA02231943818396
:101660007047018582827047818570478186704707
:101670000187704781877047A0F8401070470000CD
:10168000002202881D4B98420ED01D4B98420BD071
:10169000B0F1804F08D01B4B984205D01A4B9842AE
:1016A00002D01A4B984204D14FF68F731A404B88E0
:1016B0001A43174B984207D0164B984204D04FF666
:1016C000FF431A40CB881A4302808B8883850B889E
:1016D00003850A4B98420BD0094B984208D00E4B19
:1016E000984205D00D4B984202D00D4B984201D143
:1016F0000B7A03860123838270470000002C01408F
:10170000003401400004004000080040000C00408C
:10171000001000400014004000400140004401401F
:101720000048014010B5002440F225511C4800F04B
:1017300049F810B31A4800F001F9C4B219480088FA
:1017400000F40040C8B91748008800F4804060B138
:101750000A2C03D000201349088020E0114800889B
:1017600040F400400F49088019E00D2C06D10D48C7
:10177000008840F480400B49088010E00948008848
:10178000C0F30D0008490C5406480088401C054968
:10179000088008460088C72801DD0020088010BDA9
:1017A00000380140300000205800002021B182891B
:1017B00042F40052828104E082894DF6FF731A40A0
:1017C0008281704770B50246002400230025002066
:1017D00040F66A16B14200D100BFC1F3421501F0D4
:1017E0001F03012606FA03F3012D02D19689334027
:1017F00006E0022D02D1168A334001E0968A33407A
:101800000C12012606FA04F41688344013B10CB108
:10181000012000E0002070BDF0B503460024002642
:101820000025002040F66A17B94200D100BF1846D3
:10183000C1F3421401F01F06012707FA06F5012C37
:1018400001D10C3004E0022C01D1103000E0143042
:101850001AB107682F43076002E00768AF430760CB
:10186000F0BD00002DE9F04786B005460E46002485
:10187000A24600BFA1460027B08900B100BF2F4695
:101880002C8A4CF6FF700440F08804432C82AC890B
:101890004EF6F3100440B08831890843718908433B
:1018A0000443AC81AC8A4FF6FF400440B089044346
:1018B000AC8201A8FFF7B0F91F48874202D1DDF8DA
:1018C00010A001E0DDF80CA0A88900F4004040B1B0
:1018D0000AEBCA0000EB0A1031684900B0FBF1F8CE
:1018E00007E00AEBCA0000EB0A1031688900B0FB80
:1018F000F1F86420B8FBF0F004012009642101FB39
:101900001089A88900F4004040B1322000EBC900E2
:10191000B0FBF1F000F00700044308E0322000EBD8
:1019200009106421B0FBF1F000F00F0004432C819A
:1019300006B0BDE8F0870000003801400146888805
:10194000C0F30800704700000FB4054B10B503A9A1
:10195000044A029800F018F810BC5DF814FB00006F
:101960006D1B00082C00002002E008C8121F08C1EF
:10197000002AFAD170477047002001E001C1121F10
:10198000002AFBD1704700002DE9FF4F89B09B462C
:101990000446002506E025280BD05A460B999047AF
:1019A000641C6D1C20780028F5D10DB02846BDE8D8
:1019B000F08F0027B8460122474900E0074314F89A
:1019C000013F203B02FA03F00842F7D120782E288D
:1019D00019D114F8010F47F004072A280ED06FF030
:1019E0002F022078A0F1300109290CD808EB8801DA
:1019F00002EB410100EB0108641CF2E70A98641C49
:101A000050F8048B0A9020780028CED0642808D0A3
:101A1000692806D075281ED05A460B9990476D1C30
:101A200058E00A994FF00A0901C90A91002802DA20
:101A300040422D2102E0390504D52B218DF82010DC
:101A4000012103E0F90704D02021F7E78A4608AE18
:101A50000DE00021FAE70A994FF00A0901C90A913D
:101A6000F7E74946FEF7CFFB303106F8011D0028A5
:101A7000F7D1ADEB060000F12009780701D44FF053
:101A80000108C84502DDA8EB090000E000208046FF
:101A9000002706E008A85A46C05D0B9990476D1CC8
:101AA0007F1C5745F6DB04E030205A460B999047DF
:101AB0006D1CB8F10001A8F10108F5DC05E016F88D
:101AC000010B5A460B9990476D1CB9F10001A9F121
:101AD0000109F4DC641C65E70928010010B56FF00A
:101AE0000400FFF716FA0A4800680A49B0FBF1F053
:101AF000094908700846007800EB4001C1EBC010AE
:101B00004FF6FF7101EAC0000449088010BD0000D3
:101B10000000002000127A00280000202A00002087
:101B20000146114A12884A434FF0E0235A610022CD
:101B30009A611A46126942F001021A6100BF4FF021
:101B4000E022106900F001021AB100F48032002A8C
:101B5000F5D04FF0E022126922F001024FF0E023AD
:101B60001A6100229A6170472A00002000BF054ACE
:101B7000128802F04002002AF9D0C2B2014B1B1DAC
:101B80001A8070470038014010B5FFF7A3F9FFF73E
:101B900067F9002010BD000010B586B00446012191
:101BA00044F20400FFF728F84FF40070ADF8140079
:101BB00003208DF8160018208DF8170005A91C4881
:101BC000FEF7FEFD4FF48060ADF8140004208DF8A0
:101BD000170005A91648FEF7F3FD25208DF8000033
:101BE00003208DF801008DF8020001208DF803001C
:101BF0006846FEF7AFFF01940020ADF80800ADF88D
:101C00000A00ADF80C00ADF810000C20ADF80E0085
:101C100001A90848FFF726FE012240F22551054898
:101C2000FFF7FAFD01210348FFF7C0FD06B010BD24
:101C30000008014000380140581C00080000002046
:101C40005800000068190008B01C00085800002067
:101C5000400E00007819000800A24A0400000000AD
:101C6000000000000102030406070809000000004C
:101C7000010203040102030406070809020406081E
:101C80000000000000000000000000000000000054
:101C90000000000000000000000000000000000044
:101CA0000000000000000000000000000000000034
:0400000508000131BD
:00000001FF
