:020000040800F2
:10000000E0090020450100084D0100084F010008EB
:1000100051010008530100085501000800000000CC
:100020000000000000000000000000005701000870
:1000300059010008000000005B0100085D01000894
:100040005F0100085F0100085F0100085F01000810
:100050005F0100085F0100085F0100085F01000800
:10006000490B0008810B0008BD0B00085F01000868
:100070005F0100085F0100085F0100085F010008E0
:100080005F0100085F0100085F0100085F010008D0
:100090005F0100085F0100085F010008FD0B000818
:1000A0005F0100085F0100085F0100085F010008B0
:1000B0001D1A0008891B0008951C00085F01000834
:1000C0005F0100085F0100085F0100085F01000890
:1000D0005F010008552100085F0100085F0100086A
:1000E0005F0100085F0100085F0100085F01000870
:1000F0005F0100085F0100085F0100085F01000860
:100100005F0100085F0100085F0100085F0100084F
:100110005F0100085F0100085F0100085F0100083F
:100120005F0100085F0100085F0100085F0100082F
:10013000DFF80CD000F0A2FB004800478D24000837
:10014000E00900200648804706480047FEE7FEE732
:10015000FEE7FEE7FEE7FEE7FEE7FEE7FEE7FEE777
:10016000BD1900083101000840EA01039B0703D0D4
:1001700009E008C9121F08C0042AFAD203E011F8E6
:10018000013B00F8013B521EF9D27047F0B480EAFF
:100190000102D40F4200B2EB410F02D202460846E0
:1001A00011464A0042D0C30DDDB2C1F3C752AD1AA9
:1001B000202D35DAC1F3160141F4000204B1524298
:1001C000C5F1200602FA06F12A411044B3EBD05FD4
:1001D00023D0C4B1012DA0EBC35009DCF0BC4FF01B
:1001E000004202EAC352DBB200F5000000F0BABAE6
:1001F000400000F1807000EBC350A0F1807040EA35
:10020000D170490009E0490841EAC071A0EBC35030
:1002100000F50000400800EBC350F0BC00F099BAB4
:100220006142012202EB4101001BF6E7F0BC70477E
:1002300081F00041AAE780F00040A7E780EA0102D0
:1002400010B502F00043400022D04A001FD0010E3A
:1002500001EB1261C0F35600C2F3560240F40000F5
:1002600042F40002A0FB022000047F39140400D0F5
:10027000401C50EA124001D44000491EC2B20C0694
:1002800004EBD010401C4008802A02D003E000207C
:1002900010BD20F00100002900DA0020184310BD35
:1002A00030B480EA010202F0004530F0004221F053
:1002B000004013D090B1C30DD40DC2F31601C0F3AA
:1002C0001600E41A41F4000140F400027D3491422A
:1002D00001D3641C00E04900002C02DA30BC00208D
:1002E00070474FF400000023914201D3891A034361
:1002F00040084FEA4101F7D151B1914202D14FF08C
:10030000004105E002D24FF0010101E06FF0010170
:1003100003EBC450284430BC00F01BBA2DE9FE4F5B
:10032000804681EA0300C00F0C46009021F0004196
:1003300023F00045B8EB0200A94105D24046214612
:1003400090461C460B46024623F00040104347D01F
:10035000270DC7F30A00C3F30A510290401A019017
:1003600040286BDAC3F3130040F4801B00989246D8
:1003700020B10023D2EB030A63EB0B0B0198594623
:10038000C0F14002504600F0C3F906460D46504603
:100390005946019A00F0CBF910EB080061410024A6
:1003A00087EA115284EAE7731A4340D0009A62B395
:1003B000019A012A4FEA075215DC001B61EB02018A
:1003C0004FF0004202EA0752CDE90042001C41F51D
:1003D000801132462B4600F002FA03B0BDE8F08FE0
:1003E00040462146F9E7001B61EB0201001C41F584
:1003F000801300185B412018A2F5001747EB03019A
:1004000040EAD570B6196D4111E06D084FEA360625
:1004100045EAC0754FEA0752001B61EB0201001C60
:1004200041F5801149084FEA300000195141324628
:100430002B4603B0BDE8F04F00F0C2B9009801228E
:1004400040000023D0EB020263EBE07300982146EA
:100450004FEAE074B8EB000061EB0401E9E783F0D8
:1004600000435BE781F0004158E72DE9FE4F81EA48
:10047000030404F0004421F0004100944FF0000B0D
:1004800023F0004350EA01045ED052EA03045BD03B
:10049000C3F30A54C1F30A552C44A4F2F334019473
:1004A000A0FB0254C1F3130141F48011C3F3130301
:1004B00043F4801301FB024400FB034E840A970AB5
:1004C00044EA815447EA8357A4FB076802958D0AE2
:1004D00005FB07854FEA932C04FB0C542705029D6E
:1004E0004FEA065847EA1637B5EB08056EEB070CDE
:1004F000870E920E47EA811742EA8312A7FB020198
:10050000B6EB0B0164EB00042B0D43EA0C335E18D1
:1005100044EB1C50DA465146E7FB0201C5F31304D5
:100520004FEA0B3343EA14534FEA0432019C43EA87
:100530000603A4F10C040294009CCDE900B400F081
:100540004EF903B0BDE8F08F00200146F9E72DE930
:10055000F04D81EA030404F0004B21F000451446FD
:100560004FF0000A23F0004150EA050220D054EA7F
:1005700001021DD0C5F30A570246C5F31303C1F3A8
:100580001300C1F30A5640F4801543F48013A7EB1F
:100590000608101BD64608F2FD3873EB050002D39F
:1005A00008F1010801E092185B41B8F1000F03DA8D
:1005B00000200146BDE8F08D00204FF48011064672
:1005C00084460EE0171B73EB050705D3121B63EB84
:1005D000050306434CEA010C49084FEA3000921823
:1005E0005B4150EA0107EDD152EA030012D082EAE2
:1005F000040083EA0501084305D0101BAB4106D275
:100600000122002306E000224FF0004302E06FF0D9
:10061000010253101AEB06004CEB085110EB0A00D4
:1006200041EB0B01BDE8F04D00F0CAB89623002263
:10063000114600F097B80EB5C10F80EAE07008448B
:10064000CA07002140F233438DE80E000A460B46EC
:1006500000F0C5F803B000BD00F0004220F00040FB
:10066000C10DC0F3160040F400007F2901DA00201C
:100670007047962903DCC1F19601C84001E0963924
:100680008840002AF4D04042704720F00040C10D5D
:10069000C0F3160040F400007F2901DA0020704703
:1006A000962903DCC1F19601C8407047963988400D
:1006B000704700F0004230F000400AD0C10D01F553
:1006C0006071C0F3160042EA0151C20840071143AD
:1006D000704700200146704701F0004330B421F01C
:1006E000004150EA010206D00A0DA2F56072C1F382
:1006F0001301002A02DC30BC00207047440F44EA9A
:10070000C104C100E01830BC00EBC25000F021B8B9
:10071000202A04DB203A00FA02F1002070479140C1
:10072000C2F1200320FA03F3194390407047202AB6
:1007300006DBCB17203A41FA02F043EAE07306E009
:1007400041FA02F3D040C2F1200291400843194619
:1007500070470029A8BF7047401C490008BF20F01F
:100760000100704710B4B0FA80FC00FA0CF050EAB7
:10077000010404BF10BC704749B1CCF1200421FA38
:1007800004F411FA0CF118BF012121430843A3EB33
:100790000C01CB1D4FEA00614FEA102042BF002040
:1007A00010BC704700EBC35010440029A4BF10BC1C
:1007B0007047401C490008BF20F0010010BC704782
:1007C00010B5141E73F1000408DA401C41F1000159
:1007D00092185B411A4301D120F0010010BD2DE9B0
:1007E000F04D92469B4611B1B1FA81F202E0B0FAA7
:1007F00080F220329046FFF78BFF04460F4640EA16
:100800000A0041EA0B0153465A46084313D01146E9
:1008100053EA010019D0C8F14002504600F040F8F8
:1008200005460E46504659464246FFF771FF0843BB
:1008300005D0012004E020463946BDE8F08D0020B7
:10084000054346EAE0762C4337430A986305E40AF9
:10085000A0EB08000022FD0A44EA47540A3002D502
:1008600000200146E9E7010510196941DDE9084565
:1008700000196941BDE8F04DA2E70000064C074DA4
:1008800006E0E06840F0010394E807009847103460
:10089000AC42F6D3FFF750FC3C2500085C2500086D
:1008A000202A04DB203A21FA02F00021704721FAC5
:1008B00002F3D040C2F1200291400843194670472C
:1008C0002DE9F34F85B04FF0000A0020049003900B
:1008D000DDE90501FFF7ACFC029052E0AAF16400EB
:1008E000FFF7A9FE80460022294BFFF7BEFD064612
:1008F0000022284BFFF72BFE0446FFF7EDFE049085
:10090000049880F0004B5846FFF7D3FECDE9000174
:1009100001F094FD064600221F4BFFF7FFFC044642
:1009200022460B4600201C49FFF711FE8046FFF7C8
:10093000D3FE0390DDE90201FFF780FC044606992F
:10094000FFF724FC154941F82A00154800680921E1
:10095000B0FBF1F73846FFF769FE06460F4850F83E
:100960002A103046FFF79CFC05464FF07E51FFF7FA
:100970005FFC0446FFF789FE0A4921F81A000AF1D4
:10098000010ABAF1C80FA9DB07B0BDE8F08F00007B
:1009900000001040000059400000F03F2C010020F2
:1009A000000000204C04002008B50121102000F0B8
:1009B00087FE0121102000F083FE0121042000F0B9
:1009C0007FFE0121102000F07BFE0220ADF8000028
:1009D00010208DF8030003208DF8020069464F486F
:1009E00000F050FA0820ADF8000010208DF8030048
:1009F00003208DF802006946484800F043FA0120C0
:100A0000ADF8000010208DF8030003208DF80200DF
:100A10006946434800F036FA0420ADF80000102083
:100A20008DF8030003208DF8020069463B4800F072
:100A300029FA1020ADF800008DF8030003208DF88E
:100A400002006946364800F01DFA2020ADF800008B
:100A500010208DF8030003208DF80200694630480D
:100A600000F010FA1020ADF800008DF8030003200C
:100A70008DF802006946294800F004FA0120ADF81B
:100A8000000010208DF8030003208DF80200694655
:100A9000244800F0F7F92020ADF8000010208DF870
:100AA000030003208DF8020069461E4800F0EAF9B1
:100AB0004020ADF8000010208DF8030003208DF8D1
:100AC00002006946174800F0DDF90221134800F0E2
:100AD00066FA0821114800F060FA0121104800F080
:100AE0005EFA04210D4800F058FA10210C4800F07D
:100AF00056FA20210A4800F050FA1021074800F069
:100B00004EFA0121074800F048FA2021054800F07C
:100B100046FA4021034800F040FA08BD00100140A9
:100B200000080140000C01407FB505460C467020CE
:100B3000ADF800000020ADF802000220ADF808007A
:100B400069462846A0477FBD10B5042000F00CF987
:100B500070B10A2001F040FC0648006828B90B205B
:100B600005490870022005490874042000F0F6F8D1
:100B700010BD0000080123423800002018010020A9
:100B800010B5082000F0F0F878B10A2001F024FC3C
:100B90000648006830B90A2005490870054906482A
:100BA000FFF7C2FF082000F0D9F810BD0C01234266
:100BB00038000020E51D00080004004010B510209A
:100BC00000F0D2F888B10A2001F006FC074800685E
:100BD00040B907480068C0430649C1F894010120A4
:100BE00005490870102000F0B9F810BD100123422B
:100BF00094812142008021423800002010B50A2053
:100C000001F0EAFB202000F0AFF880B12C4800682A
:100C100050B905202B49087040F6B83001F0DCFBD4
:100C200029492A48FFF780FF202000F097F840204C
:100C300000F09AF868B12248001D006830B906201B
:100C40002049087022492348FFF76EFF402000F03A
:100C500085F84FF4007000F087F868B1184810303C
:100C6000006828B902201C49087409201549087039
:100C70004FF4007000F072F8802000F075F860B159
:100C80000F480830006840B9022013490874072053
:100C90000C490870802000F061F84FF4807000F07B
:100CA00063F860B106480C30006840B902200A4978
:100CB0000874082003490870400100F04FF810BD87
:100CC0001401234238000020E51D00080004004004
:100CD000911E0008000800401801002010B500F027
:100CE00061F90921042000F0ADF80821042000F08A
:100CF000A9F80721042000F0A5F80621042000F03F
:100D0000A1F80521042000F09DF80421084600F018
:100D100099F80321042000F095F80221042000F046
:100D200091F800F007FC00F014FC00F021FC00F04A
:100D30002EFC00F001F810BD1CB54FF47F70009040
:100D400000208DF804000C208DF8050001208DF89E
:100D50000600684600F01CF81CBD00000149086050
:100D60007047000014040140014600200022074B98
:100D70001B6803EA0102054B14331B680B4013B1D7
:100D80000AB1012000E0002070470000000401408B
:100D9000002123498279002A3AD00A461268036862
:100DA0009A430B461A600A1D126803689A430B1D8A
:100DB0001A60027911440A6803681A430A60184AE3
:100DC0000832126803689A43154B08331A601A1DDB
:100DD000126803689A43124B0C331A604279102A46
:100DE0000ED11A1F126803681A430D4B08331A609C
:100DF0001A1D126803681A43094B0C331A600DE080
:100E00000749427911440A6803681A430A6005E0F9
:100E1000027911440A6803689A430A607047000027
:100E2000000401407FB505460C467020ADF8000077
:100E30000120ADF802000220ADF8080069462846FE
:100E4000A0477FBD30B500228B071C0F0F2303FA8C
:100E500004F20B4B8C1053F824309343084C8D1044
:100E600044F8253023468C1053F824308C07240F87
:100E700000FA04F42343024C8D1044F8253030BDB1
:100E8000080001402DE9F04102460025002600201F
:100E900000230024002791F803C00CF00F0591F8FF
:100EA00003C00CF0100CBCF1000F03D091F802C08D
:100EB0004CEA050591F800C0BCF1000F31D0146870
:100EC00000202BE04FF0010C0CFA00F3B1F800C049
:100ED0000CEA03069E4220D183004FF00F0C0CFA5F
:100EE00003F7BC4305FA03FC4CEA040491F803C081
:100EF000BCF1280F06D14FF0010C0CFA00FCC2F82F
:100F000014C00AE091F803C0BCF1480F05D14FF0BE
:100F1000010C0CFA00FCC2F810C0401C0828D1D308
:100F20001460B1F800C0BCF1FF0F34DD546800203C
:100F30002EE000F1080C4FF0010808FA0CF3B1F8AC
:100F400000C00CEA03069E4221D183004FF00F0C33
:100F50000CFA03F7BC4305FA03FC4CEA040491F8CD
:100F600003C0BCF1280F05D100F1080C08FA0CF8F9
:100F7000C2F8148091F803C0BCF1480F07D100F10A
:100F8000080C4FF0010808FA0CF8C2F81080401C59
:100F90000828CED35460BDE8F081416170470161FB
:100FA0007047000008B50121412000F089FB4FF493
:100FB0007F70ADF8000048208DF8030003208DF805
:100FC000020069460148FFF75DFF08BD00180140B7
:100FD00008B50121082000F073FB2020ADF80000C7
:100FE00010208DF8030003208DF8020069460248A6
:100FF000FFF748FF08BD0000000C01400FB410B51A
:10100000142202A93C48FFF7AFF83B48407C062871
:1010100022D13948007820B902213848FFF7BFFFB4
:1010200007E035480078012803D102213348FFF753
:10103000B4FF3148808881B24FF0804001F02DF834
:101040002D48B0F9044004EBD470C0F34F014FF0C9
:10105000804001F026F84CE02748407C072822D148
:101060002548007820B901212548FFF798FF07E0BF
:1010700021480078012803D101212148FFF78DFF85
:101080001D48808881B24FF0804001F006F81A4870
:10109000B0F9044004EBD470C0F34F014FF080402E
:1010A00001F001F825E01448407C082821D11248BD
:1010B000007820B910211248FFF771FF07E00E48B1
:1010C0000078012803D110210D48FFF766FF0A4878
:1010D000808881B24FF0804000F0DFFF0648B0F911
:1010E000044004EBD470C0F34F014FF0804000F097
:1010F000DCFF10BC5DF814FB18010020001001405B
:10110000000801402DE9F04F87B004460D46164611
:101110001F468DF8197031462846FFF7D1FB002C89
:1011200004DA01208DF80800644202E000208DF806
:10113000080020B2ADF80A00012C1FD10120059053
:10114000364800680921B0FBF1FB5846FFF76EFAFC
:1011500082463146FFF7A4F881464FF07E51FFF7F3
:1011600067F88046FFF778FA00B2ADF80C0004206B
:101170008DF8180001202A49087026E02CB3B4F538
:10118000C87F12DC2748008800B2ADF80C0020466A
:1011900004EBD071491005910598049003208DF857
:1011A000180001201E4908700FE01E48008800B298
:1011B000ADF80C00C8200590A4F1C80004900320ED
:1011C0008DF818000120164908700698009002A8B2
:1011D0000FC8FFF713FF1448407C062805D11349B8
:1011E0004FF08040FFF71EFE11E00F48407C0728BB
:1011F00005D10F494FF08040FFF714FE07E00A4881
:10120000407C082803D10B49C006FFF70BFE0121E3
:10121000880700F0C1FD07B0BDE8F08F0000002096
:101220003C0000204C04002018010020911E000802
:10123000511F00080520000810B54FF4FA44072399
:10124000164A17491748FFF75DFF00BF1648007898
:101250000028FBD10723114A11494FF41660FFF70C
:1012600051FF00BF104800780028FBD106230B4A2D
:101270000B494FF44860FFF745FF00BF0A4800786C
:101280000028FBD10623054A05496042FFF73AFFD3
:1012900000BF054800780028FBD110BD0000C843FE
:1012A00000004845A0F6FFFF3C00002070B5054651
:1012B0000C46207C022806D0032828D0042870D0B1
:1012C00005286FD160E00020544908805449087017
:1012D0000021284600F060FD5248407C062804D1D9
:1012E00051492846FFF720FC10E04E48407C072873
:1012F00004D14E492846FFF717FC07E04948407CD7
:10130000082803D14A492846FFF70EFC84E04348E9
:101310000088401C41490880207828B94548006869
:10132000401C4449086004E042480068401E4149AE
:1013300008603A490988E068884209DD3E48374933
:10134000098830F8110000B2A080032020741AE050
:1013500032490988A06888420AD830480088401E6F
:10136000354931F8100000B2A080042020740AE052
:101370002A480088C82806DB2F48B0F88E0100B242
:10138000A0800520207447E024480088401C2349A1
:101390000880207838B927480068401C2549086033
:1013A00006E012E037E023480068401E214908604B
:1013B0001A490988A068884206D81F48B0F88E01EB
:1013C00000B2A0800420207426E014480088401C4D
:1013D00012490880207828B916480068401C154931
:1013E000086004E013480068401E12490860B4F920
:1013F00002000A49098888420ADDB4F90200074957
:101400000988401A0C4931F8100000B2A08001E0B0
:101410000220207400E000BF00BF70BD4C0000201F
:101420003C00002018010020911E0008511F0008F8
:1014300005200008400000204C0400202DE9F04168
:1014400005460C462846FFF7F1F81749086024B90D
:1014500010211648FFF7A3FD05E0012C03D1102150
:101460001248FFF79AFD10480068FFF70EF986B2A0
:1014700031460F4800F011FE4FF080410A480068E5
:10148000FEF70EFF0746FFF700F986B2314608481F
:1014900000F005FE07490648FFF7C4FC0121044897
:1014A00000F07AFCBDE8F08144000020001001400B
:1014B00000040040E51D00082DE9F04105460C46FA
:1014C0002846FFF7B3F81749086024B920211648C9
:1014D000FFF765FD05E0012C03D120211248FFF73D
:1014E0005CFD10480068FFF7D0F886B231460F481F
:1014F00000F0D3FD4FF080410A480068FEF7D0FEAF
:101500000746FFF7C2F886B23146084800F0C9FD29
:1015100007490648FFF786FC0121044800F03CFC1F
:10152000BDE8F08148000020000C014000080040A8
:10153000911E000808B508208DF8000001208DF8E4
:1015400001008DF802008DF80300684600F034F8C1
:1015500008BD08B509208DF8000001208DF80100B4
:101560008DF802008DF80300684600F025F808BDEC
:1015700008B50A208DF8000001208DF801008DF8D3
:1015800002008DF80300684600F016F808BD08B5A3
:1015900017208DF8000001208DF801008DF8020061
:1015A0008DF80300684600F007F808BD10B54FF449
:1015B000A06000F039F810BD70B5002100230F22A3
:1015C000C47804B3154C246804F4E064C4F5E06402
:1015D000210AC1F10403CA40447804FA03F1847873
:1015E0001440214309010E4C0678A155047804F0FB
:1015F0001F050124AC4005786D11AD0005F1E02513
:10160000C5F8004109E0047804F01F050124AC404E
:10161000044D0678761145F8264070BD0CED00E0CB
:1016200000E400E080E100E002490143024A116069
:10163000704700000000FA050CED00E010B5012134
:1016400042F20F70FFF7FAFE012141F28730FFF7F7
:1016500033FF07E005480078062803D1002003493E
:10166000087000E0F6E700BF10BD00003800002061
:1016700010B5002007490870012141F28730FFF7BB
:101680001BFF082000F0CEFE03490448FFF74CFA88
:1016900010BD000038000020911E00080008004026
:1016A00029B1064AD2690243044BDA6104E0034AD5
:1016B000D2698243014BDA6170470000001002409A
:1016C00029B1064A92690243044B9A6104E0034A35
:1016D00092698243014B9A617047000000100240FA
:1016E00030B500210022002400232D4D6D6805F047
:1016F0000C0121B1042905D0082923D105E0294D89
:10170000056022E0274D05601FE0254D6D6805F45A
:101710007012234D6D6805F48034022505EB92426A
:101720001CB9214D554305600BE01D4D6D6805F456
:1017300000351DB11C4D5543056002E0194D554360
:10174000056002E0174D056000BF00BF144D6D68D5
:1017500005F0F0010909154D6B5C0568DD40456039
:101760000F4D6D6805F4E061090A104D6B5C45682A
:10177000DD4085600A4D6D6805F46051C90A0B4D66
:101780006B5C4568DD40C560054D6D6805F4404102
:10179000890B074D6B5CC568B5FBF3F5056130BD82
:1017A0000010024000127A0000093D0014000020E1
:1017B0002400002010B500F001F810BD0CB5002089
:1017C000019000903348006840F48030314908604F
:1017D00000BF3048006800F4003000900198401CC1
:1017E0000190009818B90198B0F5A06FF1D129487F
:1017F000006800F4003010B10120009001E00020EA
:1018000000900098012843D12348006840F0100060
:10181000214908600846006820F003000860084677
:10182000006840F0020008601A48406819494860A2
:101830000846406848600846406840F48060486058
:101840000846406820F47C1048600846406840F430
:10185000E81048600846006840F08070086000BFEB
:101860000C48006800F000700028F9D00948406872
:1018700020F00300074948600846406840F0020035
:10188000486000BF0348406800F00C000828F9D108
:101890000CBD0000001002400020024010B548F6C8
:1018A000A0444FF47A7000F097FD0623194A1A49B4
:1018B0002046FFF727FC00BF184800780028FBD11E
:1018C0004FF4FA6000F088FD0723124A14491548C6
:1018D000FFF718FC00BF114800780028FBD1032057
:1018E00000F0A0FD07230B4A0D494FF49650FFF777
:1018F00009FC00BF094800780028FBD10623054AEF
:1019000005496042FFF7FEFB00BF0448007800284D
:10191000FBD110BD0000484400C0C1453C00002080
:101920000000484540EDFFFF10E00948007801281D
:101930000CD1002006490870FFF77EFCFFF77EFE01
:10194000FFF7ACFFFFF794FEFFF776FCEDE7000032
:101950003800002010B500F01DFDFFF727FE4FF402
:10196000165000F09BFDFFF733FBFFF7B7F9FFF7C9
:101970001BF8082142F20F7000F09AF8082142F299
:101980000F7000F027F9082142F20F7000F0A8F95B
:1019900010BD042808D14FF0E021096941F004018D
:1019A0004FF0E022116107E04FF0E021096921F0DA
:1019B00004014FF0E02211617047000010B5134898
:1019C000006840F00100114908600846406810496D
:1019D00008400E494860084600680E4908400B4917
:1019E00008600846006820F48020086008464068C7
:1019F00020F4FE0048604FF41F008860FFF7DAFE15
:101A00004FF000600449086010BD00000010024063
:101A10000000FFF8FFFFF6FE08ED00E010B5012121
:101A2000880700F0C5F900283ED00121880700F0A2
:101A3000B0F91E494FF08040FFF738FC1B48808802
:101A400081B24FF0804000F028FB1848407C062807
:101A50000BD11648B0F9044004EBD470C0F34F0129
:101A60004FF0804000F01DFB1EE01048407C07282E
:101A70000BD10E48B0F9044004EBD470C0F34F0111
:101A80004FF0804000F00FFB0EE00848407C082833
:101A90000AD10648B0F9044004EBD470C0F34F01FA
:101AA0004FF0804000F001FB10BD00001801002045
:101AB00030B585B005460C4601210520FFF700FE34
:101AC00001210846FFF7ECFD0E20ADF810001820AC
:101AD0008DF8130003208DF8120004A92648FFF7A3
:101AE000D1F926494FF08040FFF71EF824494FF006
:101AF0008040FFF719F823494FF08040FFF714F8B2
:101B00000821C80600F016FA0821C80600F070FA8D
:101B10000821C80600F0B4FA0121880700F036F960
:101B200001221146900700F054F94FF4A060FFF72E
:101B30007BFD1C208DF80C0002208DF80D008DF827
:101B40000E0001208DF80F0003A8FFF735FDADF85A
:101B50000450ADF800400020ADF80600ADF80200DA
:101B600069464FF0804000F0A3FA00214FF080401A
:101B700000F012F905B030BD00080140911E0008C8
:101B8000511F00080520000870B501210F4800F022
:101B90000FF9D0B101210D4800F0FBF80C480068A6
:101BA000FEF773FD84B22146084800F076FA4FF044
:101BB000804107480068FEF773FB0546FEF765FDA8
:101BC00084B22146014800F06AFA70BD000400406A
:101BD0004400002030B585B005460C4601210520A3
:101BE000FFF76EFD01210220FFF75AFDC020ADF87E
:101BF000100018208DF8130003208DF8120004A99E
:101C00002048FFF73FF920492048FEF78DFF204983
:101C10001E48FEF789FF08211C4800F02FF9082113
:101C20001A4800F087F90121184800F0AFF80122A6
:101C30001146164800F0CDF84FF4A060FFF7F4FC11
:101C40001D208DF80C0002208DF80D008DF80E007F
:101C500001208DF80F0003A8FFF7AEFCADF804508B
:101C6000ADF800400020ADF80600ADF8020069466E
:101C7000064800F01DFA0021044800F08DF805B078
:101C800030BD000000080140E51D000800040040D0
:101C9000911E000870B501210F4800F089F8D0B1FD
:101CA00001210D4800F075F80C480068FEF7EDFCC6
:101CB00084B22146084800F0F0F94FF0804107480F
:101CC0000068FEF7EDFA0546FEF7DFFC84B2214618
:101CD000014800F0E6F970BD00080040480000200F
:101CE00030B585B005460C4601210920FFF7E8FC18
:101CF00001210420FFF7D4FC8020ADF8100018204B
:101D00008DF8130003208DF8120004A91C48FFF77A
:101D1000B9F81C491C48FEF707FF08211A4800F0D3
:101D200009F90121184800F031F80122114616483E
:101D300000F04FF84FF4A060FFF776FC1D208DF8FF
:101D40000C0002208DF80D008DF80E0001208DF89A
:101D50000F0003A8FFF730FCADF80450ADF80040C9
:101D60000020ADF80600ADF802006946064800F014
:101D70009FF90021044800F00FF805B030BD0000C5
:101D8000000C0140911E000800080040CA43028276
:101D90007047CA430282704721B1028842F00102B3
:101DA000028004E002884FF6FE731A4002807047FA
:101DB00030B50246002000230024158A05EA0103FD
:101DC000958905EA010413B10CB1012000E000205F
:101DD00030BD1AB183890B43838102E083898B4331
:101DE0008381704770B5002400220023058C4FF6D4
:101DF000FE7635400584028C8388048B4FF68F7500
:101E00002C40B51E2C400D882C43751E2A400D8990
:101E10002A434D882A43144DA8420BD0134DA842A3
:101E200008D0134DA84205D0124DA84202D0124D41
:101E3000A84213D14FF6F7752A404D892A434FF631
:101E4000FB752A408D882A434FF6FF652B404FF6DD
:101E5000FF552B408D892B43CD892B4383800483F1
:101E6000CD888586028470BD002C0140003401407D
:101E70000040014000440140004801400A46002162
:101E8000018B4FF6F773194011430183704700002F
:101E900070B5002400220023058C4FF6EF76354004
:101EA0000584028C8388048B48F6FF752C404FF61E
:101EB000FF452C400D884FF6FF7606EA05252C439A
:101EC0004FF6DF752A400D8906EA05152A434D882D
:101ED00006EA05152A43154DA84202D0144DA84222
:101EE0001DD14FF67F752A404D894FF6FF7606EAE1
:101EF00005152A434FF6BF752A408D8806EA051559
:101F00002A434FF6FF352B404FF2FF752B408D894A
:101F100006EA85052B43CD8906EA85052B43838098
:101F20000483CD880587028470BD0000002C014029
:101F3000003401400A460021018B4FF2FF73194023
:101F40004FF6FF7303EA0223194301837047000031
:101F500070B5002400220023058C4FF6FF66354043
:101F60000584028C8388848B4FF68F752C404FF646
:101F7000FC752C400D882C434FF6FF552A400D89E7
:101F80004FF6FF7606EA05252A434D8806EA052521
:101F90002A43154DA84202D0144DA8421DD14FF23C
:101FA000FF752A404D894FF6FF7606EA05252A433C
:101FB0004FF6FF352A408D8806EA05252A434EF65E
:101FC000FF752B404DF6FF752B408D8906EA0515F0
:101FD0002B43CD8906EA05152B4383808483CD8866
:101FE0008587028470BD0000002C01400034014050
:101FF0000A460021818B4FF6F77319401143818304
:102000007047000070B5002200230024058C4EF6B6
:10201000FF7635400584038C8488828B48F6FF75F3
:102020002A404FF6FF452A400D884FF6FF7606EA14
:1020300005252A434DF6FF752B400D8906EA053527
:102040002B434D8806EA05352B430B4DA84202D0A1
:102050000A4DA84208D14BF6FF752C408D894FF6EA
:10206000FF7606EA85152C4384808283CD88A0F80C
:102070004050038470BD0000002C0140003401403A
:102080000A460021818B4FF2FF7319404FF6FF7310
:1020900003EA022319438183704781857047818653
:1020A00070470187704781877047A0F840107047DC
:1020B000002202881D4B98420ED01D4B98420BD037
:1020C000B0F1804F08D01B4B984205D01A4B984274
:1020D00002D01A4B984204D14FF68F731A404B88A6
:1020E0001A43174B984207D0164B984204D04FF62C
:1020F000FF431A40CB881A4302808B8883850B8864
:1021000003850A4B98420BD0094B984208D00E4BDE
:10211000984205D00D4B984202D00D4B984201D108
:102120000B7A03860123838270470000002C014054
:10213000003401400004004000080040000C004052
:1021400000100040001400400040014000440140E5
:102150000048014010B5002440F225511C4800F011
:1021600049F810B31A4800F001F9C4B219480088C0
:1021700000F40040C8B91748008800F4804060B1FE
:102180000A2C03D000201349088020E01148008861
:1021900040F400400F49088019E00D2C06D10D488D
:1021A000008840F480400B49088010E0094800880E
:1021B000C0F30D0008490C5406480088401C05492E
:1021C000088008460088C72801DD0020088010BD6F
:1021D00000380140300000205000002021B18289E9
:1021E00042F40052828104E082894DF6FF731A4066
:1021F0008281704770B5024600240023002500202C
:1022000040F66A16B14200D100BFC1F3421501F099
:102210001F03012606FA03F3012D02D196893340EC
:1022200006E0022D02D1168A334001E0968A33403F
:102230000C12012606FA04F41688344013B10CB1CE
:10224000012000E0002070BDF0B503460024002608
:102250000025002040F66A17B94200D100BF184699
:10226000C1F3421401F01F06012707FA06F5012CFD
:1022700001D10C3004E0022C01D1103000E0143008
:102280001AB107682F43076002E00768AF43076091
:10229000F0BD00002DE9F04786B005460E4600244B
:1022A000A24600BFA1460027B08900B100BF2F465B
:1022B0002C8A4CF6FF700440F08804432C82AC89D1
:1022C0004EF6F3100440B088318908437189084301
:1022D0000443AC81AC8A4FF6FF400440B08904430C
:1022E000AC8201A8FFF7FCF91F48874202D1DDF854
:1022F00010A001E0DDF80CA0A88900F4004040B176
:102300000AEBCA0000EB0A1031684900B0FBF1F893
:1023100007E00AEBCA0000EB0A1031688900B0FB45
:10232000F1F86420B8FBF0F004012009642101FBFE
:102330001089A88900F4004040B1322000EBC900A8
:10234000B0FBF1F000F00700044308E0322000EB9E
:1023500009106421B0FBF1F000F00F0004432C8160
:1023600006B0BDE8F08700000038014001468888CB
:10237000C0F30800704702E008C8121F08C1002A15
:10238000FAD170477047002001E001C1121F002AF6
:10239000FBD1704710B56FF00400FFF7FAFA0A4856
:1023A00000680A49B0FBF1F0094908700846007856
:1023B00000EB4001C1EBC0104FF6FF7101EAC00015
:1023C0000449088010BD00000000002000127A00BF
:1023D000280000202A0000200146114A12884A43A2
:1023E0004FF0E0235A6100229A611A46126942F0C6
:1023F00001021A6100BF4FF0E022106900F00102F3
:102400001AB100F48032002AF5D04FF0E0221269B0
:1024100022F001024FF0E0231A6100229A61704716
:102420002A00002010B5044605E04FF47A70FFF74B
:10243000D3FF601E84B2002CF7DC10BD2DE9F04103
:1024400004460D46002600220E4B20462946FEF784
:102450007EF8074600220C4BFDF760FF04460D4650
:1024600009E022462B4620462946FDF7FEFF04469A
:102470000D46701C86B2082EF3DB20462946BDE8C7
:10248000F0810000000070400000F03F10B5FFF741
:1024900061FAFFF749FA002010BD000010B586B0C0
:1024A0000446012144F20400FFF70AF94FF40070DA
:1024B000ADF8140003208DF8160018208DF81700D1
:1024C00005A91C48FEF7DEFC4FF48060ADF814004F
:1024D00004208DF8170005A91648FEF7D3FC252027
:1024E0008DF8000003208DF801008DF80200012016
:1024F0008DF803006846FFF75FF801940020ADF8FF
:102500000800ADF80A00ADF80C00ADF810000C2082
:10251000ADF80E0001A90848FFF7BCFE012240F209
:1025200025510548FFF790FE01210348FFF756FEAD
:1025300006B010BD00080140003801405C250008CD
:10254000000000205000000076230008AC250008A1
:1025500050000020900900008623000800A24A04D1
:102560000000000000000000010203040607080943
:102570000000000001020304010203040607080929
:102580000204060800000000000000000000000037
:10259000000000000000000000000000000000003B
:0C25A0000000000000000000000000002F
:0400000508000131BD
:00000001FF
