:020000040800F2
:10000000D80E0020450100084D0100084F010008EE
:1000100051010008530100085501000800000000CC
:100020000000000000000000000000005701000870
:1000300059010008000000005B0100085D01000894
:100040005F0100085F0100085F0100085F01000810
:100050005F0100085F0100085F0100085F01000800
:100060007D0D0008C10D0008FD0D00085F010008AE
:100070005F0100085F0100085F0100085F010008E0
:100080005F0100085F0100085F0100085F010008D0
:100090005F0100085F0100085F0100083D0E0008D5
:1000A0005F0100085F0100085F0100085F010008B0
:1000B000D521000841230008812400085F010008C1
:1000C0005F0100085F0100085F0100085F01000890
:1000D0005F010008452900085F0100085F01000872
:1000E0005F0100085F0100085F0100085F01000870
:1000F0005F0100085F0100085F0100085F01000860
:100100005F0100085F0100085F0100085F0100084F
:100110005F0100085F0100085F0100085F0100083F
:100120005F0100085F0100085F0100085F0100082F
:10013000DFF80CD000F0C0FB00480047112E00088B
:10014000D80E00200648804706480047FEE7FEE735
:10015000FEE7FEE7FEE7FEE7FEE7FEE7FEE7FEE777
:10016000752100083101000840EA01039B0703D014
:1001700009E008C9121F08C0042AFAD203E011F8E6
:10018000013B00F8013B521EF9D27047F0B480EAFF
:100190000102D40F4200B2EB410F02D202460846E0
:1001A00011464A0042D0C30DDDB2C1F3C752AD1AA9
:1001B000202D35DAC1F3160141F4000204B1524298
:1001C000C5F1200602FA06F12A411044B3EBD05FD4
:1001D00023D0C4B1012DA0EBC35009DCF0BC4FF01B
:1001E000004202EAC352DBB200F5000000F0D9BAC7
:1001F000400000F1807000EBC350A0F1807040EA35
:10020000D170490009E0490841EAC071A0EBC35030
:1002100000F50000400800EBC350F0BC00F0B8BA95
:100220006142012202EB4101001BF6E7F0BC70477E
:1002300081F00041AAE780F00040A7E780EA0102D0
:1002400010B502F00043400022D04A001FD0010E3A
:1002500001EB1261C0F35600C2F3560240F40000F5
:1002600042F40002A0FB022000047F39140400D0F5
:10027000401C50EA124001D44000491EC2B20C0694
:1002800004EBD010401C4008802A02D003E000207C
:1002900010BD20F00100002900DA0020184310BD35
:1002A00030B480EA010202F0004530F0004221F053
:1002B000004013D090B1C30DD40DC2F31601C0F3AA
:1002C0001600E41A41F4000140F400027D3491422A
:1002D00001D3641C00E04900002C02DA30BC00208D
:1002E00070474FF400000023914201D3891A034361
:1002F00040084FEA4101F7D151B1914202D14FF08C
:10030000004105E002D24FF0010101E06FF0010170
:1003100003EBC450284430BC00F03ABA2DE9FE4F3C
:10032000804681EA0300C00F0C46009021F0004196
:1003300023F00045B8EB0200A94105D24046214612
:1003400090461C460B46024623F00040104347D01F
:10035000270DC7F30A00C3F30A510290401A019017
:1003600040286BDAC3F3130040F4801B00989246D8
:1003700020B10023D2EB030A63EB0B0B0198594623
:10038000C0F14002504600F0E2F906460D465046E4
:100390005946019A00F0EAF910EB08006141002487
:1003A00087EA115284EAE7731A4340D0009A62B395
:1003B000019A012A4FEA075215DC001B61EB02018A
:1003C0004FF0004202EA0752CDE90042001C41F51D
:1003D000801132462B4600F021FA03B0BDE8F08FC1
:1003E00040462146F9E7001B61EB0201001C41F584
:1003F000801300185B412018A2F5001747EB03019A
:1004000040EAD570B6196D4111E06D084FEA360625
:1004100045EAC0754FEA0752001B61EB0201001C60
:1004200041F5801149084FEA300000195141324628
:100430002B4603B0BDE8F04F00F0E1B9009801226F
:1004400040000023D0EB020263EBE07300982146EA
:100450004FEAE074B8EB000061EB0401E9E783F0D8
:1004600000435BE781F0004158E72DE9FE4F81EA48
:10047000030404F0004421F0004100944FF0000B0D
:1004800023F0004350EA01045ED052EA03045BD03B
:10049000C3F30A54C1F30A552C44A4F2F334019473
:1004A000A0FB0254C1F3130141F48011C3F3130301
:1004B00043F4801301FB024400FB034E840A970AB5
:1004C00044EA815447EA8357A4FB076802958D0AE2
:1004D00005FB07854FEA932C04FB0C542705029D6E
:1004E0004FEA065847EA1637B5EB08056EEB070CDE
:1004F000870E920E47EA811742EA8312A7FB020198
:10050000B6EB0B0164EB00042B0D43EA0C335E18D1
:1005100044EB1C50DA465146E7FB0201C5F31304D5
:100520004FEA0B3343EA14534FEA0432019C43EA87
:100530000603A4F10C040294009CCDE900B400F081
:100540006DF903B0BDE8F08F00200146F9E72DE911
:10055000F04D81EA030404F0004B21F000451446FD
:100560004FF0000A23F0004150EA050220D054EA7F
:1005700001021DD0C5F30A570246C5F31303C1F3A8
:100580001300C1F30A5640F4801543F48013A7EB1F
:100590000608101BD64608F2FD3873EB050002D39F
:1005A00008F1010801E092185B41B8F1000F03DA8D
:1005B00000200146BDE8F08D00204FF48011064672
:1005C00084460EE0171B73EB050705D3121B63EB84
:1005D000050306434CEA010C49084FEA3000921823
:1005E0005B4150EA0107EDD152EA030012D082EAE2
:1005F000040083EA0501084305D0101BAB4106D275
:100600000122002306E000224FF0004302E06FF0D9
:10061000010253101AEB06004CEB085110EB0A00D4
:1006200041EB0B01BDE8F04D00F0E9B8C10F80EAE5
:10063000E0700844CA079623002100F0B2B8962360
:100640000022114600F0ADB80EB5C10F80EAE0708F
:100650000844CA07002140F233438DE80E000A46E1
:100660000B4600F0DBF803B000BD00F0004220F0C4
:100670000040C10DC0F3160040F400007F2901DAEC
:1006800000207047962903DCC1F19601C84001E0C3
:1006900096398840002AF4D04042704720F000404C
:1006A000C10DC0F3160040F400007F2901DA0020DC
:1006B0007047962903DCC1F19601C840704796390E
:1006C0008840704700F0004230F000400AD0C10D71
:1006D00001F56071C0F3160042EA0151C2084007FB
:1006E0001143704700200146704701F0004330B4C9
:1006F00021F0004150EA010206D00A0DA2F5607215
:10070000C1F31301002A02DC30BC00207047440F03
:1007100044EAC104C100E01830BC00EBC25000F054
:1007200037B830B50B46014600202022012409E0ED
:1007300021FA02F59D4205D303FA02F5491B04FA9A
:1007400002F52844151EA2F10102F1DC30BD202A79
:1007500004DB203A00FA02F1002070479140C2F118
:10076000200320FA03F3194390407047202A06DB48
:10077000CB17203A41FA02F043EAE07306E041FA6F
:1007800002F3D040C2F1200291400843194670475D
:100790000029A8BF7047401C490008BF20F0010095
:1007A000704710B4B0FA80FC00FA0CF050EA010473
:1007B00004BF10BC704749B1CCF1200421FA04F405
:1007C00011FA0CF118BF012121430843A3EB0C01DE
:1007D000CB1D4FEA00614FEA102042BF002010BC41
:1007E000704700EBC35010440029A4BF10BC7047F1
:1007F000401C490008BF20F0010010BC704710B534
:10080000141E73F1000408DA401C41F10001921833
:100810005B411A4301D120F0010010BD2DE9F04DDC
:1008200092469B4611B1B1FA81F202E0B0FA80F231
:1008300020329046FFF78BFF04460F4640EA0A003D
:1008400041EA0B0153465A46084313D0114653EA76
:10085000010019D0C8F14002504600F03FF80546AB
:100860000E46504659464246FFF771FF084305D0F1
:10087000012004E020463946BDE8F08D0020054304
:1008800046EAE0762C4337430A986305E40AA0EB76
:1008900008000022FD0A44EA47540A3002D500202D
:1008A0000146E9E7010510196941DDE9084500192C
:1008B0006941BDE8F04DA2E7064C074D06E0E0684F
:1008C00040F0010394E8070098471034AC42F6D397
:1008D000FFF732FCC02E0008E02E0008202A04DBBF
:1008E000203A21FA02F00021704721FA02F3D040A9
:1008F000C2F1200291400843194670472DE9F34F99
:1009000085B04FF0000A002004900390DDE9050156
:10091000FFF78EFC029052E0AAF1C800FFF794FEA8
:1009200080460022294BFFF7A0FD06460022284BF7
:10093000FFF70DFE0446FFF7D8FE0490049880F000
:10094000004B5846FFF7BEFECDE9000102F02AFA3F
:10095000064600221F4BFFF7E1FC044622460B46E9
:1009600000201C49FFF7F3FD8046FFF7BEFE039011
:10097000DDE90201FFF762FC04460699FFF706FC79
:10098000154941F82A00154800680921B0FBF1F724
:100990003846FFF754FE06460F4850F82A103046F6
:1009A000FFF77EFC05464FF07E51FFF741FC044601
:1009B000FFF774FE0A4921F81A000AF1010ABAF594
:1009C000C87FA9DB07B0BDE8F08F0000000014402D
:1009D000000069400000F03F74010020000000208A
:1009E000B40700202DE9FC5F04460D46C82004FB37
:1009F00000F605FB00F74FF4FA584FF448794FF42E
:100A0000486A4FF4487B4FF47A7002F099F94846EF
:100A1000FFF70CFE01904046FFF708FE062300900A
:100A200001467042019A00F03BFD00BF2248007869
:100A30000028FBD14FF4FA6002F082F95846FFF724
:100A4000F5FD01905046FFF7F1FD072300900146A8
:100A50007842019A00F024FD00BF17480078002872
:100A6000FBD1022002F092F95846FFF7DFFD01901A
:100A70005046FFF7DBFD0723009001463846019AF8
:100A800000F00EFD00BF0C4800780028FBD148465E
:100A9000FFF7CCFD01904046FFF7C8FD062300900C
:100AA00001463046019A00F0FBFC00BF0248007886
:100AB0000028FBD1BDE8FC9F6C00002008B5012197
:100AC000102001F0A1F80121102001F09DF8012172
:100AD000042001F099F80121102001F095F802207E
:100AE000ADF8000010208DF8030003208DF80200FF
:100AF00069464F4800F084FB0820ADF80000102044
:100B00008DF8030003208DF802006946484800F084
:100B100077FB0120ADF8000010208DF803000320C2
:100B20008DF802006946434800F06AFB0420ADF8E6
:100B3000000010208DF8030003208DF802006946A4
:100B40003B4800F05DFB1020ADF800008DF803007D
:100B500003208DF802006946364800F051FB202042
:100B6000ADF8000010208DF8030003208DF802007E
:100B70006946304800F044FB1020ADF800008DF8C5
:100B8000030003208DF802006946294800F038FB75
:100B90000120ADF8000010208DF8030003208DF82F
:100BA00002006946244800F02BFB2020ADF800002D
:100BB00010208DF8030003208DF8020069461E48BE
:100BC00000F01EFB4020ADF8000010208DF803005F
:100BD00003208DF802006946174800F011FB02213E
:100BE000134800F09AFB0821114800F094FB012102
:100BF000104800F092FB04210D4800F08CFB1021FE
:100C00000C4800F08AFB20210A4800F084FB1021E8
:100C1000074800F082FB0121074800F07CFB2021FF
:100C2000054800F07AFB4021034800F074FB08BD42
:100C30000010014000080140000C014010B535488B
:100C4000008800F40040002861D032480088C0F3DA
:100C50000D000A2802D04FF0FF3010BD2E4800785A
:100C60003038642148432C494978303901EB8101FF
:100C700000EB410128488078303808442749086053
:100C80002548C078303864214843234909793039F0
:100C900001EB810100EB41011F48407930380844E5
:100CA0001E4948601C4880793038642148431A49FD
:100CB000C979303901EB810100EB41011648007A16
:100CC00030380844154988601348407A30388881A4
:100CD0000846016812A001F047FF1048416813A0C0
:100CE00001F042FF0D48816813A001F03DFF0B4861
:100CF000B0F90C1013A001F037FF06480088C0F3CC
:100D00000D0113A001F030FF0020024908800020EF
:100D1000A3E7000060000020980000208800002069
:100D2000585F6D6D3A25640D0A000000595F315F10
:100D30006D6D3A25640D0A00595F325F6D6D3A257D
:100D4000640D0A005A5F6D6D3A25640D0A000000BB
:100D500075736172743A25640D0A00007FB505460B
:100D60000C467020ADF800000020ADF80200022013
:100D7000ADF8080069462846A0477FBD10B504209D
:100D800000F04EF988B1042000F044F90A2001F087
:100D9000D7FF0648006840B90220054908740820BA
:100DA0000449087004A001F0DFFE10BD08012342D1
:100DB00060010020680000205A5F55500D0A0000B5
:100DC00010B5082000F02CF978B1082000F022F9C5
:100DD0000A2001F0B5FF0548006830B90A2004492F
:100DE000087004490448FFF7B9FF10BD0C01234205
:100DF00068000020CD2500080004004010B5102038
:100E000000F00EF988B1102000F004F90A2001F07A
:100E100097FF0648006840B905480068C043054987
:100E2000C1F8940101200449087010BD100123424B
:100E300094812142008021426800002010B50A20E0
:100E400001F07EFF202000F0EBF8402000F0E8F8F1
:100E500078B1402000F0DEF82848006848B9062044
:100E60002749087027492848FFF778FF27A001F095
:100E70007BFE802000F0D4F878B1802000F0CAF822
:100E80001E48001D006840B902202349087407204D
:100E90001B49087021A001F067FE4FF4807000F03C
:100EA000BFF880B14FF4807000F0B4F813480830F8
:100EB000006840B90220184908740B2010490870D6
:100EC00018A001F051FE4FF4007000F0A9F8A0B195
:100ED0004FF4007000F09EF808480C30006860B9CC
:100EE0004FF4007000F096F805200549087010A036
:100EF00001F03AFE172000F04DF810BD1801234212
:100F00006800002079260008000800404558544930
:100F10005F59320D0A000000600100204C580D0A94
:100F20000000000054505F4C696D69740D0A0000A8
:100F30004B310D0A0000000010B500F0F1F9092155
:100F4000042000F03DF90821042000F039F90721C0
:100F5000042000F035F90621042000F031F90521C4
:100F6000042000F02DF90421084600F029F903219E
:100F7000042000F025F90221042000F021F900F0FE
:100F80002BFD00F038FD00F045FD00F052FD00F0B3
:100F900022F810BD38B50446E0B28DF800000120FB
:100FA0008DF801008DF8020000208DF803006846DE
:100FB00000F054FD38BD38B50446E0B28DF80000AD
:100FC00001208DF801008DF802008DF803006846BD
:100FD00000F044FD38BD1CB54FF46F700090002048
:100FE0008DF804000C208DF8050001208DF8060016
:100FF000684600F029F84020009000208DF8040099
:1010000010208DF8050001208DF80600684600F0DC
:101010001BF81CBD01490860704700001404014022
:10102000014600200022074B1B6803EA0102054B22
:1010300014331B680B4013B10AB1012000E00020FB
:101040007047000000040140002123498279002AF2
:101050003AD00A46126803689A430B461A600A1D82
:10106000126803689A430B1D1A60027911440A68DA
:1010700003681A430A60184A0832126803689A43E0
:10108000154B08331A601A1D126803689A43124BF5
:101090000C331A604279102A0ED11A1F12680368A5
:1010A0001A430D4B08331A601A1D126803681A435D
:1010B000094B0C331A600DE00749427911440A6864
:1010C00003681A430A6005E0027911440A6803685C
:1010D0009A430A6070470000000401407FB505464E
:1010E0000C467020ADF800000120ADF8020002208F
:1010F000ADF8080069462846A0477FBD2DE9F84FA6
:1011000004460D46C82004FB00F607014FF448785A
:101110004FF448694FF4487A5046FFF787FA834600
:101120004846FFF783FA08235A46014600902846AE
:1011300000F0B6F900BF1B4800780028FBD100F092
:10114000B1FE19A001F010FD4046FFF76FFA83468B
:101150003846FFF76BFA07235A4601460090704263
:1011600000F09EF900BF0F4800780028FBD100F086
:1011700015FE10A001F0F8FC4046FFF757FA834631
:101180003846FFF753FA07235A4601460090304687
:1011900000F086F900BF034800780028FBD1BDE8C5
:1011A000F88F00006C000020CFF2CFC2D4CBB6AFD6
:1011B0000D0A0000CFF2C9CFD4CBB6AF0D0A0000A4
:1011C00030B500228B071C0F0F2303FA04F20B4BE0
:1011D0008C1053F824309343084C8D1044F825307C
:1011E00023468C1053F824308C07240F00FA04F4A3
:1011F0002343024C8D1044F8253030BD08000140D7
:101200002DE9F0410246002500260020002300249D
:10121000002791F803C00CF00F0591F803C00CF003
:10122000100CBCF1000F03D091F802C04CEA050588
:1012300091F800C0BCF1000F31D0146800202BE001
:101240004FF0010C0CFA00F3B1F800C00CEA0306F1
:101250009E4220D183004FF00F0C0CFA03F7BC43E1
:1012600005FA03FC4CEA040491F803C0BCF1280F12
:1012700006D14FF0010C0CFA00FCC2F814C00AE0D1
:1012800091F803C0BCF1480F05D14FF0010C0CFAE6
:1012900000FCC2F810C0401C0828D1D31460B1F87B
:1012A00000C0BCF1FF0F34DD546800202EE000F1D7
:1012B000080C4FF0010808FA0CF3B1F800C00CEA72
:1012C00003069E4221D183004FF00F0C0CFA03F766
:1012D000BC4305FA03FC4CEA040491F803C0BCF1DA
:1012E000280F05D100F1080C08FA0CF8C2F8148098
:1012F00091F803C0BCF1480F07D100F1080C4FF082
:10130000010808FA0CF8C2F81080401C0828CED357
:101310005460BDE8F0814161704701617047000091
:1013200008B50121412000F06FFC4FF47F70ADF84B
:10133000000048208DF8030003208DF80200694664
:101340000148FFF75DFF08BD0018014008B5012105
:10135000082000F059FC2020ADF8000010208DF886
:10136000030003208DF8020069460248FFF748FF9A
:1013700008BD0000000C01400FB410B5142202A9F2
:101380004448FEF7F1FE4348407C062827D14148F7
:10139000007820B902214048FFF7BFFF07E03D4831
:1013A0000078012803D102213B48FFF7B4FF012256
:1013B0000821C80601F065FA3648808881B24FF0EE
:1013C000804001F061FA3348B0F9044004EBD47076
:1013D000C0F34F014FF0804001F05AFA56E02D481B
:1013E000407C072827D12B48007820B901212B48C1
:1013F000FFF793FF07E027480078012803D1012178
:101400002648FFF788FF01220821C80601F039FAB3
:101410002048808881B24FF0804001F035FA1D48A5
:10142000B0F9044004EBD470C0F34F014FF080409A
:1014300001F030FA2AE01748407C082826D11548E8
:10144000007820B910211548FFF767FF07E0114821
:101450000078012803D110211048FFF75CFF01221A
:101460000821C80601F00DFA0A48808881B24FF0C1
:10147000804001F009FA0748B0F9044004EBD47049
:10148000C0F34F014FF0804001F006FA10BC5DF848
:1014900014FB000060010020001001400008014022
:1014A0002DE9F04F87B004460D4616461F468DF8CD
:1014B000197031462846FFF721FA002C04DA012082
:1014C0008DF80800644202E000208DF8080020B288
:1014D000ADF80A00012C1FD10120059037480068A3
:1014E0000921B0FBF1FB5846FFF7A9F882463146C7
:1014F000FEF7D6FE81464FF07E51FEF799FE8046FC
:10150000FFF7B3F800B2ADF80C0004208DF8180016
:1015100001202B49087027E034B3B4F5487F12DC72
:101520002848008800B2ADF80C00204604EBD071CA
:10153000491005910598049003208DF818000120AA
:101540001F49087010E01F48008800B2ADF80C0079
:101550004FF4C8700590A4F5C870049003208DF86E
:1015600018000120164908700698009002A80FC8BC
:10157000FFF702FF1448407C062805D113494FF0BD
:101580008040FFF7ABFD11E00F48407C072805D1F4
:101590000F494FF08040FFF7A1FD07E00A48407C6B
:1015A000082803D10B49C006FFF798FD01218807E1
:1015B00000F0E6FF07B0BDE8F08F0000000000205B
:1015C0006C000020B407002060010020792600088C
:1015D00039270008ED2700082DE9FE4F4FF4C854C5
:1015E0004FF41665C8264FF47A674FF448784FF4E5
:1015F00048694FF4487A4FF4C86BE010029000201D
:10160000444908700298FFF711F801905846FFF717
:101610000DF80823009001463046019AFFF740FF7D
:1016200000BF3D4800780028FBD10298FEF7FEFF7E
:1016300001905846FEF7FAFF0090B0000823DDE95C
:101640000012FFF72DFF00BF334800780028FBD1C0
:101650001720FFF79FFC4046FEF7E8FF0190384651
:10166000FEF7E4FF0623009001466042019AFFF76F
:1016700017FF00BF284800780028FBD15046FEF72E
:10168000D5FF01904846FEF7D1FF072300900146A1
:101690006842019AFFF704FF00BF1F480078002846
:1016A000FBD15046FEF7C2FF01904846FEF7BEFF51
:1016B0000723009001462846019AFFF7F1FE00BF7C
:1016C000154800780028FBD11720FFF774FC40462E
:1016D000FEF7ACFF01903846FEF7A8FF0090E0004F
:1016E0000623DDE90012FFF7DBFE00BF0A480078A1
:1016F0000028FBD100F09AFB012001F047FB0021FC
:10170000064800F03DFF06490448FFF727FBBDE807
:10171000FE8F0000680000206C00002000040040E4
:101720007926000870B505460C46207C022806D0B4
:1017300003282AD0042873D0052872D163E0002042
:1017400056490880564908700021284600F018FFC5
:101750005448407C062805D153494FF08040FFF79C
:10176000FDFA11E04F48407C072805D14F494FF062
:101770008040FFF7F3FA07E04A48407C082803D18D
:101780004B49C006FFF7EAFA85E044480088401C50
:1017900042490880207828B946480068401C4549DD
:1017A000086004E043480068401E424908603B4925
:1017B0000988E068884209DD3F483849098830F8DF
:1017C000110000B2A080032020741BE03349098877
:1017D000A06888420AD831480088401E364931F84E
:1017E000100000B2A080042020740BE02B48008879
:1017F000B0F5C87F06DB3048B0F81E0300B2A08009
:101800000520207447E025480088401C23490880B3
:10181000207838B927480068401C2649086006E04F
:1018200012E037E023480068401E224908601B4947
:101830000988A068884206D81F48B0F81E0300B285
:10184000A0800420207426E014480088401C13491E
:101850000880207828B917480068401C154908609E
:1018600004E014480068401E12490860B4F9020000
:101870000A49098888420ADDB4F902000749098843
:10188000401A0D4931F8100000B2A08001E002209A
:10189000207400E000BF00BF70BD00008400002085
:1018A0006C0000206001002079260008392700081C
:1018B000ED27000870000020B40700202DE9F0415A
:1018C00006460D4614463046FEF7B9FE1B49086031
:1018D0002846FEF7B4FE1A490860092019494874E1
:1018E00001220821184800F0CCFF24B91021174824
:1018F000FFF713FD05E0012C03D110211348FFF77A
:101900000AFD0E480068FEF7C9FE87B239460E4848
:1019100000F0BAFF0A480068FEF7C0FE87B23946F9
:10192000094800F0B3FF0A490748FFF7D7FB012138
:10193000054800F025FEBDE8F0810000740000209D
:1019400078000020600100200004004000100140E9
:10195000CD2500082DE9F04106460D4614463046D7
:10196000FEF76DFE174908602846FEF768FE164927
:10197000086024B920211548FFF7CFFC05E0012CB1
:1019800003D120211148FFF7C6FC0E480068FEF77E
:1019900085FE87B239460E4800F076FF0A48006897
:1019A000FEF77CFE87B23946094800F071FF09490D
:1019B0000748FFF793FB0121054800F0E1FDBDE872
:1019C000F08100007C00002080000020000C01401D
:1019D000000800407926000808B508208DF80000AE
:1019E00001208DF801008DF802008DF80300684693
:1019F00000F034F808BD08B509208DF8000001207A
:101A00008DF801008DF802008DF80300684600F0A3
:101A100025F808BD08B50A208DF8000001208DF8D2
:101A200001008DF802008DF80300684600F016F8FA
:101A300008BD08B517208DF8000001208DF80100C1
:101A40008DF802008DF80300684600F007F808BD25
:101A500010B54FF4A06000F039F810BD70B500214A
:101A600000230F22C47804B3154C246804F4E06406
:101A7000C4F5E064210AC1F10403CA40447804FAC1
:101A800003F184781440214309010E4C0678A155D6
:101A9000047804F01F050124AC4005786D11AD00F9
:101AA00005F1E025C5F8004109E0047804F01F05C0
:101AB0000124AC40044D0678761145F8264070BDEF
:101AC0000CED00E000E400E080E100E002490143A9
:101AD000024A1160704700000000FA050CED00E0BA
:101AE00070B544F61F646510264604EBD6704110AD
:101AF00001222046FFF7E2FE2E4605EBD67041108C
:101B000001222846FFF726FF00BF18480068012879
:101B1000FBD01748017817A001F026F81448007888
:101B200005280FD1002012490870012001F02EF97C
:101B300014A001F019F816491648FFF70FF91720FD
:101B4000FFF739FA00BF09480C3800680128FAD0BD
:101B500006480C38006838B94FF4967001F0F0F878
:101B60000D490E48FFF7FAF870BD0000240123422A
:101B700068000020496E20464C41473A25640D0A12
:101B8000000000005931CDA3D6B90D0A00000000B5
:101B9000CD25000800040040792600080008004018
:101BA00070B541F2873400200B490870254604EBDC
:101BB000D570411001222046FFF7CCFE00BF074838
:101BC00000680028FBD0022001F0E0F80449054835
:101BD000FFF7C4F870BD0000680000201801234220
:101BE000792600080008004029B1064AD26902435C
:101BF000044BDA6104E0034AD2698243014BDA61A3
:101C0000704700000010024029B1064A9269024361
:101C1000044B9A6104E0034A92698243014B9A6142
:101C2000704700000010024030B50021002200245F
:101C300000232D4D6D6805F00C0121B1042905D05C
:101C4000082923D105E0294D056022E0274D0560D4
:101C50001FE0254D6D6805F47012234D6D6805F485
:101C60008034022505EB92421CB9214D5543056095
:101C70000BE01D4D6D6805F400351DB11C4D55433D
:101C8000056002E0194D5543056002E0174D0560FF
:101C900000BF00BF144D6D6805F0F0010909154D36
:101CA0006B5C0568DD4045600F4D6D6805F4E061D3
:101CB000090A104D6B5C4568DD4085600A4D6D6812
:101CC00005F46051C90A0B4D6B5C4568DD40C56089
:101CD000054D6D6805F44041890B074D6B5CC56887
:101CE000B5FBF3F5056130BD0010024000127A002B
:101CF00000093D0014000020240000202DE9F84FC9
:101D000004460D46C82004FB00F607014FF448784E
:101D10004FF448694FF4487A4046FEF787FC834603
:101D20003846FEF783FC07235A460146009070426E
:101D3000FFF7B6FB00BF184800780028FBD100F081
:101D4000B1F84046FEF772FC00903846FEF76EFC94
:101D50008346072359463046009AFFF7A1FB00BF90
:101D60000D4800780028FBD100F018F85046FEF727
:101D70005DFC83464846FEF759FC08235A46014657
:101D800000906842FFF78CFB00BF034800780028F2
:101D9000FBD1BDE8F88F00006C00002010B54FF4B7
:101DA000FA7000F0CDFF1A481A4908601A481B491A
:101DB00008600B201A49487401224721194800F095
:101DC00060FD14480068FEF769FC84B2214615489E
:101DD00000F05AFD11480068FEF760FC84B221460D
:101DE000104800F055FD10490E48FFF777F9012122
:101DF0000C4800F0C5FB4FF4FA7000F0A1FF002181
:101E0000084800F0BDFB08490648FEF7A7FF10BDD3
:101E1000003E9C4674000020002099447800002079
:101E200060010020000400407926000810B5FFF78B
:101E3000B5FF0B201649487401224721154800F0D0
:101E400020FD15480068FEF729FC84B221461148A0
:101E500000F01AFD11480068FEF720FC84B221460C
:101E60000C4800F015FD0E490A48FFF737F901212B
:101E7000084800F085FB4FF47A7000F061FF002104
:101E8000044800F07DFB06490248FEF767FF10BDDD
:101E90006001002000040040740000207800002051
:101EA0007926000810B54FF4FA7000F049FF1A487F
:101EB0001A4908601A481B4908600B201A494874DF
:101EC00001224721194800F0DCFC14480068FEF7A5
:101ED000E5FB84B22146154800F0D6FC11480068A5
:101EE000FEF7DCFB84B22146104800F0D1FC10491B
:101EF0000E48FFF7F3F801210C4800F041FB4FF4C6
:101F0000487000F01DFF0021084800F039FB084927
:101F10000648FEF723FF10BD003E9C4674000020DB
:101F20000000F5437800002060010020000400401C
:101F30007926000810B500F001F810BD0CB500209E
:101F4000019000903348006840F4803031490860C7
:101F500000BF3048006800F4003000900198401C39
:101F60000190009818B90198B0F5A06FF1D12948F7
:101F7000006800F4003010B10120009001E0002062
:101F800000900098012843D12348006840F01000D9
:101F9000214908600846006820F0030008600846F0
:101FA000006840F0020008601A484068194948601B
:101FB0000846406848600846406840F480604860D1
:101FC0000846406820F47C1048600846406840F4A9
:101FD000E81048600846006840F08070086000BF64
:101FE0000C48006800F000700028F9D009484068EB
:101FF00020F00300074948600846406840F00200AE
:10200000486000BF0348406800F00C000828F9D180
:102010000CBD0000001002400020024000241425E6
:1020200028262F4887685AE02E48008800F4004090
:1020300000282BD0FEF702FE0446601C30B30020BF
:102040002949087029A000F08FFDFFF749FD1720EE
:10205000FEF7A0FF2948B0F90C102846FFF74EF80C
:10206000264908683146FEF7BDFC2448B0F90C103B
:102070002846FFF743FE1720FEF79DFFFFF790FD70
:102080000020194908701EA000F06EFD1648007867
:1020900001281ED1002014490870FFF721FD1720E8
:1020A000FEF778FF39462846FFF728F83146BE206C
:1020B000FEF798FC39462846FFF720FE1720FEF76A
:1020C0007AFFFFF76DFD0020074908700CA000F0B3
:1020D0004BFD054800780A2801D1FFF77DFAA3E7F8
:1020E00028000020600000206800002075737261E5
:1020F000742073746172740D0A000000880000205F
:1021000066696E6973680D0A0000000010B500F082
:10211000F5FDFFF79DFC4FF4165000F081FEFFF730
:1021200015F9FEF709FFFEF7C9FC082142F20F700E
:1021300000F09AF8082142F20F7000F041F90821EE
:1021400042F20F7000F0C0F910BD042808D14FF022
:10215000E021096941F004014FF0E022116107E03C
:102160004FF0E021096921F004014FF0E0221161F4
:102170007047000010B51348006840F00100114995
:10218000086008464068104908400E494860084603
:1021900000680E4908400B4908600846006820F4B2
:1021A000802008600846406820F4FE0048604FF434
:1021B0001F008860FFF7BEFE4FF000600449086012
:1021C00010BD0000001002400000FFF8FFFFF6FE07
:1021D00008ED00E010B50121880700F0DDF90028C6
:1021E0003ED00121880700F0C8F91E494FF0804019
:1021F000FFF798FA1B48808881B24FF0804000F0CA
:1022000043FB1848407C06280BD11648B0F904401F
:1022100004EBD470C0F34F014FF0804000F038FB66
:102220001EE01048407C07280BD10E48B0F904404E
:1022300004EBD470C0F34F014FF0804000F02AFB54
:102240000EE00848407C08280AD10648B0F904404E
:1022500004EBD470C0F34F014FF0804000F01CFB42
:1022600010BD00006001002030B585B005460C4669
:1022700001210520FFF7C8FC01210846FFF7B4FC47
:102280000E20ADF8100018208DF8130003208DF8F3
:10229000120004A92648FEF7B3FF26494FF08040FC
:1022A000FEF75CFD24494FF08040FEF757FD2349BF
:1022B0004FF08040FEF752FD0821C80600F02EFACC
:1022C0000821C80600F088FA0821C80600F0CCFAF8
:1022D0000121880700F04EF901221146900700F015
:1022E0006CF94FF4A060FFF7F1FB1C208DF80C0097
:1022F00002208DF80D008DF80E0001208DF80F00E2
:1023000003A8FFF7ABFBADF80450ADF80040002088
:10231000ADF80600ADF8020069464FF0804000F0CD
:10232000BFFA00214FF0804000F02AF905B030BD1F
:10233000000801407926000839270008ED27000829
:1023400010B501211A4800F027F980B3012118487F
:1023500000F013F91748407C092812D1164800688C
:10236000FEF79CF984B22146114800F08DFA13481B
:102370000068FEF793F984B221460D4800F086FA12
:1023800015E00C48407C0B2811D10B480068FEF783
:1023900085F984B22146064800F076FA07480068BD
:1023A000FEF77CF984B22146014800F071FA10BDB5
:1023B000000400406001002074000020780000202C
:1023C00030B585B005460C4601210520FFF71CFC01
:1023D00001210220FFF708FCC020ADF810001820F2
:1023E0008DF8130003208DF8120004A92048FEF791
:1023F00007FF20492048FEF7B1FC20491E48FEF7A0
:10240000ADFC08211C4800F02DF908211A4800F005
:1024100085F90121184800F0ADF80122114616484F
:1024200000F0CBF84FF4A060FFF750FB1D208DF8B3
:102430000C0002208DF80D008DF80E0001208DF8A3
:102440000F0003A8FFF70AFBADF80450ADF80040F9
:102450000020ADF80600ADF802006946064800F01D
:102460001FFA0021044800F08BF805B030BD0000D1
:1024700000080140CD25000800040040792600082E
:1024800010B501210D4800F087F8A8B101210B48D3
:1024900000F073F80A480068FEF700F984B221469C
:1024A000064800F0F1F907480068FEF7F7F884B233
:1024B0002146024800F0ECF910BD00000008004081
:1024C0007C0000208000002030B585B005460C4619
:1024D00001210920FFF798FB01210420FFF784FB6D
:1024E0008020ADF8100018208DF8130003208DF81F
:1024F000120004A91C48FEF783FE1C491C48FEF785
:102500002DFC08211A4800F009F90121184800F0B3
:1025100031F801221146164800F04FF84FF4A06040
:10252000FFF7D4FA1D208DF80C0002208DF80D0065
:102530008DF80E0001208DF80F0003A8FFF78EFA2A
:10254000ADF80450ADF800400020ADF80600ADF83D
:1025500002006946064800F0A3F90021044800F093
:102560000FF805B030BD0000000C014079260008CE
:1025700000080040CA4302827047CA430282704783
:1025800021B1028842F00102028004E002884FF685
:10259000FE731A400280704730B5024600200023C7
:1025A0000024158A05EA0103958905EA010413B19F
:1025B0000CB1012000E0002030BD1AB183890B432B
:1025C000838102E083898B438381704770B5002447
:1025D00000220023058C4FF6FE7635400584028CE0
:1025E0008388048B4FF68F752C40B51E2C400D88C8
:1025F0002C43751E2A400D892A434D882A43144DC9
:10260000A8420BD0134DA84208D0134DA84205D0C4
:10261000124DA84202D0124DA84213D14FF6F775C1
:102620002A404D892A434FF6FB752A408D882A435C
:102630004FF6FF652B404FF6FF552B408D892B43FE
:10264000CD892B4383800483CD888586028470BD29
:10265000002C014000340140004001400044014092
:10266000004801400A460021018B4FF6F7731940DC
:10267000114301837047000070B50024002200233D
:10268000058C4FF6EF7635400584028C8388048BE9
:1026900048F6FF752C404FF6FF452C400D884FF64D
:1026A000FF7606EA05252C434FF6DF752A400D8993
:1026B00006EA05152A434D8806EA05152A43154DF5
:1026C000A84202D0144DA8421DD14FF67F752A4072
:1026D0004D894FF6FF7606EA05152A434FF6BF757A
:1026E0002A408D8806EA05152A434FF6FF352B4010
:1026F0004FF2FF752B408D8906EA85052B43CD8966
:1027000006EA85052B4383800483CD8805870284F0
:1027100070BD0000002C0140003401400A46002139
:10272000018B4FF2FF7319404FF6FF7303EA022348
:10273000194301837047000070B500240022002374
:10274000058C4FF6FF6635400584028C8388848BA8
:102750004FF68F752C404FF6FC752C400D882C439E
:102760004FF6FF552A400D894FF6FF7606EA0525FC
:102770002A434D8806EA05252A43154DA84202D072
:10278000144DA8421DD14FF2FF752A404D894FF6D6
:10279000FF7606EA05252A434FF6FF352A408D8845
:1027A00006EA05252A434EF6FF752B404DF6FF75C8
:1027B0002B408D8906EA05152B43CD8906EA0515C0
:1027C0002B4383808483CD888587028470BD00007D
:1027D000002C0140003401400A460021818B4FF655
:1027E000F7731940114381837047000070B50022D0
:1027F00000230024058C4EF6FF7635400584038CBB
:102800008488828B48F6FF752A404FF6FF452A40A0
:102810000D884FF6FF7606EA05252A434DF6FF752B
:102820002B400D8906EA05352B434D8806EA053510
:102830002B430B4DA84202D00A4DA84208D14BF6BB
:10284000FF752C408D894FF6FF7606EA85152C43DF
:1028500084808283CD88A0F84050038470BD00003E
:10286000002C0140003401400A460021818B4FF2C8
:10287000FF7319404FF6FF7303EA02231943818364
:1028800070470185828270478185704781867047D5
:102890000187704781877047A0F84010704700009B
:1028A000002202881D4B98420ED01D4B98420BD03F
:1028B000B0F1804F08D01B4B984205D01A4B98427C
:1028C00002D01A4B984204D14FF68F731A404B88AE
:1028D0001A43174B984207D0164B984204D04FF634
:1028E000FF431A40CB881A4302808B8883850B886C
:1028F00003850A4B98420BD0094B984208D00E4BE7
:10290000984205D00D4B984202D00D4B984201D110
:102910000B7A03860123838270470000002C01405C
:10292000003401400004004000080040000C00405A
:1029300000100040001400400040014000440140ED
:102940000048014010B5002440F225511C4800F019
:1029500049F810B31A4800F001F9C4B219480088C8
:1029600000F40040C8B91748008800F4804060B106
:102970000A2C03D000201349088020E01148008869
:1029800040F400400F49088019E00D2C06D10D4895
:10299000008840F480400B49088010E00948008816
:1029A000C0F30D0008490C5406480088401C054936
:1029B000088008460088C72801DD0020088010BD77
:1029C00000380140600000209800002021B1828979
:1029D00042F40052828104E082894DF6FF731A406E
:1029E0008281704770B50246002400230025002034
:1029F00040F66A16B14200D100BFC1F3421501F0A2
:102A00001F03012606FA03F3012D02D196893340F4
:102A100006E0022D02D1168A334001E0968A334047
:102A20000C12012606FA04F41688344013B10CB1D6
:102A3000012000E0002070BDF0B503460024002610
:102A40000025002040F66A17B94200D100BF1846A1
:102A5000C1F3421401F01F06012707FA06F5012C05
:102A600001D10C3004E0022C01D1103000E0143010
:102A70001AB107682F43076002E00768AF43076099
:102A8000F0BD00002DE9F04786B005460E46002453
:102A9000A24600BFA1460027B08900B100BF2F4663
:102AA0002C8A4CF6FF700440F08804432C82AC89D9
:102AB0004EF6F3100440B088318908437189084309
:102AC0000443AC81AC8A4FF6FF400440B089044314
:102AD000AC8201A8FFF7A8F81F48874202D1DDF8B1
:102AE00010A001E0DDF80CA0A88900F4004040B17E
:102AF0000AEBCA0000EB0A1031684900B0FBF1F89C
:102B000007E00AEBCA0000EB0A1031688900B0FB4D
:102B1000F1F86420B8FBF0F004012009642101FB06
:102B20001089A88900F4004040B1322000EBC900B0
:102B3000B0FBF1F000F00700044308E0322000EBA6
:102B400009106421B0FBF1F000F00F0004432C8168
:102B500006B0BDE8F08700000038014001468888D3
:102B6000C0F30800704700000FB4054B10B503A96F
:102B7000044A029800F018F810BC5DF814FB00003D
:102B8000F52D00085C00002002E008C8121F08C1F3
:102B9000002AFAD170477047002001E001C1121FDE
:102BA000002AFBD1704700002DE9FF4F89B09B46FA
:102BB0000446002506E025280BD05A460B9990477D
:102BC000641C6D1C20780028F5D10DB02846BDE8A6
:102BD000F08F0027B8460122474900E0074314F868
:102BE000013F203B02FA03F00842F7D120782E285B
:102BF00019D114F8010F47F004072A280ED06FF0FE
:102C00002F022078A0F1300109290CD808EB8801A7
:102C100002EB410100EB0108641CF2E70A98641C16
:102C200050F8048B0A9020780028CED0642808D071
:102C3000692806D075281ED05A460B9990476D1CFE
:102C400058E00A994FF00A0901C90A91002802DAEE
:102C500040422D2102E0390504D52B218DF82010AA
:102C6000012103E0F90704D02021F7E78A4608AEE6
:102C70000DE00021FAE70A994FF00A0901C90A910B
:102C8000F7E74946FDF74DFD303106F8011D0028F4
:102C9000F7D1ADEB060000F12009780701D44FF021
:102CA0000108C84502DDA8EB090000E000208046CD
:102CB000002706E008A85A46C05D0B9990476D1C96
:102CC0007F1C5745F6DB04E030205A460B999047AD
:102CD0006D1CB8F10001A8F10108F5DC05E016F85B
:102CE000010B5A460B9990476D1CB9F10001A9F1EF
:102CF0000109F4DC641C65E70928010010B56FF0D8
:102D00000400FFF722FA0A4800680A49B0FBF1F014
:102D1000094908700846007800EB4001C1EBC0107B
:102D20004FF6FF7101EAC0000449088010BD0000A1
:102D30000000002000127A005600002058000020F9
:102D40000146114A12884A434FF0E0235A6100229B
:102D50009A611A46126942F001021A6100BF4FF0EF
:102D6000E022106900F001021AB100F48032002A5A
:102D7000F5D04FF0E022126922F001024FF0E0237B
:102D80001A6100229A6170475800002010B504466D
:102D900005E04FF47A70FFF7D3FF601E84B2002C79
:102DA000F7DC10BD2DE9F04104460D460026002257
:102DB0000E4B20462946FDF7CAFB074600220C4B66
:102DC000FDF7ACFA04460D4609E022462B462046A4
:102DD0002946FDF74AFB04460D46701C86B2082EB4
:102DE000F3DB20462946BDE8F0810000000070407A
:102DF0000000F03F00BF054A128802F04002002A9E
:102E0000F9D0C2B2014B1B1D1A8070470038014037
:102E100010B5FFF77BF9FFF701F9002010BD0000A6
:102E200010B586B00446012144F20400FEF7ECFE22
:102E30004FF40070ADF8140003208DF81600182030
:102E40008DF8170005A91C48FEF7DAF94FF48060E9
:102E5000ADF8140004208DF8170005A91648FEF7F8
:102E6000CFF925208DF8000003208DF801008DF8A2
:102E7000020001208DF803006846FEF7EFFD019483
:102E80000020ADF80800ADF80A00ADF80C00ADF870
:102E900010000C20ADF80E0001A90848FFF7F2FD64
:102EA000012240F225510548FFF7C6FD01210348E4
:102EB000FFF78CFD06B010BD00080140003801404E
:102EC000E02E00080000002088000000882B000889
:102ED000682F000888000020500E0000982B000882
:102EE00000A24A04000000000000000001020304E8
:102EF00006070809000000000102030401020304A0
:102F0000060708090204060800000000C8000000C7
:102F10009001000058020000000048460000C8432D
:102F2000200300000000AF450000C84300008040BF
:102F300000001F4E470000000000000000000000DD
:102F40000000000000000000000000000000000081
:102F50000000000000000000000000000000000071
:082F6000000000000000000069
:0400000508000131BD
:00000001FF
