:020000040800F2
:1000000028050020450100084D0100084F010008A7
:1000100051010008530100085501000800000000CC
:100020000000000000000000000000005701000870
:1000300059010008000000005B0100085D01000894
:100040005F0100085F0100085F0100085F01000810
:100050005F0100085F0100085F0100085F01000800
:10006000E901000815020008410200085F010008CC
:100070005F0100085F0100085F0100085F010008E0
:100080005F0100085F0100085F0100085F010008D0
:100090005F0100085F0100085F010008810200089D
:1000A0005F0100085F0100085F0100085F010008B0
:1000B000A50A00085F0100085F0100085F01000851
:1000C0005F0100085F0100085F0100085F01000890
:1000D0005F010008F90E00085F0100085F010008D9
:1000E0005F0100085F0100085F0100085F01000870
:1000F0005F0100085F0100085F0100085F01000860
:100100005F0100085F0100085F0100085F0100084F
:100110005F0100085F0100085F0100085F0100083F
:100120005F0100085F0100085F0100085F0100082F
:10013000DFF80CD000F018F800480047C91100089B
:10014000280500200648804706480047FEE7FEE7EE
:10015000FEE7FEE7FEE7FEE7FEE7FEE7FEE7FEE777
:10016000450A000831010008064C074D06E0E0682A
:1001700040F0010394E8070098471034AC42F6D3EE
:10018000FFF7DAFF781200089812000808B501217D
:10019000102000F0FBFA0A20ADF8000010208DF8C6
:1001A000030003208DF802006946064800F09EF91E
:1001B0000221044800F027FA0821024800F021FA41
:1001C00008BD0000001001407FB505460C467020B8
:1001D000ADF800000020ADF802000220ADF80800E4
:1001E00069462846A0477FBD10B5042000F0F0F80E
:1001F00058B10A2000F0C2FF0448006810B90B2073
:1002000003490870042000F0DDF810BD0801234206
:100210005800002010B5082000F0DAF858B10A2084
:1002200000F0ACFF0448006810B90A2003490870C8
:10023000082000F0C7F810BD0C0123425800002030
:1002400010B5102000F0C4F888B10A2000F096FF25
:100250000748006840B907480068C0430649C1F82C
:100260009401012005490870102000F0ABF810BD82
:100270001001234294812142008021425800002035
:1002800010B50A2000F07AFF202000F0A1F870B12C
:100290002848006840B905202749087027480068A9
:1002A000C0432749C1F89401202000F08BF840207A
:1002B00000F08EF878B11F48001D006840B9062094
:1002C0001D4908701D480068C0431D49C1F89401CC
:1002D000402000F077F84FF4007000F079F850B14A
:1002E00014481030006810B90920134908704FF401
:1002F000007000F067F8802000F06AF848B10D48FF
:100300000830006828B907200B490870802000F0E9
:1003100059F84FF4807000F05BF848B105480C3094
:10032000006828B9082004490870400100F04AF824
:1003300010BD000014012342580000209481214286
:100340000080214210B500F061F90921042000F07D
:10035000ADF80821042000F0A9F80721042000F0DE
:10036000A5F80621042000F0A1F80521042000F0E2
:100370009DF80421084600F099F80321042000F0BC
:1003800095F80221042000F091F800F06BF900F0DC
:1003900078F900F085F900F092F900F001F810BD4D
:1003A0001CB54FF47F70009000208DF804000C20E5
:1003B0008DF8050001208DF80600684600F01CF855
:1003C0001CBD000001490860704700001404014092
:1003D000014600200022074B1B6803EA0102054B7F
:1003E00014331B680B4013B10AB1012000E0002058
:1003F0007047000000040140002123498279002A4F
:100400003AD00A46126803689A430B461A600A1DDE
:10041000126803689A430B1D1A60027911440A6836
:1004200003681A430A60184A0832126803689A433C
:10043000154B08331A601A1D126803689A43124B51
:100440000C331A604279102A0ED11A1F1268036801
:100450001A430D4B08331A601A1D126803681A43B9
:10046000094B0C331A600DE00749427911440A68C0
:1004700003681A430A6005E0027911440A680368B8
:100480009A430A6070470000000401407FB50546AA
:100490000C467020ADF800000120ADF802000220EB
:1004A000ADF8080069462846A0477FBD30B5002258
:1004B0008B071C0F0F2303FA04F20B4B8C1053F81D
:1004C00024309343084C8D1044F8253023468C107B
:1004D00053F824308C07240F00FA04F42343024C11
:1004E0008D1044F8253030BD080001402DE9F04161
:1004F000024600250026002000230024002791F852
:1005000003C00CF00F0591F803C00CF0100CBCF107
:10051000000F03D091F802C04CEA050591F800C025
:10052000BCF1000F31D0146800202BE04FF0010C1B
:100530000CFA00F3B1F800C00CEA03069E4220D189
:1005400083004FF00F0C0CFA03F7BC4305FA03FCD1
:100550004CEA040491F803C0BCF1280F06D14FF017
:10056000010C0CFA00FCC2F814C00AE091F803C0B8
:10057000BCF1480F05D14FF0010C0CFA00FCC2F899
:1005800010C0401C0828D1D31460B1F800C0BCF1E1
:10059000FF0F34DD546800202EE000F1080C4FF00E
:1005A000010808FA0CF3B1F800C00CEA03069E42F9
:1005B00021D183004FF00F0C0CFA03F7BC4305FA6E
:1005C00003FC4CEA040491F803C0BCF1280F05D1E8
:1005D00000F1080C08FA0CF8C2F8148091F803C076
:1005E000BCF1480F07D100F1080C4FF0010808FAE0
:1005F0000CF8C2F81080401C0828CED35460BDE827
:10060000F0814161704701617047000008B5012128
:10061000412000F0BBF84FF47F70ADF80000482097
:100620008DF8030003208DF8020069460148FFF7AA
:100630005DFF08BD0018014008B50121082000F049
:10064000A5F82020ADF8000010208DF8030003204D
:100650008DF8020069460248FFF748FF08BD000018
:10066000000C014008B508208DF8000001208DF82D
:1006700001008DF802008DF80300684600F034F8A0
:1006800008BD08B509208DF8000001208DF8010093
:100690008DF802008DF80300684600F025F808BDCB
:1006A00008B50A208DF8000001208DF801008DF8B2
:1006B00002008DF80300684600F016F808BD08B582
:1006C00017208DF8000001208DF801008DF8020040
:1006D0008DF80300684600F007F808BD10B54FF428
:1006E000A06000F039F810BD70B5002100230F2282
:1006F000C47804B3154C246804F4E064C4F5E064E1
:10070000210AC1F10403CA40447804FA03F1847851
:100710001440214309010E4C0678A155047804F0D9
:100720001F050124AC4005786D11AD0005F1E025F1
:10073000C5F8004109E0047804F01F050124AC402D
:10074000044D0678761145F8264070BD0CED00E0AA
:1007500000E400E080E100E002490143024A116048
:10076000704700000000FA050CED00E029B1064AD0
:10077000D2690243044BDA6104E0034AD26982433E
:10078000014BDA61704700000010024029B1064AAF
:1007900092690243044B9A6104E0034A92698243DE
:1007A000014B9A61704700000010024030B50021F3
:1007B0000022002400232D4D6D6805F00C0121B1AD
:1007C000042905D0082923D105E0294D056022E040
:1007D000274D05601FE0254D6D6805F47012234D0F
:1007E0006D6805F48034022505EB92421CB9214D59
:1007F000554305600BE01D4D6D6805F400351DB1D6
:100800001C4D5543056002E0194D5543056002E05B
:10081000174D056000BF00BF144D6D6805F0F00175
:100820000909154D6B5C0568DD4045600F4D6D682D
:1008300005F4E061090A104D6B5C4568DD40856098
:100840000A4D6D6805F46051C90A0B4D6B5C456833
:10085000DD40C560054D6D6805F44041890B074DCD
:100860006B5CC568B5FBF3F5056130BD0010024057
:1008700000127A0000093D0014000020240000202E
:100880001F4801881F48008800F060F91D48018852
:100890004FF0804000F0D8FA1A480088282190FBD9
:1008A000F1F084B221464FF0804000F0CFFA0121F0
:1008B000880700F0B5F921E013480078012805D138
:1008C0001249087000201049087017E00E4800789F
:1008D0000A2807D10E494007FFF776FC00200A4995
:1008E00008700BE0084800780B2807D108494FF042
:1008F0008040FFF7CBFD002003490870DCE70000D3
:100900004400002042000020580000204000002049
:100910006D0C000810B500F001F810BD0CB50020FA
:10092000019000903348006840F4803031490860FD
:1009300000BF3048006800F4003000900198401C6F
:100940000190009818B90198B0F5A06FF1D129482D
:10095000006800F4003010B10120009001E0002098
:1009600000900098012843D12348006840F010000F
:10097000214908600846006820F003000860084626
:10098000006840F0020008601A4840681949486051
:100990000846406848600846406840F48060486007
:1009A0000846406820F47C1048600846406840F4DF
:1009B000E81048600846006840F08070086000BF9A
:1009C0000C48006800F000700028F9D00948406821
:1009D00020F00300074948600846406840F00200E4
:1009E000486000BF0348406800F00C000828F9D1B7
:1009F0000CBD0000001002400020024010B500F0C5
:100A00009BFBFFF76BFE4FF4165000F0E5FBFFF782
:100A100013FEFFF797FCFFF7B9FB10BD042808D1C0
:100A20004FF0E021096941F004014FF0E02211612B
:100A300007E04FF0E021096921F004014FF0E022C6
:100A40001161704710B51348006840F0010011496A
:100A5000086008464068104908400E49486008464A
:100A600000680E4908400B4908600846006820F4F9
:100A7000802008600846406820F4FE0048604FF47B
:100A80001F008860FFF746FF4FF0006004490860D0
:100A900010BD0000001002400000FFF8FFFFF6FE4E
:100AA00008ED00E010B50121880700F0C5F8002826
:100AB00047D00121880700F0B0F82248007800BB39
:100AC000214801884FF0804000F0BEF91E480088A0
:100AD000282190FBF1F000EB400084B221464FF05A
:100AE000804000F0B3F918480088282190FBF1F00D
:100AF00000EB400084B221464FF0804000F0A8F99E
:100B00001FE01048007801281BD10F4801884FF0E2
:100B1000804000F099F90C480088282190FBF1F002
:100B200084B221464FF0804000F090F906480088DA
:100B3000282190FBF1F084B221464FF0804000F074
:100B400087F910BD400000204200002030B585B07C
:100B500005460C4601210520FFF718FE0121084635
:100B6000FFF704FE0E20ADF8100018208DF81300DA
:100B700003208DF8120004A92248FFF7B7FC224990
:100B80004FF08040FFF782FC20494FF08040FFF794
:100B90007DFC1F494FF08040FFF778FC0821C80614
:100BA00000F0B6F80121880700F034F80122114660
:100BB000900700F052F84FF4A060FFF7CDFD1C2025
:100BC0008DF80C0002208DF80D008DF80E0001202C
:100BD0008DF80F0003A8FFF787FDADF80450ADF8BE
:100BE00000400020ADF80600ADF8020069464FF065
:100BF000804000F02FF900214FF0804000F010F805
:100C000005B030BD000801406D0C00082D0D000836
:100C1000CD0D0008CA4302827047CA430282704762
:100C200021B1028842F00102028004E002884FF6FE
:100C3000FE731A400280704730B502460020002340
:100C40000024158A05EA0103958905EA010413B118
:100C50000CB1012000E0002030BD1AB183890B43A4
:100C6000838102E083898B438381704770B50024C0
:100C700000220023058C4FF6EF7635400584028C68
:100C80008388048B48F6FF752C404FF6FF452C40B7
:100C90000D884FF6FF7606EA05252C434FF6DF75E3
:100CA0002A400D8906EA05152A434D8806EA0515EE
:100CB0002A43154DA84202D0144DA8421DD14FF62B
:100CC0007F752A404D894FF6FF7606EA05152A43BF
:100CD0004FF6BF752A408D8806EA05152A434FF660
:100CE000FF352B404FF2FF752B408D8906EA8505B5
:100CF0002B43CD8906EA85052B4383800483CD8869
:100D00000587028470BD0000002C014000340140C2
:100D10000A460021018B4FF2FF7319404FF6FF7313
:100D200003EA0223194301837047000070B50024D1
:100D300000220023058C4FF6FF6635400584028CA7
:100D40008388848B4FF68F752C404FF6FC752C40B2
:100D50000D882C434FF6FF552A400D894FF6FF763C
:100D600006EA05252A434D8806EA05252A43154D3E
:100D7000A84202D0144DA8421DD14FF2FF752A405F
:100D80004D894FF6FF7606EA05252A434FF6FF35D3
:100D90002A408D8806EA05252A434EF6FF752B402A
:100DA0004DF6FF752B408D8906EA05152B43CD893D
:100DB00006EA05152B4383808483CD8885870284CA
:100DC00070BD0000002C01400034014070B50022CD
:100DD00000230024058C4EF6FF7635400584038CF5
:100DE0008488828B48F6FF752A404FF6FF452A40DB
:100DF0000D884FF6FF7606EA05252A434DF6FF7566
:100E00002B400D8906EA05352B434D8806EA05354A
:100E10002B430B4DA84202D00A4DA84208D14BF6F5
:100E2000FF752C408D894FF6FF7606EA85152C4319
:100E300084808283CD88A0F84050038470BD000078
:100E4000002C0140003401408185704701877047C4
:100E500081877047002202881D4B98420ED01D4B9F
:100E600098420BD0B0F1804F08D01B4B984205D070
:100E70001A4B984202D01A4B984204D14FF68F7306
:100E80001A404B881A43174B984207D0164B98428A
:100E900004D04FF6FF431A40CB881A4302808B8858
:100EA00083850B8803850A4B98420BD0094B9842E7
:100EB00008D00E4B984205D00D4B984202D00D4BF6
:100EC000984201D10B7A0386012383827047000088
:100ED000002C0140003401400004004000080040A4
:100EE000000C004000100040001400400040014091
:100EF000004401400048014010B5002440F2255153
:100F00001C4800F049F810B31A4800F001F9C4B2C7
:100F10001948008800F40040C8B91748008800F458
:100F2000804060B10A2C03D000201349088020E0E3
:100F30001148008840F400400F49088019E00D2C4A
:100F400006D10D48008840F480400B49088010E02D
:100F500009480088C0F30D0008490C540648008871
:100F6000401C0549088008460088C72801DD00208C
:100F7000088010BD00380140500000205C000020B7
:100F800021B1828942F40052828104E082894DF6C7
:100F9000FF731A408281704770B502460024002317
:100FA0000025002040F66A16B14200D100BFC1F30F
:100FB000421501F01F03012606FA03F3012D02D1A9
:100FC0009689334006E0022D02D1168A334001E0B3
:100FD000968A33400C12012606FA04F4168834402F
:100FE00013B10CB1012000E0002070BDF0B5034644
:100FF000002400260025002040F66A17B94200D1DF
:1010000000BF1846C1F3421401F01F06012707FA7A
:1010100006F5012C01D10C3004E0022C01D1103076
:1010200000E014301AB107682F43076002E0076838
:10103000AF430760F0BD00002DE9F04786B00546DC
:101040000E460024A24600BFA1460027B08900B189
:1010500000BF2F462C8A4CF6FF700440F0880443F2
:101060002C82AC894EF6F3100440B08831890843D5
:10107000718908430443AC81AC8A4FF6FF400440B9
:10108000B0890443AC8201A8FFF790FB1F48874258
:1010900002D1DDF810A001E0DDF80CA0A88900F471
:1010A000004040B10AEBCA0000EB0A103168490069
:1010B000B0FBF1F807E00AEBCA0000EB0A10316858
:1010C0008900B0FBF1F86420B8FBF0F004012009BE
:1010D000642101FB1089A88900F4004040B132204E
:1010E00000EBC900B0FBF1F000F00700044308E09A
:1010F000322000EB09106421B0FBF1F000F00F008A
:1011000004432C8106B0BDE8F087000000380140A0
:1011100001468888C0F30800704702E008C8121F23
:1011200008C1002AFAD170477047002001E001C1D0
:10113000121F002AFBD1704710B56FF00400FFF7B3
:101140006DFC0A4800680A49B0FBF1F009490870D3
:101150000846007800EB4001C1EBC0104FF6FF716C
:1011600001EAC0000449088010BD00000000002012
:1011700000127A0046000020480000200146114A73
:1011800012884A434FF0E0235A6100229A611A46BE
:10119000126942F001021A6100BF4FF0E0221069AB
:1011A00000F001021AB100F48032002AF5D04FF0AD
:1011B000E022126922F001024FF0E0231A610022BE
:1011C0009A6170474800002010B5FFF717FCFFF741
:1011D00057FB002010BD000010B586B00446012169
:1011E00044F20400FFF7D2FA4FF40070ADF8140097
:1011F00003208DF8160018208DF8170005A91C484B
:10120000FFF774F94FF48060ADF8140004208DF8F6
:10121000170005A91648FFF769F925208DF8000089
:1012200003208DF801008DF8020001208DF80300E5
:101230006846FFF759FA01940020ADF80800ADF8B0
:101240000A00ADF80C00ADF810000C20ADF80E004F
:1012500001A90848FFF7F0FE012240F22551054898
:10126000FFF7C4FE01210348FFF78AFE06B010BD58
:1012700000080140003801409812000800000020DA
:101280005C0000001A110008F41200085C00002045
:10129000CC0400002A11000800A24A04000000004B
:1012A0000000000001020304060708090000000016
:1012B00001020304010203040607080902040608E8
:1012C000000048460000C843200300000000AF456E
:1012D0000000C8430000804000001F4E470000008F
:1012E00000000000000000000000000000000000FE
:0412F00000000000FA
:0400000508000131BD
:00000001FF
