:020000040800F2
:10000000C80E0020450100084D0100084F010008FE
:1000100051010008530100085501000800000000CC
:100020000000000000000000000000005701000870
:1000300059010008000000005B0100085D01000894
:100040005F0100085F0100085F0100085F01000810
:100050005F0100085F0100085F0100085F01000800
:100060005D0C0008A10C0008DD0C00085F01000811
:100070005F0100085F0100085F0100085F010008E0
:100080005F0100085F0100085F0100085F010008D0
:100090005F0100085F0100085F0100081D0D0008F6
:1000A0005F0100085F0100085F0100085F010008B0
:1000B000911F0008FD2000083D2200085F01000894
:1000C0005F0100085F0100085F0100085F01000890
:1000D0005F010008012700085F0100085F010008B8
:1000E0005F0100085F0100085F0100085F01000870
:1000F0005F0100085F0100085F0100085F01000860
:100100005F0100085F0100085F0100085F0100084F
:100110005F0100085F0100085F0100085F0100083F
:100120005F0100085F0100085F0100085F0100082F
:10013000DFF80CD000F0C0FB00480047CD2B0008D2
:10014000C80E00200648804706480047FEE7FEE745
:10015000FEE7FEE7FEE7FEE7FEE7FEE7FEE7FEE777
:10016000311F00083101000840EA01039B0703D05A
:1001700009E008C9121F08C0042AFAD203E011F8E6
:10018000013B00F8013B521EF9D27047F0B480EAFF
:100190000102D40F4200B2EB410F02D202460846E0
:1001A00011464A0042D0C30DDDB2C1F3C752AD1AA9
:1001B000202D35DAC1F3160141F4000204B1524298
:1001C000C5F1200602FA06F12A411044B3EBD05FD4
:1001D00023D0C4B1012DA0EBC35009DCF0BC4FF01B
:1001E000004202EAC352DBB200F5000000F0D9BAC7
:1001F000400000F1807000EBC350A0F1807040EA35
:10020000D170490009E0490841EAC071A0EBC35030
:1002100000F50000400800EBC350F0BC00F0B8BA95
:100220006142012202EB4101001BF6E7F0BC70477E
:1002300081F00041AAE780F00040A7E780EA0102D0
:1002400010B502F00043400022D04A001FD0010E3A
:1002500001EB1261C0F35600C2F3560240F40000F5
:1002600042F40002A0FB022000047F39140400D0F5
:10027000401C50EA124001D44000491EC2B20C0694
:1002800004EBD010401C4008802A02D003E000207C
:1002900010BD20F00100002900DA0020184310BD35
:1002A00030B480EA010202F0004530F0004221F053
:1002B000004013D090B1C30DD40DC2F31601C0F3AA
:1002C0001600E41A41F4000140F400027D3491422A
:1002D00001D3641C00E04900002C02DA30BC00208D
:1002E00070474FF400000023914201D3891A034361
:1002F00040084FEA4101F7D151B1914202D14FF08C
:10030000004105E002D24FF0010101E06FF0010170
:1003100003EBC450284430BC00F03ABA2DE9FE4F3C
:10032000804681EA0300C00F0C46009021F0004196
:1003300023F00045B8EB0200A94105D24046214612
:1003400090461C460B46024623F00040104347D01F
:10035000270DC7F30A00C3F30A510290401A019017
:1003600040286BDAC3F3130040F4801B00989246D8
:1003700020B10023D2EB030A63EB0B0B0198594623
:10038000C0F14002504600F0E2F906460D465046E4
:100390005946019A00F0EAF910EB08006141002487
:1003A00087EA115284EAE7731A4340D0009A62B395
:1003B000019A012A4FEA075215DC001B61EB02018A
:1003C0004FF0004202EA0752CDE90042001C41F51D
:1003D000801132462B4600F021FA03B0BDE8F08FC1
:1003E00040462146F9E7001B61EB0201001C41F584
:1003F000801300185B412018A2F5001747EB03019A
:1004000040EAD570B6196D4111E06D084FEA360625
:1004100045EAC0754FEA0752001B61EB0201001C60
:1004200041F5801149084FEA300000195141324628
:100430002B4603B0BDE8F04F00F0E1B9009801226F
:1004400040000023D0EB020263EBE07300982146EA
:100450004FEAE074B8EB000061EB0401E9E783F0D8
:1004600000435BE781F0004158E72DE9FE4F81EA48
:10047000030404F0004421F0004100944FF0000B0D
:1004800023F0004350EA01045ED052EA03045BD03B
:10049000C3F30A54C1F30A552C44A4F2F334019473
:1004A000A0FB0254C1F3130141F48011C3F3130301
:1004B00043F4801301FB024400FB034E840A970AB5
:1004C00044EA815447EA8357A4FB076802958D0AE2
:1004D00005FB07854FEA932C04FB0C542705029D6E
:1004E0004FEA065847EA1637B5EB08056EEB070CDE
:1004F000870E920E47EA811742EA8312A7FB020198
:10050000B6EB0B0164EB00042B0D43EA0C335E18D1
:1005100044EB1C50DA465146E7FB0201C5F31304D5
:100520004FEA0B3343EA14534FEA0432019C43EA87
:100530000603A4F10C040294009CCDE900B400F081
:100540006DF903B0BDE8F08F00200146F9E72DE911
:10055000F04D81EA030404F0004B21F000451446FD
:100560004FF0000A23F0004150EA050220D054EA7F
:1005700001021DD0C5F30A570246C5F31303C1F3A8
:100580001300C1F30A5640F4801543F48013A7EB1F
:100590000608101BD64608F2FD3873EB050002D39F
:1005A00008F1010801E092185B41B8F1000F03DA8D
:1005B00000200146BDE8F08D00204FF48011064672
:1005C00084460EE0171B73EB050705D3121B63EB84
:1005D000050306434CEA010C49084FEA3000921823
:1005E0005B4150EA0107EDD152EA030012D082EAE2
:1005F000040083EA0501084305D0101BAB4106D275
:100600000122002306E000224FF0004302E06FF0D9
:10061000010253101AEB06004CEB085110EB0A00D4
:1006200041EB0B01BDE8F04D00F0E9B8C10F80EAE5
:10063000E0700844CA079623002100F0B2B8962360
:100640000022114600F0ADB80EB5C10F80EAE0708F
:100650000844CA07002140F233438DE80E000A46E1
:100660000B4600F0DBF803B000BD00F0004220F0C4
:100670000040C10DC0F3160040F400007F2901DAEC
:1006800000207047962903DCC1F19601C84001E0C3
:1006900096398840002AF4D04042704720F000404C
:1006A000C10DC0F3160040F400007F2901DA0020DC
:1006B0007047962903DCC1F19601C840704796390E
:1006C0008840704700F0004230F000400AD0C10D71
:1006D00001F56071C0F3160042EA0151C2084007FB
:1006E0001143704700200146704701F0004330B4C9
:1006F00021F0004150EA010206D00A0DA2F5607215
:10070000C1F31301002A02DC30BC00207047440F03
:1007100044EAC104C100E01830BC00EBC25000F054
:1007200037B830B50B46014600202022012409E0ED
:1007300021FA02F59D4205D303FA02F5491B04FA9A
:1007400002F52844151EA2F10102F1DC30BD202A79
:1007500004DB203A00FA02F1002070479140C2F118
:10076000200320FA03F3194390407047202A06DB48
:10077000CB17203A41FA02F043EAE07306E041FA6F
:1007800002F3D040C2F1200291400843194670475D
:100790000029A8BF7047401C490008BF20F0010095
:1007A000704710B4B0FA80FC00FA0CF050EA010473
:1007B00004BF10BC704749B1CCF1200421FA04F405
:1007C00011FA0CF118BF012121430843A3EB0C01DE
:1007D000CB1D4FEA00614FEA102042BF002010BC41
:1007E000704700EBC35010440029A4BF10BC7047F1
:1007F000401C490008BF20F0010010BC704710B534
:10080000141E73F1000408DA401C41F10001921833
:100810005B411A4301D120F0010010BD2DE9F04DDC
:1008200092469B4611B1B1FA81F202E0B0FA80F231
:1008300020329046FFF78BFF04460F4640EA0A003D
:1008400041EA0B0153465A46084313D0114653EA76
:10085000010019D0C8F14002504600F03FF80546AB
:100860000E46504659464246FFF771FF084305D0F1
:10087000012004E020463946BDE8F08D0020054304
:1008800046EAE0762C4337430A986305E40AA0EB76
:1008900008000022FD0A44EA47540A3002D500202D
:1008A0000146E9E7010510196941DDE9084500192C
:1008B0006941BDE8F04DA2E7064C074D06E0E0684F
:1008C00040F0010394E8070098471034AC42F6D397
:1008D000FFF732FC7C2C00089C2C0008202A04DB4B
:1008E000203A21FA02F00021704721FA02F3D040A9
:1008F000C2F1200291400843194670472DE9F34F99
:1009000085B04FF0000A002004900390DDE9050156
:10091000FFF78EFC029052E0AAF1C800FFF794FEA8
:1009200080460022294BFFF7A0FD06460022284BF7
:10093000FFF70DFE0446FFF7D8FE0490049880F000
:10094000004B5846FFF7BEFECDE9000102F008F962
:10095000064600221F4BFFF7E1FC044622460B46E9
:1009600000201C49FFF7F3FD8046FFF7BEFE039011
:10097000DDE90201FFF762FC04460699FFF706FC79
:10098000154941F82A00154800680921B0FBF1F724
:100990003846FFF754FE06460F4850F82A103046F6
:1009A000FFF77EFC05464FF07E51FFF741FC044601
:1009B000FFF774FE0A4921F81A000AF1010ABAF594
:1009C000C87FA9DB07B0BDE8F08F0000000014402D
:1009D000000069400000F03F64010020000000209A
:1009E000A40700202DE9FC5F04460D46C82004FB47
:1009F00000F605FB00F74FF42F584FF448794FF4F9
:100A0000486A4FF4487B4FF47A7002F077F8484612
:100A1000FFF70CFE01904046FFF708FE062300900A
:100A200001467042019A00F095FC00BF2248007810
:100A30000028FBD14FF4FA6002F060F85846FFF747
:100A4000F5FD01905046FFF7F1FD072300900146A8
:100A50007842019A00F07EFC00BF17480078002819
:100A6000FBD1022002F070F85846FFF7DFFD01903D
:100A70005046FFF7DBFD0723009001463846019AF8
:100A800000F068FC00BF0C4800780028FBD1484605
:100A9000FFF7CCFD01904046FFF7C8FD062300900C
:100AA00001463046019A00F055FC00BF024800782C
:100AB0000028FBD1BDE8FC9F6C00002008B5012197
:100AC000102000F0ABFF0121102000F0A7FF012152
:100AD000042000F0A3FF0121102000F09FFF02205E
:100AE000ADF8000010208DF8030003208DF80200FF
:100AF00069464F4800F0DEFA0820ADF800001020EB
:100B00008DF8030003208DF802006946484800F084
:100B1000D1FA0120ADF8000010208DF80300032069
:100B20008DF802006946434800F0C4FA0420ADF88D
:100B3000000010208DF8030003208DF802006946A4
:100B40003B4800F0B7FA1020ADF800008DF8030024
:100B500003208DF802006946364800F0ABFA2020E9
:100B6000ADF8000010208DF8030003208DF802007E
:100B70006946304800F09EFA1020ADF800008DF86C
:100B8000030003208DF802006946294800F092FA1C
:100B90000120ADF8000010208DF8030003208DF82F
:100BA00002006946244800F085FA2020ADF80000D4
:100BB00010208DF8030003208DF8020069461E48BE
:100BC00000F078FA4020ADF8000010208DF8030006
:100BD00003208DF802006946174800F06BFA0221E5
:100BE000134800F0F4FA0821114800F0EEFA012150
:100BF000104800F0ECFA04210D4800F0E6FA10214C
:100C00000C4800F0E4FA20210A4800F0DEFA102136
:100C1000074800F0DCFA0121074800F0D6FA20214D
:100C2000054800F0D4FA4021034800F0CEFA08BD90
:100C30000010014000080140000C01407FB505464E
:100C40000C467020ADF800000020ADF80200022034
:100C5000ADF8080069462846A0477FBD10B50420BE
:100C600000F038F988B1042000F02EF90A2001F0D4
:100C700045FF0648006840B902200549087408206D
:100C80000449087004A001F04DFE10BD0801234284
:100C900050010020680000205A5F55500D0A0000E6
:100CA00010B5082000F016F978B1082000F00CF912
:100CB0000A2001F023FF0548006830B90A200449E2
:100CC000087004490448FFF7B9FF10BD0C01234226
:100CD00068000020892300080004004010B510209F
:100CE00000F0F8F888B1102000F0EEF80A2001F0CA
:100CF00005FF0648006840B905480068C04305493B
:100D0000C1F8940101200449087010BD100123426C
:100D100094812142008021426800002010B50A2001
:100D200001F0ECFE202000F0D5F8402000F0D2F8D1
:100D300078B1402000F0C8F82048006848B9062083
:100D40001F4908701F492048FFF778FF1FA001F0D6
:100D5000E9FD802000F0BEF878B1802000F0B4F802
:100D60001648001D006840B902201B49087407207E
:100D70001349087019A001F0D5FD4FF4807000F000
:100D8000A9F818B14FF4807000F09EF84FF400708D
:100D900000F0A0F880B14FF4007000F095F807481B
:100DA0000C30006840B9202000F08EF8052004497E
:100DB00008700CA001F0B6FD10BD00001801234220
:100DC00068000020352400080008004045585449B8
:100DD0005F59320D0A000000500100204C580D0AE6
:100DE000000000004B310D0A0000000010B500F0BB
:100DF000F1F90921042000F03DF90821042000F058
:100E000039F90721042000F035F90621042000F00B
:100E100031F90521042000F02DF90421084600F0E5
:100E200029F90321042000F025F90221042000F013
:100E300021F900F0F3FC00F000FD00F00DFD00F0E2
:100E40001AFD00F022F810BD38B50446E0B28DF866
:100E5000000001208DF801008DF8020000208DF8BF
:100E60000300684600F01CFD38BD38B50446E0B20A
:100E70008DF8000001208DF801008DF802008DF83A
:100E80000300684600F00CFD38BD1CB54FF46F70D0
:100E9000009000208DF804000C208DF80500012042
:100EA0008DF80600684600F029F8402000900020E8
:100EB0008DF8040010208DF8050001208DF8060043
:100EC000684600F01BF81CBD01490860704700002F
:100ED00014040140014600200022074B1B6803EA6E
:100EE0000102054B14331B680B4013B10AB10120FA
:100EF00000E0002070470000000401400021234969
:100F00008279002A3AD00A46126803689A430B464F
:100F10001A600A1D126803689A430B1D1A60027951
:100F200011440A6803681A430A60184A08321268B2
:100F300003689A43154B08331A601A1D1268036838
:100F40009A43124B0C331A604279102A0ED11A1FA1
:100F5000126803681A430D4B08331A601A1D126891
:100F600003681A43094B0C331A600DE007494279B4
:100F700011440A6803681A430A6005E002791144C3
:100F80000A6803689A430A60704700000004014041
:100F90007FB505460C467020ADF800000120ADF885
:100FA00002000220ADF8080069462846A0477FBD30
:100FB0002DE9F84F04460D46C82004FB00F6070152
:100FC0004FF448784FF448694FF4487A5046FFF799
:100FD0002DFB83464846FFF729FB08235A46014666
:100FE0000090284600F0B6F900BF1B4800780028A2
:100FF000FBD100F061FE19A001F094FC4046FFF720
:1010000015FB83463846FFF711FB07235A46014676
:101010000090704200F09EF900BF0F480078002851
:10102000FBD100F0C5FD10A001F07CFC4046FFF7AD
:10103000FDFA83463846FFF7F9FA07235A46014678
:101040000090304600F086F900BF03480078002881
:10105000FBD1BDE8F88F00006C000020CFF2CFC2BA
:10106000D4CBB6AF0D0A0000CFF2C9CFD4CBB6AF08
:101070000D0A000030B500228B071C0F0F2303FA66
:1010800004F20B4B8C1053F824309343084C8D1012
:1010900044F8253023468C1053F824308C07240F55
:1010A00000FA04F42343024C8D1044F8253030BD7F
:1010B000080001402DE9F0410246002500260020ED
:1010C00000230024002791F803C00CF00F0591F8CD
:1010D00003C00CF0100CBCF1000F03D091F802C05B
:1010E0004CEA050591F800C0BCF1000F31D014683E
:1010F00000202BE04FF0010C0CFA00F3B1F800C017
:101100000CEA03069E4220D183004FF00F0C0CFA2C
:1011100003F7BC4305FA03FC4CEA040491F803C04E
:10112000BCF1280F06D14FF0010C0CFA00FCC2F8FC
:1011300014C00AE091F803C0BCF1480F05D14FF08C
:10114000010C0CFA00FCC2F810C0401C0828D1D3D6
:101150001460B1F800C0BCF1FF0F34DD546800200A
:101160002EE000F1080C4FF0010808FA0CF3B1F87A
:1011700000C00CEA03069E4221D183004FF00F0C01
:101180000CFA03F7BC4305FA03FC4CEA040491F89B
:1011900003C0BCF1280F05D100F1080C08FA0CF8C7
:1011A000C2F8148091F803C0BCF1480F07D100F1D8
:1011B000080C4FF0010808FA0CF8C2F81080401C27
:1011C0000828CED35460BDE8F081416170470161C9
:1011D0007047000008B50121412000F01FFC4FF4CA
:1011E0007F70ADF8000048208DF8030003208DF8D3
:1011F000020069460148FFF75DFF08BD0018014085
:1012000008B50121082000F009FC2020ADF80000FD
:1012100010208DF8030003208DF802006946024873
:10122000FFF748FF08BD0000000C01400FB410B5E7
:10123000142202A94448FEF797FF4348407C062841
:1012400027D14148007820B902214048FFF7BFFF6D
:1012500007E03D480078012803D102213B48FFF711
:10126000B4FF01220821C80601F0E9F93648808858
:1012700081B24FF0804001F0E5F93348B0F9044005
:1012800004EBD470C0F34F014FF0804001F0DEF961
:1012900056E02D48407C072827D12B48007820B9FC
:1012A00001212B48FFF793FF07E02748007801282A
:1012B00003D101212648FFF788FF01220821C80633
:1012C00001F0BDF92048808881B24FF0804001F0E4
:1012D000B9F91D48B0F9044004EBD470C0F34F01D4
:1012E0004FF0804001F0B4F92AE01748407C08280C
:1012F00026D11548007820B910211548FFF767FF5F
:1013000007E011480078012803D110211048FFF7A9
:101310005CFF01220821C80601F091F90A48808883
:1013200081B24FF0804001F08DF90748B0F90440D8
:1013300004EBD470C0F34F014FF0804001F08AF904
:1013400010BC5DF814FB00005001002000100140AB
:10135000000801402DE9F04F87B004460D461646BF
:101360001F468DF8197031462846FFF7C7FA002C42
:1013700004DA01208DF80800644202E000208DF8B4
:10138000080020B2ADF80A00012C1FD10120059001
:10139000374800680921B0FBF1FB5846FFF74FF9C9
:1013A00082463146FEF77CFF81464FF07E51FEF7C4
:1013B0003FFF8046FFF759F900B2ADF80C0004205A
:1013C0008DF8180001202B49087027E034B3B4F5DC
:1013D000487F12DC2848008800B2ADF80C00204697
:1013E00004EBD071491005910598049003208DF805
:1013F000180001201F49087010E01F48008800B243
:10140000ADF80C004FF4C8700590A4F5C8700490B6
:1014100003208DF8180001201649087006980090E6
:1014200002A80FC8FFF702FF1448407C062805D128
:1014300013494FF08040FFF7ABFD11E00F48407CAF
:10144000072805D10F494FF08040FFF7A1FD07E0C5
:101450000A48407C082803D10B49C006FFF798FDD5
:101460000121880700F06AFF07B0BDE8F08F000097
:10147000000000206C000020A40700205001002084
:1014800035240008F5240008A92500082DE9F05F9F
:101490004FF448644FF416654FF47A66A710A046DF
:1014A0004FF448790820FFF7CFFC3846FFF7BEF825
:1014B00082463046FFF7BAF883460623524659461D
:1014C0006042FFF747FF00BF274800780028FBD1A4
:1014D0003846FFF7ABF882463046FFF7A7F8834659
:1014E000E000062352465946FFF734FF00BF1E486E
:1014F00000780028FBD10820FFF7B7FC4846FFF72B
:1015000095F882464046FFF791F8834607235246F6
:1015100059466842FFF71EFF00BF134800780028B5
:10152000FBD14846FFF782F882464046FFF77EF837
:1015300083460723524659462846FFF70BFF00BF54
:10154000094800780028FBD100F07AFB012001F067
:10155000FBFA0021054800F0F1FE05490348FFF7BA
:101560006DFBBDE8F09F00006C000020000400400F
:101570003524000870B505460C46207C022806D0AC
:1015800003282AD0042873D0052872D163E00020F4
:1015900056490880564908700021284600F0CEFEC2
:1015A0005448407C062805D153494FF08040FFF74E
:1015B00045FB11E04F48407C072805D14F494FF0CB
:1015C0008040FFF73BFB07E04A48407C082803D1F6
:1015D0004B49C006FFF732FB85E044480088401CB9
:1015E00042490880207828B946480068401C45498F
:1015F000086004E043480068401E424908603B49D7
:101600000988E068884209DD3F483849098830F890
:10161000110000B2A080032020741BE03349098828
:10162000A06888420AD831480088401E364931F8FF
:10163000100000B2A080042020740BE02B4800882A
:10164000B0F5C87F06DB3048B0F81E0300B2A080BA
:101650000520207447E025480088401C2349088065
:10166000207838B927480068401C2649086006E001
:1016700012E037E023480068401E224908601B49F9
:101680000988A068884206D81F48B0F81E0300B237
:10169000A0800420207426E014480088401C1349D0
:1016A0000880207828B917480068401C1549086050
:1016B00004E014480068401E12490860B4F90200B2
:1016C0000A49098888420ADDB4F9020007490988F5
:1016D000401A0D4931F8100000B2A08001E002204C
:1016E000207400E000BF00BF70BD00008400002037
:1016F0006C0000205001002035240008F52400086B
:10170000A925000870000020A40700202DE9F04161
:1017100006460D4614463046FEF791FF184908600C
:101720002846FEF78CFF17490860092016494874BF
:1017300024B910211548FFF74AFD05E0012C03D11B
:1017400010211248FFF741FD0D480068FEF7A6FF83
:1017500087B239460E4800F075FF0A480068FEF768
:101760009DFF87B239460A4800F06EFF09490848D4
:10177000FFF70EFC0121064800F0E0FDBDE8F08116
:10178000740000207800002050010020001001406B
:1017900000040040892300082DE9F04106460D466B
:1017A00014463046FEF74BFF174908602846FEF7FF
:1017B00046FF1649086024B920211548FFF707FDA8
:1017C00005E0012C03D120211148FFF7FEFC0E4853
:1017D0000068FEF763FF87B239460E4800F032FF1B
:1017E0000A480068FEF75AFF87B23946094800F0F8
:1017F0002DFF09490748FFF7CBFB0121054800F001
:101800009DFDBDE8F08100007C00002080000020EC
:10181000000C0140000800403524000808B50820ED
:101820008DF8000001208DF801008DF802008DF880
:101830000300684600F034F808BD08B509208DF8AB
:10184000000001208DF801008DF802008DF80300E2
:10185000684600F025F808BD08B50A208DF800009C
:1018600001208DF801008DF802008DF80300684614
:1018700000F016F808BD08B517208DF8000001200B
:101880008DF801008DF802008DF80300684600F025
:1018900007F808BD10B54FF4A06000F039F810BD8E
:1018A00070B5002100230F22C47804B3154C2468BE
:1018B00004F4E064C4F5E064210AC1F10403CA4001
:1018C000447804FA03F184781440214309010E4C52
:1018D0000678A155047804F01F050124AC40057872
:1018E0006D11AD0005F1E025C5F8004109E004786F
:1018F00004F01F050124AC40044D0678761145F82C
:10190000264070BD0CED00E000E400E080E100E066
:1019100002490143024A1160704700000000FA05C5
:101920000CED00E070B541F287342546264604EB05
:10193000D670411001222046FFF7E8FE2E4605EB47
:10194000D670411001222846FFF726FF00BF12483B
:1019500000680128FBD01148007805280CD1002030
:101960000E490870042001F0EFF80DA000F0DAFF36
:101970000E490F48FFF762F900BF07480C380068AE
:101980000128FAD004480C38006818B909490A48F7
:10199000FFF754F970BD00002401234268000020C5
:1019A0005931CDA3D6B90D0A0000000089230008E3
:1019B00000040040352400080008004070B541F2E2
:1019C0008734002009490870254604EBD570411082
:1019D00001222046FFF7E0FE00BF0548006800280E
:1019E000FBD004490448FFF729F970BD68000020C6
:1019F00018012342352400080008004029B1064A96
:101A0000D2690243044BDA6104E0034AD26982439B
:101A1000014BDA61704700000010024029B1064A0C
:101A200092690243044B9A6104E0034A926982433B
:101A3000014B9A61704700000010024030B5002150
:101A40000022002400232D4D6D6805F00C0121B10A
:101A5000042905D0082923D105E0294D056022E09D
:101A6000274D05601FE0254D6D6805F47012234D6C
:101A70006D6805F48034022505EB92421CB9214DB6
:101A8000554305600BE01D4D6D6805F400351DB133
:101A90001C4D5543056002E0194D5543056002E0B9
:101AA000174D056000BF00BF144D6D6805F0F001D3
:101AB0000909154D6B5C0568DD4045600F4D6D688B
:101AC00005F4E061090A104D6B5C4568DD408560F6
:101AD0000A4D6D6805F46051C90A0B4D6B5C456891
:101AE000DD40C560054D6D6805F44041890B074D2B
:101AF0006B5CC568B5FBF3F5056130BD00100240B5
:101B000000127A0000093D0014000020240000208B
:101B10002DE9F84F04460D46C82004FB00F60701E6
:101B20004FF448784FF448694FF4487A4046FEF73E
:101B30007DFD83463846FEF779FD07235A46014668
:101B400000907042FFF706FC00BF1848007800289C
:101B5000FBD100F0B1F84046FEF768FD0090384632
:101B6000FEF764FD8346072359463046009AFFF787
:101B7000F1FB00BF0D4800780028FBD100F018F8F9
:101B80005046FEF753FD83464846FEF74FFD0823B7
:101B90005A46014600906842FFF7DCFB00BF03484D
:101BA00000780028FBD1BDE8F88F00006C00002011
:101BB00010B54FF4FA7000F0A1FF1A481A490860F6
:101BC0001A481B4908600B201A4948740122472112
:101BD000194800F034FD14480068FEF75FFD84B238
:101BE0002146154800F02EFD11480068FEF756FD0D
:101BF00084B22146104800F029FD10490E48FFF735
:101C0000C7F901210C4800F099FB4FF4FA7000F07D
:101C100075FF0021084800F091FB08490648FFF7CE
:101C20000DF810BD003E9C46740000200020994431
:101C300078000020500100200004004035240008F6
:101C400010B5FFF7B5FF0B20164948740122472154
:101C5000154800F0F4FC15480068FEF71FFD84B23B
:101C60002146114800F0EEFC11480068FEF716FD11
:101C700084B221460C4800F0E9FC0E490A48FFF7FF
:101C800087F90121084800F059FB4FF47A7000F001
:101C900035FF0021044800F051FB06490248FEF7D9
:101CA000CDFF10BD50010020000400407400002052
:101CB000780000203524000810B54FF4FA7000F0C9
:101CC0001DFF1A481A4908601A481B4908600B2072
:101CD0001A49487401224721194800F0B0FC144801
:101CE0000068FEF7DBFC84B22146154800F0AAFC30
:101CF00011480068FEF7D2FC84B22146104800F07B
:101D0000A5FC10490E48FFF743F901210C4800F0EB
:101D100015FB4FF4487000F0F1FE0021084800F078
:101D20000DFB08490648FEF789FF10BD003E9C46A2
:101D3000740000200000F5437800002050010020CE
:101D4000000400403524000810B500F001F810BD73
:101D50000CB50020019000903348006840F48030BA
:101D60003149086000BF3048006800F4003000903E
:101D70000198401C0190009818B90198B0F5A06F27
:101D8000F1D12948006800F4003010B10120009022
:101D900001E0002000900098012843D1234800680A
:101DA00040F01000214908600846006820F0030058
:101DB00008600846006840F0020008601A48406861
:101DC000194948600846406848600846406840F441
:101DD000806048600846406820F47C1048600846EF
:101DE000406840F4E81048600846006840F08070A1
:101DF000086000BF0C48006800F000700028F9D0AF
:101E00000948406820F003000749486008464068D8
:101E100040F00200486000BF0348406800F00C003A
:101E20000828F9D10CBD000000100240002002403B
:101E3000162420488568FFF729FB39E01E48007802
:101E400001281BD100201C490870FFF76BFD1720EB
:101E5000FEF7FAFF29462046FFF7AAF82821BE2000
:101E6000FEF7C0FD29462046FFF752FE1720FEF779
:101E7000FCFFFFF7A3FD11A000F054FD0E48007811
:101E80000A2815D100200C4908701720FEF7DCFF46
:101E900029462046FFF78CF829462046FFF738FEF2
:101EA0001720FEF7E2FFFFF73DFD00200249087012
:101EB000C4E70000280000206800002066696E6901
:101EC00073680D0A0000000010B500F0F5FDFFF783
:101ED000E1FC4FF4165000F081FEFFF791F9FEF798
:101EE00085FFFEF7EBFD082142F20F7000F09AF833
:101EF000082142F20F7000F041F9082142F20F7000
:101F000000F0C0F910BD042808D14FF0E0210969A4
:101F100041F004014FF0E022116107E04FF0E021B1
:101F2000096921F004014FF0E022116170470000BF
:101F300010B51348006840F00100114908600846D8
:101F40004068104908400E494860084600680E493C
:101F500008400B4908600846006820F480200860AB
:101F60000846406820F4FE0048604FF41F00886077
:101F7000FFF7EAFE4FF000600449086010BD000062
:101F8000001002400000FFF8FFFFF6FE08ED00E041
:101F900010B50121880700F0DDF900283ED00121AD
:101FA000880700F0C8F91E494FF08040FFF7E2FAB9
:101FB0001B48808881B24FF0804000F043FB1848F6
:101FC000407C06280BD11648B0F9044004EBD470CD
:101FD000C0F34F014FF0804000F038FB1EE0104886
:101FE000407C07280BD10E48B0F9044004EBD470B4
:101FF000C0F34F014FF0804000F02AFB0EE008488C
:10200000407C08280AD10648B0F9044004EBD4709B
:10201000C0F34F014FF0804000F01CFB10BD0000EA
:102020005001002030B585B005460C460121052041
:10203000FFF7F4FC01210846FFF7E0FC0E20ADF8A5
:10204000100018208DF8130003208DF8120004A949
:102050002648FFF72FF826494FF08040FEF7EEFDA7
:1020600024494FF08040FEF7E9FD23494FF08040BE
:10207000FEF7E4FD0821C80600F02EFA0821C80684
:1020800000F088FA0821C80600F0CCFA0121880780
:1020900000F04EF901221146900700F06CF94FF460
:1020A000A060FFF735FC1C208DF80C0002208DF895
:1020B0000D008DF80E0001208DF80F0003A8FFF72A
:1020C000EFFBADF80450ADF800400020ADF806007D
:1020D000ADF8020069464FF0804000F0BFFA0021E1
:1020E0004FF0804000F02AF905B030BD00080140F3
:1020F00035240008F5240008A925000810B50121A1
:102100001A4800F027F980B30121184800F013F9AC
:102110001748407C092812D116480068FEF7BEFA1D
:1021200084B22146114800F08DFA13480068FEF78A
:10213000B5FA84B221460D4800F086FA15E00C4845
:10214000407C0B2811D10B480068FEF7A7FA84B237
:102150002146064800F076FA07480068FEF79EFA26
:1021600084B22146014800F071FA10BD000400401D
:1021700050010020740000207800002030B585B0A8
:1021800005460C4601210520FFF748FC01210220ED
:10219000FFF734FCC020ADF8100018208DF81300B4
:1021A00003208DF8120004A92048FEF783FF204980
:1021B0002048FEF743FD20491E48FEF73FFD082159
:1021C0001C4800F02DF908211A4800F085F901217A
:1021D000184800F0ADF801221146164800F0CBF87F
:1021E0004FF4A060FFF794FB1D208DF80C00022037
:1021F0008DF80D008DF80E0001208DF80F0003A85A
:10220000FFF74EFBADF80450ADF800400020ADF8EC
:102210000600ADF802006946064800F01FFA0021EA
:10222000044800F08BF805B030BD00000008014004
:1022300089230008000400403524000810B501215E
:102240000D4800F087F8A8B101210B4800F073F8A1
:102250000A480068FEF722FA84B22146064800F0D8
:10226000F1F907480068FEF719FA84B221460248DE
:1022700000F0ECF910BD0000000800407C000020D8
:102280008000002030B585B005460C4601210920AC
:10229000FFF7C4FB01210420FFF7B0FB8020ADF85D
:1022A000100018208DF8130003208DF8120004A9E7
:1022B0001C48FEF7FFFE1C491C48FEF7BFFC082126
:1022C0001A4800F009F90121184800F031F80122FC
:1022D0001146164800F04FF84FF4A060FFF718FBC6
:1022E0001D208DF80C0002208DF80D008DF80E00D9
:1022F00001208DF80F0003A8FFF7D2FAADF80450C3
:10230000ADF800400020ADF80600ADF802006946C7
:10231000064800F0A3F90021044800F00FF805B0CA
:1023200030BD0000000C01403524000800080040CA
:10233000CA4302827047CA430282704721B10288B1
:1023400042F00102028004E002884FF6FE731A4058
:102350000280704730B50246002000230024158A11
:1023600005EA0103958905EA010413B10CB10120C6
:1023700000E0002030BD1AB183890B43838102E065
:1023800083898B438381704770B50024002200232A
:10239000058C4FF6FE7635400584028C8388048BCD
:1023A0004FF68F752C40B51E2C400D882C43751EA2
:1023B0002A400D892A434D882A43144DA8420BD048
:1023C000134DA84208D0134DA84205D0124DA84283
:1023D00002D0124DA84213D14FF6F7752A404D890D
:1023E0002A434FF6FB752A408D882A434FF6FF6536
:1023F0002B404FF6FF552B408D892B43CD892B4326
:1024000083800483CD888586028470BD002C0140C2
:1024100000340140004001400044014000480140B8
:102420000A460021018B4FF6F773194011430183CF
:102430007047000070B5002400220023058C4FF681
:10244000EF7635400584028C8388048B48F6FF754F
:102450002C404FF6FF452C400D884FF6FF7606EADC
:1024600005252C434FF6DF752A400D8906EA051530
:102470002A434D8806EA05152A43154DA84202D085
:10248000144DA8421DD14FF67F752A404D894FF655
:10249000FF7606EA05152A434FF6BF752A408D8858
:1024A00006EA05152A434FF6FF352B404FF2FF751C
:1024B0002B408D8906EA85052B43CD8906EA8505E3
:1024C0002B4383800483CD880587028470BD000080
:1024D000002C0140003401400A460021018B4FF2DC
:1024E000FF7319404FF6FF7303EA02231943018378
:1024F0007047000070B5002400220023058C4FF6C1
:10250000FF6635400584028C8388848B4FF68F7577
:102510002C404FF6FC752C400D882C434FF6FF5590
:102520002A400D894FF6FF7606EA05252A434D8895
:1025300006EA05252A43154DA84202D0144DA842AB
:102540001DD14FF2FF752A404D894FF6FF7606EAFE
:1025500005252A434FF6FF352A408D8806EA0525D2
:102560002A434EF6FF752B404DF6FF752B408D89A3
:1025700006EA05152B43CD8906EA05152B43838012
:102580008483CD888587028470BD0000002C0140C3
:10259000003401400A460021818B4FF6F773194041
:1025A000114381837047000070B50022002300248E
:1025B000058C4EF6FF7635400584038C8488828B2B
:1025C00048F6FF752A404FF6FF452A400D884FF622
:1025D000FF7606EA05252A434DF6FF752B400D8947
:1025E00006EA05352B434D8806EA05352B430B4D8E
:1025F000A84202D00A4DA84208D14BF6FF752C40E4
:102600008D894FF6FF7606EA85152C4384808283F8
:10261000CD88A0F84050038470BD0000002C01401C
:10262000003401400A460021818B4FF2FF731940AC
:102630004FF6FF7303EA0223194381837047018534
:102640008282704781857047818670470187704715
:1026500081877047A0F84010704700000022028870
:102660001D4B98420ED01D4B98420BD0B0F1804FBD
:1026700008D01B4B984205D01A4B984202D01A4BF7
:10268000984204D14FF68F731A404B881A43174B68
:10269000984207D0164B984204D04FF6FF431A4099
:1026A000CB881A4302808B8883850B8803850A4B6D
:1026B00098420BD0094B984208D00E4B984205D057
:1026C0000D4B984202D00D4B984201D10B7A0386F4
:1026D0000123838270470000002C01400034014038
:1026E0000004004000080040000C004000100040C2
:1026F00000140040004001400044014000480140F7
:1027000010B5002440F225511C4800F049F810B3E0
:102710001A4800F001F9C4B21948008800F40040DA
:10272000C8B91748008800F4804060B10A2C03D073
:1027300000201349088020E01148008840F4004040
:102740000F49088019E00D2C06D10D48008840F48F
:1027500080400B49088010E009480088C0F30D0054
:1027600008490C5406480088401C05490880084662
:102770000088C72801DD0020088010BD0038014016
:10278000600000208800002021B1828942F40052BC
:10279000828104E082894DF6FF731A40828170477E
:1027A00070B50246002400230025002040F66A167A
:1027B000B14200D100BFC1F3421501F01F03012651
:1027C00006FA03F3012D02D19689334006E0022D6B
:1027D00002D1168A334001E0968A33400C1201265A
:1027E00006FA04F41688344013B10CB1012000E05D
:1027F000002070BDF0B5034600240026002500200F
:1028000040F66A17B94200D100BF1846C1F342141E
:1028100001F01F06012707FA06F5012C01D10C3043
:1028200004E0022C01D1103000E014301AB1076826
:102830002F43076002E00768AF430760F0BD000068
:102840002DE9F04786B005460E460024A24600BF9B
:10285000A1460027B08900B100BF2F462C8A4CF654
:10286000FF700440F08804432C82AC894EF6F310CC
:102870000440B08831890843718908430443AC811E
:10288000AC8A4FF6FF400440B0890443AC8201A8F3
:10289000FFF7D4F81F48874202D1DDF810A001E00D
:1028A000DDF80CA0A88900F4004040B10AEBCA0092
:1028B00000EB0A1031684900B0FBF1F807E00AEBC1
:1028C000CA0000EB0A1031688900B0FBF1F86420FF
:1028D000B8FBF0F004012009642101FB1089A889EC
:1028E00000F4004040B1322000EBC900B0FBF1F031
:1028F00000F00700044308E0322000EB09106421D7
:10290000B0FBF1F000F00F0004432C8106B0BDE8ED
:10291000F08700000038014001468888C0F30800B5
:10292000704700000FB4054B10B503A9044A029884
:1029300000F018F810BC5DF814FB0000B12B000883
:102940005C00002002E008C8121F08C1002AFAD16A
:1029500070477047002001E001C1121F002AFBD11F
:10296000704700002DE9FF4F89B09B4604460025C3
:1029700006E025280BD05A460B999047641C6D1C25
:1029800020780028F5D10DB02846BDE8F08F00274B
:10299000B8460122474900E0074314F8013F203BB5
:1029A00002FA03F00842F7D120782E2819D114F842
:1029B000010F47F004072A280ED06FF02F0220786D
:1029C000A0F1300109290CD808EB880102EB410184
:1029D00000EB0108641CF2E70A98641C50F8048BB1
:1029E0000A9020780028CED0642808D0692806D024
:1029F00075281ED05A460B9990476D1C58E00A99CD
:102A00004FF00A0901C90A91002802DA40422D213B
:102A100002E0390504D52B218DF82010012103E0B7
:102A2000F90704D02021F7E78A4608AE0DE000211F
:102A3000FAE70A994FF00A0901C90A91F7E74946EE
:102A4000FDF76FFE303106F8011D0028F7D1ADEB20
:102A5000060000F12009780701D44FF00108C845AD
:102A600002DDA8EB090000E000208046002706E018
:102A700008A85A46C05D0B9990476D1C7F1C5745AE
:102A8000F6DB04E030205A460B9990476D1CB8F1F4
:102A90000001A8F10108F5DC05E016F8010B5A4623
:102AA0000B9990476D1CB9F10001A9F10109F4DC03
:102AB000641C65E70928010010B56FF00400FFF7FA
:102AC00022FA0A4800680A49B0FBF1F00949087087
:102AD0000846007800EB4001C1EBC0104FF6FF71D3
:102AE00001EAC0000449088010BD00000000002079
:102AF00000127A0056000020580000200146114ABA
:102B000012884A434FF0E0235A6100229A611A4624
:102B1000126942F001021A6100BF4FF0E022106911
:102B200000F001021AB100F48032002AF5D04FF013
:102B3000E022126922F001024FF0E0231A61002224
:102B40009A6170475800002010B5044605E04FF424
:102B50007A70FFF7D3FF601E84B2002CF7DC10BD43
:102B60002DE9F04104460D46002600220E4B20467A
:102B70002946FDF7ECFC074600220C4BFDF7CEFB87
:102B800004460D4609E022462B4620462946FDF71D
:102B90006CFC04460D46701C86B2082EF3DB204602
:102BA0002946BDE8F0810000000070400000F03FC1
:102BB00000BF054A128802F04002002AF9D0C2B2D2
:102BC000014B1B1D1A8070470038014010B5FFF7FC
:102BD0007BF9FFF72DF9002010BD000010B586B07D
:102BE0000446012144F20400FEF718FF4FF4007080
:102BF000ADF8140003208DF8160018208DF817008A
:102C000005A91C48FEF756FA4FF48060ADF8140091
:102C100004208DF8170005A91648FEF74BFA252069
:102C20008DF8000003208DF801008DF802000120CE
:102C30008DF803006846FEF733FE01940020ADF8DE
:102C40000800ADF80A00ADF80C00ADF810000C203B
:102C5000ADF80E0001A90848FFF7F2FD012240F28D
:102C600025510548FFF7C6FD01210348FFF78CFDFC
:102C700006B010BD00080140003801409C2C00083F
:102C8000000000208800000044290008242D0008CE
:102C900088000020400E00005429000800A24A04C9
:102CA00000000000000000000102030406070809FC
:102CB00000000000010203040102030406070809E2
:102CC0000204060800000000C80000009001000097
:102CD00058020000000048460000C84320030000DE
:102CE0000000AF450000C8430000804000001F4EB8
:102CF000470000000000000000000000000000008D
:102D000000000000000000000000000000000000C3
:102D100000000000000000000000000000000000B3
:042D200000000000AF
:0400000508000131BD
:00000001FF
