:020000040800F2
:10000000D8090020450100084D0100084F010008F3
:1000100051010008530100085501000800000000CC
:100020000000000000000000000000005701000870
:1000300059010008000000005B0100085D01000894
:100040005F0100085F0100085F0100085F01000810
:100050005F0100085F0100085F0100085F01000800
:10006000ED0A0008190B0008450B00085F010008A5
:100070005F0100085F0100085F0100085F010008E0
:100080005F0100085F0100085F0100085F010008D0
:100090005F0100085F0100085F010008850B000890
:1000A0005F0100085F0100085F0100085F010008B0
:1000B000151600085F0100085F0100085F010008D5
:1000C0005F0100085F0100085F0100085F01000890
:1000D0005F010008011C00085F0100085F010008C3
:1000E0005F0100085F0100085F0100085F01000870
:1000F0005F0100085F0100085F0100085F01000860
:100100005F0100085F0100085F0100085F0100084F
:100110005F0100085F0100085F0100085F0100083F
:100120005F0100085F0100085F0100085F0100082F
:10013000DFF80CD000F0B8FB00480047B5200008FD
:10014000D80900200648804706480047FEE7FEE73A
:10015000FEE7FEE7FEE7FEE7FEE7FEE7FEE7FEE777
:10016000B51500083101000840EA01039B0703D0E0
:1001700009E008C9121F08C0042AFAD203E011F8E6
:10018000013B00F8013B521EF9D27047F0B480EAFF
:100190000102D40F4200B2EB410F02D202460846E0
:1001A00011464A0042D0C30DDDB2C1F3C752AD1AA9
:1001B000202D35DAC1F3160141F4000204B1524298
:1001C000C5F1200602FA06F12A411044B3EBD05FD4
:1001D00023D0C4B1012DA0EBC35009DCF0BC4FF01B
:1001E000004202EAC352DBB200F5000000F0D0BAD0
:1001F000400000F1807000EBC350A0F1807040EA35
:10020000D170490009E0490841EAC071A0EBC35030
:1002100000F50000400800EBC350F0BC00F0AFBA9E
:100220006142012202EB4101001BF6E7F0BC70477E
:1002300081F00041AAE780F00040A7E780EA0102D0
:1002400010B502F00043400022D04A001FD0010E3A
:1002500001EB1261C0F35600C2F3560240F40000F5
:1002600042F40002A0FB022000047F39140400D0F5
:10027000401C50EA124001D44000491EC2B20C0694
:1002800004EBD010401C4008802A02D003E000207C
:1002900010BD20F00100002900DA0020184310BD35
:1002A00030B480EA010202F0004530F0004221F053
:1002B000004013D090B1C30DD40DC2F31601C0F3AA
:1002C0001600E41A41F4000140F400027D3491422A
:1002D00001D3641C00E04900002C02DA30BC00208D
:1002E00070474FF400000023914201D3891A034361
:1002F00040084FEA4101F7D151B1914202D14FF08C
:10030000004105E002D24FF0010101E06FF0010170
:1003100003EBC450284430BC00F031BA2DE9FE4F45
:10032000804681EA0300C00F0C46009021F0004196
:1003300023F00045B8EB0200A94105D24046214612
:1003400090461C460B46024623F00040104347D01F
:10035000270DC7F30A00C3F30A510290401A019017
:1003600040286BDAC3F3130040F4801B00989246D8
:1003700020B10023D2EB030A63EB0B0B0198594623
:10038000C0F14002504600F0D9F906460D465046ED
:100390005946019A00F0E1F910EB08006141002490
:1003A00087EA115284EAE7731A4340D0009A62B395
:1003B000019A012A4FEA075215DC001B61EB02018A
:1003C0004FF0004202EA0752CDE90042001C41F51D
:1003D000801132462B4600F018FA03B0BDE8F08FCA
:1003E00040462146F9E7001B61EB0201001C41F584
:1003F000801300185B412018A2F5001747EB03019A
:1004000040EAD570B6196D4111E06D084FEA360625
:1004100045EAC0754FEA0752001B61EB0201001C60
:1004200041F5801149084FEA300000195141324628
:100430002B4603B0BDE8F04F00F0D8B90098012278
:1004400040000023D0EB020263EBE07300982146EA
:100450004FEAE074B8EB000061EB0401E9E783F0D8
:1004600000435BE781F0004158E72DE9FE4F81EA48
:10047000030404F0004421F0004100944FF0000B0D
:1004800023F0004350EA01045ED052EA03045BD03B
:10049000C3F30A54C1F30A552C44A4F2F334019473
:1004A000A0FB0254C1F3130141F48011C3F3130301
:1004B00043F4801301FB024400FB034E840A970AB5
:1004C00044EA815447EA8357A4FB076802958D0AE2
:1004D00005FB07854FEA932C04FB0C542705029D6E
:1004E0004FEA065847EA1637B5EB08056EEB070CDE
:1004F000870E920E47EA811742EA8312A7FB020198
:10050000B6EB0B0164EB00042B0D43EA0C335E18D1
:1005100044EB1C50DA465146E7FB0201C5F31304D5
:100520004FEA0B3343EA14534FEA0432019C43EA87
:100530000603A4F10C040294009CCDE900B400F081
:1005400064F903B0BDE8F08F00200146F9E72DE91A
:10055000F04D81EA030404F0004B21F000451446FD
:100560004FF0000A23F0004150EA050220D054EA7F
:1005700001021DD0C5F30A570246C5F31303C1F3A8
:100580001300C1F30A5640F4801543F48013A7EB1F
:100590000608101BD64608F2FD3873EB050002D39F
:1005A00008F1010801E092185B41B8F1000F03DA8D
:1005B00000200146BDE8F08D00204FF48011064672
:1005C00084460EE0171B73EB050705D3121B63EB84
:1005D000050306434CEA010C49084FEA3000921823
:1005E0005B4150EA0107EDD152EA030012D082EAE2
:1005F000040083EA0501084305D0101BAB4106D275
:100600000122002306E000224FF0004302E06FF0D9
:10061000010253101AEB06004CEB085110EB0A00D4
:1006200041EB0B01BDE8F04D00F0E0B8962300224D
:10063000114600F0ADB80EB5C10F80EAE070084475
:10064000CA07002140F233438DE80E000A460B46EC
:1006500000F0DBF803B000BD00F0004220F00040E5
:10066000C10DC0F3160040F400007F2901DA00201C
:100670007047962903DCC1F19601C84001E0963924
:100680008840002AF4D04042704720F00040C10D5D
:10069000C0F3160040F400007F2901DA0020704703
:1006A000962903DCC1F19601C8407047963988400D
:1006B000704700F0004230F000400AD0C10D01F553
:1006C0006071C0F3160042EA0151C20840071143AD
:1006D000704700200146704701F0004330B421F01C
:1006E000004150EA010206D00A0DA2F56072C1F382
:1006F0001301002A02DC30BC00207047440F44EA9A
:10070000C104C100E01830BC00EBC25000F037B8A3
:1007100030B50B46014600202022012409E021FAD1
:1007200002F59D4205D303FA02F5491B04FA02F5CE
:100730002844151EA2F10102F1DC30BD202A04DBA1
:10074000203A00FA02F1002070479140C2F12003E4
:1007500020FA03F3194390407047202A06DBCB1799
:10076000203A41FA02F043EAE07306E041FA02F36C
:10077000D040C2F120029140084319467047002939
:10078000A8BF7047401C490008BF20F00100704717
:1007900010B4B0FA80FC00FA0CF050EA010404BF77
:1007A00010BC704749B1CCF1200421FA04F411FACD
:1007B0000CF118BF012121430843A3EB0C01CB1D11
:1007C0004FEA00614FEA102042BF002010BC704782
:1007D00000EBC35010440029A4BF10BC7047401C5C
:1007E000490008BF20F0010010BC704710B5141E6E
:1007F00073F1000408DA401C41F1000192185B41DA
:100800001A4301D120F0010010BD2DE9F04D9246B0
:100810009B4611B1B1FA81F202E0B0FA80F22032C7
:100820009046FFF78BFF04460F4640EA0A0041EA74
:100830000B0153465A46084313D0114653EA0100B0
:1008400019D0C8F14002504600F040F805460E4667
:10085000504659464246FFF771FF084305D0012034
:1008600004E020463946BDE8F08D0020054346EA05
:10087000E0762C4337430A986305E40AA0EB0800AE
:100880000022FD0A44EA47540A3002D500200146FE
:10089000E9E7010510196941DDE9084500196941D9
:1008A000BDE8F04DA2E70000064C074D06E0E06809
:1008B00040F0010394E8070098471034AC42F6D3A7
:1008C000FFF73AFC6421000884210008202A04DB99
:1008D000203A21FA02F00021704721FA02F3D040B9
:1008E000C2F1200291400843194670472DE9F34FA9
:1008F00085B04FF0000A002004900390DDE9050167
:10090000FFF796FC029052E0AAF16400FFF793FE15
:1009100080460022294BFFF7A8FD06460022284BFF
:10092000FFF715FE0446FFF7D7FE0490049880F009
:10093000004B5846FFF7BDFECDE9000101F084FBF6
:10094000064600221F4BFFF7E9FC044622460B46F1
:1009500000201C49FFF7FBFD8046FFF7BDFE03901A
:10096000DDE90201FFF76AFC04460699FFF70EFC79
:10097000154941F82A00154800680921B0FBF1F734
:100980003846FFF753FE06460F4850F82A10304607
:10099000FFF786FC05464FF07E51FFF749FC044601
:1009A000FFF773FE0A4921F81A000AF1010ABAF1A9
:1009B000C80FA9DB07B0BDE8F08F000000001040B1
:1009C000000059400000F03F2401002000000020FA
:1009D0004404002008B50121102000F053FC01213F
:1009E000102000F04FFC0121042000F04BFC0121FD
:1009F000102000F047FC0220ADF8000010208DF818
:100A0000030003208DF8020069462E4800F0F0F93B
:100A10000820ADF8000010208DF8030003208DF8A9
:100A200002006946274800F0E3F90120ADF8000014
:100A300010208DF8030003208DF80200694622483B
:100A400000F0D6F90420ADF8000010208DF8030066
:100A500003208DF8020069461A4800F0C9F91020F9
:100A6000ADF800008DF8030003208DF80200694600
:100A7000154800F0BDF92020ADF8000010208DF8D9
:100A8000030003208DF8020069460F4800F0B0F91A
:100A900002210C4800F039FA08210A4800F033FA24
:100AA0000121094800F031FA0421064800F02BFA30
:100AB0001021054800F029FA2021034800F023FA0C
:100AC00008BD000000100140000801407FB5054648
:100AD0000C467020ADF800000020ADF802000220A6
:100AE000ADF8080069462846A0477FBD10B5042030
:100AF00000F0F0F858B10A2001F080FA04480068CC
:100B000010B90B2003490870042000F0DDF810BD77
:100B1000080123423800002010B5082000F0DAF860
:100B200058B10A2001F06AFA0448006810B90A2096
:100B300003490870082000F0C7F810BD0C012342DB
:100B40003800002010B5102000F0C4F888B10A2049
:100B500001F054FA0748006840B907480068C043EC
:100B60000649C1F89401012005490870102000F0E1
:100B7000ABF810BD10012342948121420080214234
:100B80003800002010B50A2001F038FA202000F0CB
:100B9000A1F870B12848006840B9052027490870BD
:100BA00027480068C0432749C1F89401202000F07D
:100BB0008BF8402000F08EF878B11F48001D0068C7
:100BC00040B906201D4908701D480068C0431D49F2
:100BD000C1F89401402000F077F84FF4007000F065
:100BE00079F850B114481030006810B90920134941
:100BF00008704FF4007000F067F8802000F06AF889
:100C000048B10D480830006828B907200B49087022
:100C1000802000F059F84FF4807000F05BF848B184
:100C200005480C30006828B90820044908704001C4
:100C300000F04AF810BD00001401234238000020E3
:100C4000948121420080214210B500F061F9092110
:100C5000042000F0ADF80821042000F0A9F80721D5
:100C6000042000F0A5F80621042000F0A1F80521D9
:100C7000042000F09DF80421084600F099F80321B3
:100C8000042000F095F80221042000F091F800F013
:100C900065FA00F072FA00F07FFA00F08CFA00F0CA
:100CA00001F810BD1CB54FF47F70009000208DF846
:100CB00004000C208DF8050001208DF80600684620
:100CC00000F01CF81CBD00000149086070470000DE
:100CD00014040140014600200022074B1B6803EA70
:100CE0000102054B14331B680B4013B10AB10120FC
:100CF00000E000207047000000040140002123496B
:100D00008279002A3AD00A46126803689A430B4651
:100D10001A600A1D126803689A430B1D1A60027953
:100D200011440A6803681A430A60184A08321268B4
:100D300003689A43154B08331A601A1D126803683A
:100D40009A43124B0C331A604279102A0ED11A1FA3
:100D5000126803681A430D4B08331A601A1D126893
:100D600003681A43094B0C331A600DE007494279B6
:100D700011440A6803681A430A6005E002791144C5
:100D80000A6803689A430A60704700000004014043
:100D90007FB505460C467020ADF800000120ADF887
:100DA00002000220ADF8080069462846A0477FBD32
:100DB00030B500228B071C0F0F2303FA04F20B4BF4
:100DC0008C1053F824309343084C8D1044F8253090
:100DD00023468C1053F824308C07240F00FA04F4B7
:100DE0002343024C8D1044F8253030BD08000140EB
:100DF0002DE9F041024600250026002000230024B2
:100E0000002791F803C00CF00F0591F803C00CF017
:100E1000100CBCF1000F03D091F802C04CEA05059C
:100E200091F800C0BCF1000F31D0146800202BE015
:100E30004FF0010C0CFA00F3B1F800C00CEA030605
:100E40009E4220D183004FF00F0C0CFA03F7BC43F5
:100E500005FA03FC4CEA040491F803C0BCF1280F26
:100E600006D14FF0010C0CFA00FCC2F814C00AE0E5
:100E700091F803C0BCF1480F05D14FF0010C0CFAFA
:100E800000FCC2F810C0401C0828D1D31460B1F88F
:100E900000C0BCF1FF0F34DD546800202EE000F1EB
:100EA000080C4FF0010808FA0CF3B1F800C00CEA86
:100EB00003069E4221D183004FF00F0C0CFA03F77A
:100EC000BC4305FA03FC4CEA040491F803C0BCF1EE
:100ED000280F05D100F1080C08FA0CF8C2F81480AC
:100EE00091F803C0BCF1480F07D100F1080C4FF096
:100EF000010808FA0CF8C2F81080401C0828CED36C
:100F00005460BDE8F08141617047016170470000A5
:100F100008B50121412000F0B5F94FF47F70ADF81C
:100F2000000048208DF8030003208DF80200694678
:100F30000148FFF75DFF08BD0018014008B5012119
:100F4000082000F09FF92020ADF8000010208DF857
:100F5000030003208DF8020069460248FFF748FFAE
:100F600008BD0000000C01400FB410B5142202A906
:100F70003C48FFF7F9F83B48407C062822D1394825
:100F8000007820B902213848FFF7BFFF07E0354855
:100F90000078012803D102213348FFF7B4FF31481C
:100FA000808881B24FF0804000F0CFFD2D48B0F92D
:100FB000044004EBD470C0F34F014FF0804000F0C8
:100FC000C6FD4CE02748407C072822D12548007800
:100FD00020B901212548FFF798FF07E02148007854
:100FE000012803D101212148FFF78DFF1D4880888A
:100FF00081B24FF0804000F0A8FD1A48B0F90440DB
:1010000004EBD470C0F34F014FF0804000F0A1FD1D
:1010100025E01448407C082821D11248007820B9E6
:1010200010211248FFF771FF07E00E4800780128F1
:1010300003D110210D48FFF766FF0A48808881B26E
:101040004FF0804000F081FD0648B0F9044004EB09
:10105000D470C0F34F014FF0804000F07CFD10BC15
:101060005DF814FB10010020001001400008014051
:101070002DE9F04F87B004460D4616461F468DF801
:10108000197031462846FFF731FC002C04DA0120A4
:101090008DF80800644202E000208DF8080020B2BC
:1010A000ADF80A00012C1FD10120059028480068E6
:1010B0000921B0FBF1FB5846FFF7B8FA82463146EA
:1010C000FFF7EEF881464FF07E51FFF7B1F880460A
:1010D000FFF7C2FA00B2ADF80C0004208DF818003A
:1010E00001201C49087026E02CB3B4F5C87F12DC3F
:1010F0001948008800B2ADF80C00204604EBD0710E
:10110000491005910598049003208DF818000120DE
:10111000104908700FE01048008800B2ADF80C00CC
:10112000C8200590A4F1C800049003208DF8180091
:101130000120084908700698009002A80FC8FFF720
:1011400013FF0121880700F0D5FB07B0BDE8F08F41
:10115000000000203C0000204404002008B50820C6
:101160008DF8000001208DF801008DF802008DF847
:101170000300684600F034F808BD08B509208DF872
:10118000000001208DF801008DF802008DF80300A9
:10119000684600F025F808BD08B50A208DF8000063
:1011A00001208DF801008DF802008DF803006846DB
:1011B00000F016F808BD08B517208DF800000120D2
:1011C0008DF801008DF802008DF80300684600F0EC
:1011D00007F808BD10B54FF4A06000F039F810BD55
:1011E00070B5002100230F22C47804B3154C246885
:1011F00004F4E064C4F5E064210AC1F10403CA40C8
:10120000447804FA03F184781440214309010E4C18
:101210000678A155047804F01F050124AC40057838
:101220006D11AD0005F1E025C5F8004109E0047835
:1012300004F01F050124AC40044D0678761145F8F2
:10124000264070BD0CED00E000E400E080E100E02D
:1012500002490143024A1160704700000000FA058C
:101260000CED00E029B1064AD2690243044BDA6171
:1012700004E0034AD2698243014BDA6170470000FF
:101280000010024029B1064A92690243044B9A6158
:1012900004E0034A92698243014B9A61704700005F
:1012A0000010024030B500210022002400232D4D03
:1012B0006D6805F00C0121B1042905D0082923D15E
:1012C00005E0294D056022E0274D05601FE0254D12
:1012D0006D6805F47012234D6D6805F480340225A5
:1012E00005EB92421CB9214D554305600BE01D4DA5
:1012F0006D6805F400351DB11C4D5543056002E0D5
:10130000194D5543056002E0174D056000BF00BF51
:10131000144D6D6805F0F0010909154D6B5C056809
:10132000DD4045600F4D6D6805F4E061090A104D20
:101330006B5C4568DD4085600A4D6D6805F4605161
:10134000C90A0B4D6B5C4568DD40C560054D6D6895
:1013500005F44041890B074D6B5CC568B5FBF3F59F
:10136000056130BD0010024000127A0000093D0006
:10137000140000202400002010B500F001F810BD7A
:101380000CB50020019000903348006840F4803094
:101390003149086000BF3048006800F40030009018
:1013A0000198401C0190009818B90198B0F5A06F01
:1013B000F1D12948006800F4003010B101200090FC
:1013C00001E0002000900098012843D123480068E4
:1013D00040F01000214908600846006820F0030032
:1013E00008600846006840F0020008601A4840683B
:1013F000194948600846406848600846406840F41B
:10140000806048600846406820F47C1048600846C8
:10141000406840F4E81048600846006840F080707A
:10142000086000BF0C48006800F000700028F9D088
:101430000948406820F003000749486008464068B2
:1014400040F00200486000BF0348406800F00C0014
:101450000828F9D10CBD0000001002400020024015
:1014600010B52A48007801284FD10020274908707C
:1014700027A000F0D7FC28494FF08040FFF788FCF8
:101480000623264A26494FF4FA50FFF7F1FD00BF24
:10149000244800780028FBD123A000F0C3FC1E499B
:1014A0004FF08040FFF712FB22494FF08040FFF7DA
:1014B0006FFC0723194A1A491F48FFF7D9FD00BFDF
:1014C000184800780028FBD11CA000F0ABFC19499B
:1014D0004FF08040FFF7FAFA1B494FF08040FFF7CA
:1014E00057FC08230D4A0E494FF44870FFF7C0FD22
:1014F00000BF0C4800780028FBD114A000F092FC3B
:1015000011494FF08040FFF7E1FA10BD380000208C
:1015100053746172740D0A004119000800004844B8
:101520000000C8453C00002066696E6973683A583F
:101530000D0A0000011A000880F3FFFF66696E695A
:1015400073683A5A0D0A0000B51A000866696E6998
:1015500073683A54500D0A0001E0FFF781FFFCE781
:1015600010B500F029FDFFF735FE4FF4165000F0DE
:10157000A9FDFFF7E3FCFFF767FBFFF72BFA082154
:1015800042F20F7000F044F910BD042808D14FF06A
:10159000E021096941F004014FF0E022116107E008
:1015A0004FF0E021096921F004014FF0E0221161C0
:1015B0007047000010B51348006840F00100114961
:1015C000086008464068104908400E4948600846CF
:1015D00000680E4908400B4908600846006820F47E
:1015E000802008600846406820F4FE0048604FF400
:1015F0001F008860FFF7C0FE4FF0006004490860DC
:1016000010BD0000001002400000FFF8FFFFF6FED2
:1016100008ED00E010B50121880700F077F90028F7
:101620006FD00121880700F062F97348007C02281E
:1016300006D0032814D004287AD0052877D152E0A8
:1016400000206E49088000214FF0804000F052F9E0
:1016500008216B48FFF757FC00206A49087093E0A7
:1016600066480088401C654908806348007828B9AE
:1016700065480068401C6449086004E062480068EE
:10168000401E614908605C48C0685C49098888421E
:101690000ADD5E485949098830F8110000B2564900
:1016A0008880032008741DE05348806853490988E6
:1016B00088420BD851480088401E544931F8100028
:1016C00000B24D498880042008740BE04B48008824
:1016D000C82807DB4D48B0F88E0100B24649888023
:1016E0000520087450E045480088401C43490880A4
:1016F0004148007830B944480068401C42490860BD
:1017000005E078E040480068401E3F4908603A48DC
:1017100080683A490988884207D83C48B0F88E0169
:1017200000B235498880042008742DE000E02AE0EA
:1017300032480088401C314908802F48007828B979
:1017400031480068401C3049086004E02E480068B9
:10175000401E2D4908602848B0F902002749098831
:1017600088420CDD2448B0F9020024490988401A57
:10177000264931F8100000B21F49888002E002209B
:101780001D49087400E000BF00BF1B48808881B27B
:101790004FF0804000F0D9F91748407C06280BD163
:1017A0001548B0F9044004EBD470C0F34F014FF07A
:1017B000804000F0CCF91EE00F48407C07280BD198
:1017C0000D48B0F9044004EBD470C0F34F014FF062
:1017D000804000F0BEF90EE00748407C08280AD19E
:1017E0000548B0F9044004EBD470C0F34F014FF04A
:1017F000804000F0B0F910BD10010020440000202E
:10180000001001403C000020400000204404002063
:1018100030B585B005460C4601210520FFF732FDA5
:1018200001210846FFF71EFD0E20ADF8100018201C
:101830008DF8130003208DF8120004A92648FFF745
:10184000D7FA26494FF08040FFF740F924494FF07E
:101850008040FFF73BF923494FF08040FFF736F90E
:101860000821C80600F0BEF80821C80600F018F9E3
:101870000821C80600F05CF90121880700F034F85F
:1018800001221146900700F052F84FF4A060FFF7D4
:10189000DFFC1C208DF80C0002208DF80D008DF867
:1018A0000E0001208DF80F0003A8FFF799FCADF89A
:1018B0000450ADF800400020ADF80600ADF802007D
:1018C00069464FF0804000F049F900214FF0804018
:1018D00000F010F805B030BD0008014041190008C3
:1018E000011A0008B51A0008CA4302827047CA43A9
:1018F0000282704721B1028842F00102028004E0B6
:1019000002884FF6FE731A400280704730B50246D7
:10191000002000230024158A05EA0103958905EAC1
:10192000010413B10CB1012000E0002030BD1AB158
:1019300083890B43838102E083898B4383817047D2
:1019400070B5002400220023058C4FF6EF76354059
:101950000584028C8388048B48F6FF752C404FF673
:10196000FF452C400D884FF6FF7606EA05252C43EF
:101970004FF6DF752A400D8906EA05152A434D8882
:1019800006EA05152A43154DA84202D0144DA84277
:101990001DD14FF67F752A404D894FF6FF7606EA36
:1019A00005152A434FF6BF752A408D8806EA0515AE
:1019B0002A434FF6FF352B404FF2FF752B408D89A0
:1019C00006EA85052B43CD8906EA85052B438380EE
:1019D0000483CD880587028470BD0000002C01407F
:1019E000003401400A460021018B4FF2FF73194079
:1019F0004FF6FF7303EA0223194301837047000087
:101A000070B5002400220023058C4FF6FF66354098
:101A10000584028C8388848B4FF68F752C404FF69B
:101A2000FC752C400D882C434FF6FF552A400D893C
:101A30004FF6FF7606EA05252A434D8806EA052576
:101A40002A43154DA84202D0144DA8421DD14FF291
:101A5000FF752A404D894FF6FF7606EA05252A4391
:101A60004FF6FF352A408D8806EA05252A434EF6B3
:101A7000FF752B404DF6FF752B408D8906EA051545
:101A80002B43CD8906EA05152B4383808483CD88BB
:101A90008587028470BD0000002C014000340140A5
:101AA0000A460021818B4FF6F77319401143818359
:101AB0007047000070B5002200230024058C4EF60C
:101AC000FF7635400584038C8488828B48F6FF7549
:101AD0002A404FF6FF452A400D884FF6FF7606EA6A
:101AE00005252A434DF6FF752B400D8906EA05357D
:101AF0002B434D8806EA05352B430B4DA84202D0F7
:101B00000A4DA84208D14BF6FF752C408D894FF63F
:101B1000FF7606EA85152C4384808283CD88A0F861
:101B20004050038470BD0000002C0140003401408F
:101B30000A460021818B4FF2FF7319404FF6FF7365
:101B400003EA022319438183704781857047018727
:101B5000704781877047A0F84010704700220288C4
:101B60001D4B98420ED01D4B98420BD0B0F1804FC8
:101B700008D01B4B984205D01A4B984202D01A4B02
:101B8000984204D14FF68F731A404B881A43174B73
:101B9000984207D0164B984204D04FF6FF431A40A4
:101BA000CB881A4302808B8883850B8803850A4B78
:101BB00098420BD0094B984208D00E4B984205D062
:101BC0000D4B984202D00D4B984201D10B7A0386FF
:101BD0000123838270470000002C01400034014043
:101BE0000004004000080040000C004000100040CD
:101BF0000014004000400140004401400048014002
:101C000010B5002440F225511C4800F049F810B3EB
:101C10001A4800F001F9C4B21948008800F40040E5
:101C2000C8B91748008800F4804060B10A2C03D07E
:101C300000201349088020E01148008840F400404B
:101C40000F49088019E00D2C06D10D48008840F49A
:101C500080400B49088010E009480088C0F30D005F
:101C600008490C5406480088401C0549088008466D
:101C70000088C72801DD0020088010BD0038014021
:101C8000300000204800002021B1828942F4005237
:101C9000828104E082894DF6FF731A408281704789
:101CA00070B50246002400230025002040F66A1685
:101CB000B14200D100BFC1F3421501F01F0301265C
:101CC00006FA03F3012D02D19689334006E0022D76
:101CD00002D1168A334001E0968A33400C12012665
:101CE00006FA04F41688344013B10CB1012000E068
:101CF000002070BDF0B5034600240026002500201A
:101D000040F66A17B94200D100BF1846C1F3421429
:101D100001F01F06012707FA06F5012C01D10C304E
:101D200004E0022C01D1103000E014301AB1076831
:101D30002F43076002E00768AF430760F0BD000073
:101D40002DE9F04786B005460E460024A24600BFA6
:101D5000A1460027B08900B100BF2F462C8A4CF65F
:101D6000FF700440F08804432C82AC894EF6F310D7
:101D70000440B08831890843718908430443AC8129
:101D8000AC8A4FF6FF400440B0890443AC8201A8FE
:101D9000FFF788FA1F48874202D1DDF810A001E062
:101DA000DDF80CA0A88900F4004040B10AEBCA009D
:101DB00000EB0A1031684900B0FBF1F807E00AEBCC
:101DC000CA0000EB0A1031688900B0FBF1F864200A
:101DD000B8FBF0F004012009642101FB1089A889F7
:101DE00000F4004040B1322000EBC900B0FBF1F03C
:101DF00000F00700044308E0322000EB09106421E2
:101E0000B0FBF1F000F00F0004432C8106B0BDE8F8
:101E1000F08700000038014001468888C0F30800C0
:101E2000704700000FB4054B10B503A9044A02988F
:101E300000F018F810BC5DF814FB000099200008B1
:101E40002C00002002E008C8121F08C1002AFAD1A5
:101E500070477047002001E001C1121F002AFBD12A
:101E6000704700002DE9FF4F89B09B4604460025CE
:101E700006E025280BD05A460B999047641C6D1C30
:101E800020780028F5D10DB02846BDE8F08F002756
:101E9000B8460122474900E0074314F8013F203BC0
:101EA00002FA03F00842F7D120782E2819D114F84D
:101EB000010F47F004072A280ED06FF02F02207878
:101EC000A0F1300109290CD808EB880102EB41018F
:101ED00000EB0108641CF2E70A98641C50F8048BBC
:101EE0000A9020780028CED0642808D0692806D02F
:101EF00075281ED05A460B9990476D1C58E00A99D8
:101F00004FF00A0901C90A91002802DA40422D2146
:101F100002E0390504D52B218DF82010012103E0C2
:101F2000F90704D02021F7E78A4608AE0DE000212A
:101F3000FAE70A994FF00A0901C90A91F7E74946F9
:101F4000FEF7E6FB303106F8011D0028F7D1ADEBB6
:101F5000060000F12009780701D44FF00108C845B8
:101F600002DDA8EB090000E000208046002706E023
:101F700008A85A46C05D0B9990476D1C7F1C5745B9
:101F8000F6DB04E030205A460B9990476D1CB8F1FF
:101F90000001A8F10108F5DC05E016F8010B5A462E
:101FA0000B9990476D1CB9F10001A9F10109F4DC0E
:101FB000641C65E70928010010B56FF00400FFF705
:101FC000E4FA0A4800680A49B0FBF1F009490870D0
:101FD0000846007800EB4001C1EBC0104FF6FF71DE
:101FE00001EAC0000449088010BD00000000002084
:101FF00000127A00280000202A0000200146114A21
:1020000012884A434FF0E0235A6100229A611A462F
:10201000126942F001021A6100BF4FF0E02210691C
:1020200000F001021AB100F48032002AF5D04FF01E
:10203000E022126922F001024FF0E0231A6100222F
:102040009A6170472A0000202DE9F04104460D46B0
:10205000002600220E4B20462946FEF778FA074656
:1020600000220C4BFEF75AF904460D4609E02246C1
:102070002B4620462946FEF7F8F904460D46701C0B
:1020800086B2082EF3DB20462946BDE8F081000029
:10209000000070400000F03F00BF054A128802F0C7
:1020A0004002002AF9D0C2B2014B1B1D1A807047B2
:1020B0000038014010B5FFF753FAFFF74DFA002042
:1020C00010BD000010B586B00446012144F20400A2
:1020D000FFF7D8F84FF40070ADF8140003208DF826
:1020E000160018208DF8170005A91C48FEF780FE81
:1020F0004FF48060ADF8140004208DF8170005A996
:102100001648FEF775FE25208DF8000003208DF897
:1021100001008DF8020001208DF803006846FFF7EA
:102120005FF801940020ADF80800ADF80A00ADF8A2
:102130000C00ADF810000C20ADF80E0001A9084805
:10214000FFF7FEFD012240F225510548FFF7D2FDC1
:1021500001210348FFF798FD06B010BD00080140BB
:1021600000380140842100080000002048000000E1
:10217000441E0008CC2100084800002090090000FF
:10218000541E000800A24A040000000000000000E5
:10219000010203040607080900000000010203040D
:1021A00001020304060708090204060800000000F3
:1021B000000000000000000000000000000000001F
:0C21C00000000000000000000000000013
:0400000508000131BD
:00000001FF
