:020000040800F2
:10000000980E0020450100084D0100084F0100082E
:1000100051010008530100085501000800000000CC
:100020000000000000000000000000005701000870
:1000300059010008000000005B0100085D01000894
:100040005F0100085F0100085F0100085F01000810
:100050005F0100085F0100085F0100085F01000800
:1000600081030008C5030008010400085F010008BF
:100070005F0100085F0100085F0100085F010008E0
:100080005F0100085F0100085F0100085F010008D0
:100090005F0100085F0100085F01000841040008DB
:1000A0005F0100085F0100085F0100085F010008B0
:1000B000910D0008FD0E00083D1000085F010008CA
:1000C0005F0100085F0100085F0100085F01000890
:1000D0005F010008F91400085F0100085F010008D3
:1000E0005F0100085F0100085F0100085F01000870
:1000F0005F0100085F0100085F0100085F01000860
:100100005F0100085F0100085F0100085F0100084F
:100110005F0100085F0100085F0100085F0100083F
:100120005F0100085F0100085F0100085F0100082F
:10013000DFF80CD000F042F800480047C119000871
:10014000980E00200648804706480047FEE7FEE775
:10015000FEE7FEE7FEE7FEE7FEE7FEE7FEE7FEE777
:10016000310D00083101000820F00040C10DC0F33E
:10017000160040F400007F2901DA0020704796291C
:1001800003DCC1F19601C84070479639884070473A
:1001900030B50B46014600202022012409E021FA57
:1001A00002F59D4205D303FA02F5491B04FA02F554
:1001B0002844151EA2F10102F1DC30BD064C074DAA
:1001C00006E0E06840F0010394E807009847103427
:1001D000AC42F6D3FFF7B0FFB81A0008D81A0008EF
:1001E00008B50121102000F081FC0121102000F051
:1001F0007DFC0121042000F079FC0121102000F099
:1002000075FC0220ADF8000010208DF803000320DB
:100210008DF8020069464F4800F04CFA0820ADF80E
:10022000000010208DF8030003208DF802006946BD
:10023000484800F03FFA0120ADF8000010208DF88A
:10024000030003208DF802006946434800F032FAAB
:100250000420ADF8000010208DF8030003208DF875
:10026000020069463B4800F025FA1020ADF8000076
:100270008DF8030003208DF802006946364800F02F
:1002800019FA2020ADF8000010208DF8030003209B
:100290008DF802006946304800F00CFA1020ADF8E5
:1002A00000008DF8030003208DF8020069462948FC
:1002B00000F000FA0120ADF8000010208DF80300D6
:1002C00003208DF802006946244800F0F3F920204D
:1002D000ADF8000010208DF8030003208DF8020017
:1002E00069461E4800F0E6F94020ADF800001020F5
:1002F0008DF8030003208DF802006946174800F0CE
:10030000D9F90221134800F062FA0821114800F0DF
:100310005CFA0121104800F05AFA04210D4800F05F
:1003200054FA10210C4800F052FA20210A4800F03B
:100330004CFA1021074800F04AFA0121074800F062
:1003400044FA2021054800F042FA4021034800F019
:100350003CFA08BD0010014000080140000C0140BB
:100360007FB505460C467020ADF800000020ADF8C2
:1003700002000220ADF8080069462846A0477FBD6C
:1003800010B5042000F018F988B1042000F00EF92F
:100390000A2001F0E1FA0648006840B90220054948
:1003A000087408200449087004A001F0B7F910BDD2
:1003B0000801234220010020380000205A5F5550D8
:1003C0000D0A000010B5082000F0F6F878B10820FA
:1003D00000F0ECF80A2001F0BFFA0548006830B9D7
:1003E0000A200449087004490448FFF7B9FF10BD0A
:1003F0000C0123423800002089110008000400404D
:1004000010B5102000F0D8F888B1102000F0CEF818
:100410000A2001F0A1FA0648006840B905480068C2
:10042000C0430549C1F8940101200449087010BD7A
:100430001001234294812142008021423800002093
:1004400010B50A2001F088FA202000F0B5F840200D
:1004500000F0B2F878B1402000F0A8F82048006819
:1004600048B906201F4908701F492048FFF778FF48
:100470001FA001F053F9802000F09EF878B1802091
:1004800000F094F81648001D006840B902201B498E
:10049000087407201349087019A001F03FF94FF4C0
:1004A000807000F089F818B14FF4807000F07EF889
:1004B0004FF4007000F080F880B14FF4007000F04D
:1004C00075F807480C30006840B9202000F06EF83D
:1004D0000520044908700CA001F020F910BD0000AF
:1004E000180123423800002035120008000800409F
:1004F000455854495F59320D0A0000002001002080
:100500004C580D0A000000004B310D0A000000009D
:1005100010B500F05FF90921042000F0ABF80821C4
:10052000042000F0A7F80721042000F0A3F806211A
:10053000042000F09FF80521042000F09BF804211E
:10054000084600F097F80321042000F093F80221F8
:10055000042000F08FF800F035FA00F042FA00F0C5
:100560004FFA00F05CFA00F001F810BD1CB54FF432
:100570006F70009000208DF804000C208DF80500AD
:1005800001208DF80600684600F02AF8402000900F
:1005900000208DF8040010208DF8050001208DF852
:1005A0000600684600F01CF81CBD00000149086008
:1005B0007047000014040140014600200022074B50
:1005C0001B6803EA0102054B14331B680B4013B18F
:1005D0000AB1012000E00020704700000004014043
:1005E000002123498279002A3AD00A46126803681A
:1005F0009A430B461A600A1D126803689A430B1D42
:100600001A60027911440A6803681A430A60184A9A
:100610000832126803689A43154B08331A601A1D92
:10062000126803689A43124B0C331A604279102AFD
:100630000ED11A1F126803681A430D4B08331A6053
:100640001A1D126803681A43094B0C331A600DE037
:100650000749427911440A6803681A430A6005E0B1
:10066000027911440A6803689A430A6070470000DF
:100670000004014030B500228B071C0F0F2303FA42
:1006800004F20B4B8C1053F824309343084C8D101C
:1006900044F8253023468C1053F824308C07240F5F
:1006A00000FA04F42343024C8D1044F8253030BD89
:1006B000080001402DE9F0410246002500260020F7
:1006C00000230024002791F803C00CF00F0591F8D7
:1006D00003C00CF0100CBCF1000F03D091F802C065
:1006E0004CEA050591F800C0BCF1000F31D0146848
:1006F00000202BE04FF0010C0CFA00F3B1F800C021
:100700000CEA03069E4220D183004FF00F0C0CFA36
:1007100003F7BC4305FA03FC4CEA040491F803C058
:10072000BCF1280F06D14FF0010C0CFA00FCC2F806
:1007300014C00AE091F803C0BCF1480F05D14FF096
:10074000010C0CFA00FCC2F810C0401C0828D1D3E0
:100750001460B1F800C0BCF1FF0F34DD5468002014
:100760002EE000F1080C4FF0010808FA0CF3B1F884
:1007700000C00CEA03069E4221D183004FF00F0C0B
:100780000CFA03F7BC4305FA03FC4CEA040491F8A5
:1007900003C0BCF1280F05D100F1080C08FA0CF8D1
:1007A000C2F8148091F803C0BCF1480F07D100F1E2
:1007B000080C4FF0010808FA0CF8C2F81080401C31
:1007C0000828CED35460BDE8F081416170470161D3
:1007D0007047000008B50121412000F087F94FF46F
:1007E0007F70ADF8000048208DF8030003208DF8DD
:1007F000020069460148FFF75DFF08BD001801408F
:1008000008B50121082000F071F92020ADF80000A2
:1008100010208DF8030003208DF80200694602487D
:10082000FFF748FF08BD0000000C014070B5054609
:100830000C46207C022806D003282AD0042873D036
:10084000052872D163E00020564908805649087097
:100850000021284600F072FC5448407C062805D14F
:1008600053494FF08040FFF77BFD11E04F48407C3B
:10087000072805D14F494FF08040FFF771FD07E091
:100880004A48407C082803D14B49C006FFF768FD61
:1008900085E044480088401C42490880207828B9F7
:1008A00046480068401C4549086004E04348006829
:1008B000401E424908603B490988E068884209DDDA
:1008C0003F483849098830F8110000B2A080032061
:1008D00020741BE033490988A06888420AD831484F
:1008E0000088401E364931F8100000B2A080042074
:1008F00020740BE02B480088B0F5C87F06DB304839
:10090000B0F81E0300B2A0800520207447E02548FF
:100910000088401C23490880207838B9274800689F
:10092000401C2649086006E012E037E023480068D2
:10093000401E224908601B490988A068884206D8E1
:100940001F48B0F81E0300B2A0800420207426E0E7
:1009500014480088401C13490880207828B917489B
:100960000068401C1549086004E014480068401EF7
:1009700012490860B4F902000A49098888420ADD70
:10098000B4F9020007490988401A0D4931F81000EE
:1009900000B2A08001E00220207400E000BF00BF90
:1009A00070BD0000540000203C0000202001002009
:1009B00035120008F5120008A913000840000020B5
:1009C0007407002008B508208DF8000001208DF87C
:1009D00001008DF802008DF80300684600F034F83D
:1009E00008BD08B509208DF8000001208DF8010030
:1009F0008DF802008DF80300684600F025F808BD68
:100A000008B50A208DF8000001208DF801008DF84E
:100A100002008DF80300684600F016F808BD08B51E
:100A200017208DF8000001208DF801008DF80200DC
:100A30008DF80300684600F007F808BD10B54FF4C4
:100A4000A06000F039F810BD70B5002100230F221E
:100A5000C47804B3154C246804F4E064C4F5E0647D
:100A6000210AC1F10403CA40447804FA03F18478EE
:100A70001440214309010E4C0678A155047804F076
:100A80001F050124AC4005786D11AD0005F1E0258E
:100A9000C5F8004109E0047804F01F050124AC40CA
:100AA000044D0678761145F8264070BD0CED00E047
:100AB00000E400E080E100E002490143024A1160E5
:100AC000704700000000FA050CED00E029B1064A6D
:100AD000D2690243044BDA6104E0034AD2698243DB
:100AE000014BDA61704700000010024029B1064A4C
:100AF00092690243044B9A6104E0034A926982437B
:100B0000014B9A61704700000010024030B500218F
:100B10000022002400232D4D6D6805F00C0121B149
:100B2000042905D0082923D105E0294D056022E0DC
:100B3000274D05601FE0254D6D6805F47012234DAB
:100B40006D6805F48034022505EB92421CB9214DF5
:100B5000554305600BE01D4D6D6805F400351DB172
:100B60001C4D5543056002E0194D5543056002E0F8
:100B7000174D056000BF00BF144D6D6805F0F00112
:100B80000909154D6B5C0568DD4045600F4D6D68CA
:100B900005F4E061090A104D6B5C4568DD40856035
:100BA0000A4D6D6805F46051C90A0B4D6B5C4568D0
:100BB000DD40C560054D6D6805F44041890B074D6A
:100BC0006B5CC568B5FBF3F5056130BD00100240F4
:100BD00000127A0000093D001400002024000020CB
:100BE00010B500F001F810BD0CB500200190009088
:100BF0003348006840F480303149086000BF304815
:100C0000006800F4003000900198401C01900098AA
:100C100018B90198B0F5A06FF1D12948006800F427
:100C2000003010B10120009001E0002000900098F9
:100C3000012843D12348006840F010002149086092
:100C40000846006820F0030008600846006840F08D
:100C5000020008601A484068194948600846406820
:100C600048600846406840F4806048600846406834
:100C700020F47C1048600846406840F4E810486062
:100C80000846006840F08070086000BF0C480068AB
:100C900000F000700028F9D00948406820F00300F7
:100CA000074948600846406840F00200486000BFBD
:100CB0000348406800F00C000828F9D10CBD000082
:100CC000001002400020024010B500F023FEFFF7A4
:100CD000B5FE4FF4165000F09FFEFFF791FDFFF7B1
:100CE00017FCFFF77DFA082142F20F7000F09AF826
:100CF000082142F20F7000F041F9082142F20F7012
:100D000000F0C0F910BD042808D14FF0E0210969B6
:100D100041F004014FF0E022116107E04FF0E021C3
:100D2000096921F004014FF0E022116170470000D1
:100D300010B51348006840F00100114908600846EA
:100D40004068104908400E494860084600680E494E
:100D500008400B4908600846006820F480200860BD
:100D60000846406820F4FE0048604FF41F00886089
:100D7000FFF736FF4FF000600449086010BD000027
:100D8000001002400000FFF8FFFFF6FE08ED00E053
:100D900010B50121880700F0DDF900283ED00121BF
:100DA000880700F0C8F91E494FF08040FFF73EFD6C
:100DB0001B48808881B24FF0804000F040FB18480B
:100DC000407C06280BD11648B0F9044004EBD470DF
:100DD000C0F34F014FF0804000F035FB1EE010489B
:100DE000407C07280BD10E48B0F9044004EBD470C6
:100DF000C0F34F014FF0804000F027FB0EE00848A1
:100E0000407C08280AD10648B0F9044004EBD470AD
:100E1000C0F34F014FF0804000F019FB10BD0000FF
:100E20002001002030B585B005460C460121052083
:100E3000FFF75CFE01210846FFF748FE0E20ADF8E3
:100E4000100018208DF8130003208DF8120004A95B
:100E50002648FFF72FFC26494FF08040FFF780FA25
:100E600024494FF08040FFF77BFA23494FF0804040
:100E7000FFF776FA0821C80600F02EFA0821C80606
:100E800000F088FA0821C80600F0CCFA0121880792
:100E900000F04EF901221146900700F06CF94FF472
:100EA000A060FFF709FE1C208DF80C0002208DF8D1
:100EB0000D008DF80E0001208DF80F0003A8FFF73C
:100EC000C3FDADF80450ADF800400020ADF80600B9
:100ED000ADF8020069464FF0804000F0BBFA0021F7
:100EE0004FF0804000F02AF905B030BD0008014005
:100EF00035120008F5120008A913000810B50121E9
:100F00001A4800F027F980B30121184800F013F9BE
:100F10001748407C092812D116480068FFF724F9C9
:100F200084B22146114800F08AFA13480068FFF79E
:100F30001BF984B221460D4800F083FA15E00C48F5
:100F4000407C0B2811D10B480068FFF70DF984B2E3
:100F50002146064800F073FA07480068FFF704F9D5
:100F600084B22146014800F06EFA10BD0004004032
:100F700020010020440000204800002030B585B04A
:100F800005460C4601210520FFF7B0FD0121022096
:100F9000FFF79CFDC020ADF8100018208DF813005D
:100FA00003208DF8120004A92048FFF783FB204995
:100FB0002048FFF7D5F920491E48FFF7D1F908214D
:100FC0001C4800F02DF908211A4800F085F901218C
:100FD000184800F0ADF801221146164800F0CBF891
:100FE0004FF4A060FFF768FD1D208DF80C00022073
:100FF0008DF80D008DF80E0001208DF80F0003A86C
:10100000FFF722FDADF80450ADF800400020ADF828
:101010000600ADF802006946064800F01BFA002100
:10102000044800F08BF805B030BD00000008014016
:1010300089110008000400403512000810B5012194
:101040000D4800F087F8A8B101210B4800F073F8B3
:101050000A480068FFF788F884B22146064800F085
:10106000EEF907480068FFF77FF884B2214602488E
:1010700000F0E9F910BD0000000800404C0000201D
:101080005000002030B585B005460C4601210920EE
:10109000FFF72CFD01210420FFF718FD8020ADF89B
:1010A000100018208DF8130003208DF8120004A9F9
:1010B0001C48FFF7FFFA1C491C48FFF751F90821AB
:1010C0001A4800F009F90121184800F031F801220E
:1010D0001146164800F04FF84FF4A060FFF7ECFC03
:1010E0001D208DF80C0002208DF80D008DF80E00EB
:1010F00001208DF80F0003A8FFF7A6FCADF80450FF
:10110000ADF800400020ADF80600ADF802006946D9
:10111000064800F09FF90021044800F00FF805B0E0
:1011200030BD0000000C01403512000800080040EE
:10113000CA4302827047CA430282704721B10288C3
:1011400042F00102028004E002884FF6FE731A406A
:101150000280704730B50246002000230024158A23
:1011600005EA0103958905EA010413B10CB10120D8
:1011700000E0002030BD1AB183890B43838102E077
:1011800083898B438381704770B50024002200233C
:10119000058C4FF6FE7635400584028C8388048BDF
:1011A0004FF68F752C40B51E2C400D882C43751EB4
:1011B0002A400D892A434D882A43144DA8420BD05A
:1011C000134DA84208D0134DA84205D0124DA84295
:1011D00002D0124DA84213D14FF6F7752A404D891F
:1011E0002A434FF6FB752A408D882A434FF6FF6548
:1011F0002B404FF6FF552B408D892B43CD892B4338
:1012000083800483CD888586028470BD002C0140D4
:1012100000340140004001400044014000480140CA
:101220000A460021018B4FF6F773194011430183E1
:101230007047000070B5002400220023058C4FF693
:10124000EF7635400584028C8388048B48F6FF7561
:101250002C404FF6FF452C400D884FF6FF7606EAEE
:1012600005252C434FF6DF752A400D8906EA051542
:101270002A434D8806EA05152A43154DA84202D097
:10128000144DA8421DD14FF67F752A404D894FF667
:10129000FF7606EA05152A434FF6BF752A408D886A
:1012A00006EA05152A434FF6FF352B404FF2FF752E
:1012B0002B408D8906EA85052B43CD8906EA8505F5
:1012C0002B4383800483CD880587028470BD000092
:1012D000002C0140003401400A460021018B4FF2EE
:1012E000FF7319404FF6FF7303EA0223194301838A
:1012F0007047000070B5002400220023058C4FF6D3
:10130000FF6635400584028C8388848B4FF68F7589
:101310002C404FF6FC752C400D882C434FF6FF55A2
:101320002A400D894FF6FF7606EA05252A434D88A7
:1013300006EA05252A43154DA84202D0144DA842BD
:101340001DD14FF2FF752A404D894FF6FF7606EA10
:1013500005252A434FF6FF352A408D8806EA0525E4
:101360002A434EF6FF752B404DF6FF752B408D89B5
:1013700006EA05152B43CD8906EA05152B43838024
:101380008483CD888587028470BD0000002C0140D5
:10139000003401400A460021818B4FF6F773194053
:1013A000114381837047000070B5002200230024A0
:1013B000058C4EF6FF7635400584038C8488828B3D
:1013C00048F6FF752A404FF6FF452A400D884FF634
:1013D000FF7606EA05252A434DF6FF752B400D8959
:1013E00006EA05352B434D8806EA05352B430B4DA0
:1013F000A84202D00A4DA84208D14BF6FF752C40F6
:101400008D894FF6FF7606EA85152C43848082830A
:10141000CD88A0F84050038470BD0000002C01402E
:10142000003401400A460021818B4FF2FF731940BE
:101430004FF6FF7303EA02231943818370478185C6
:101440007047818670470187704781877047A0F891
:1014500040107047002202881D4B98420ED01D4B51
:1014600098420BD0B0F1804F08D01B4B984205D06A
:101470001A4B984202D01A4B984204D14FF68F7300
:101480001A404B881A43174B984207D0164B984284
:1014900004D04FF6FF431A40CB881A4302808B8852
:1014A00083850B8803850A4B98420BD0094B9842E1
:1014B00008D00E4B984205D00D4B984202D00D4BF0
:1014C000984201D10B7A0386012383827047000082
:1014D000002C01400034014000040040000800409E
:1014E000000C00400010004000140040004001408B
:1014F000004401400048014010B5002440F225514D
:101500001C4800F049F810B31A4800F001F9C4B2C1
:101510001948008800F40040C8B91748008800F452
:10152000804060B10A2C03D000201349088020E0DD
:101530001148008840F400400F49088019E00D2C44
:1015400006D10D48008840F480400B49088010E027
:1015500009480088C0F30D0008490C54064800886B
:10156000401C0549088008460088C72801DD002086
:10157000088010BD003801403000002058000020D5
:1015800021B1828942F40052828104E082894DF6C1
:10159000FF731A408281704770B502460024002311
:1015A0000025002040F66A16B14200D100BFC1F309
:1015B000421501F01F03012606FA03F3012D02D1A3
:1015C0009689334006E0022D02D1168A334001E0AD
:1015D000968A33400C12012606FA04F41688344029
:1015E00013B10CB1012000E0002070BDF0B503463E
:1015F000002400260025002040F66A17B94200D1D9
:1016000000BF1846C1F3421401F01F06012707FA74
:1016100006F5012C01D10C3004E0022C01D1103070
:1016200000E014301AB107682F43076002E0076832
:10163000AF430760F0BD00002DE9F04786B00546D6
:101640000E460024A24600BFA1460027B08900B183
:1016500000BF2F462C8A4CF6FF700440F0880443EC
:101660002C82AC894EF6F3100440B08831890843CF
:10167000718908430443AC81AC8A4FF6FF400440B3
:10168000B0890443AC8201A8FFF740FA1F488742A3
:1016900002D1DDF810A001E0DDF80CA0A88900F46B
:1016A000004040B10AEBCA0000EB0A103168490063
:1016B000B0FBF1F807E00AEBCA0000EB0A10316852
:1016C0008900B0FBF1F86420B8FBF0F004012009B8
:1016D000642101FB1089A88900F4004040B1322048
:1016E00000EBC900B0FBF1F000F00700044308E094
:1016F000322000EB09106421B0FBF1F000F00F0084
:1017000004432C8106B0BDE8F0870000003801409A
:1017100001468888C0F30800704700000FB4054BED
:1017200010B503A9044A029800F018F810BC5DF83F
:1017300014FB0000A51900082C00002002E008C8D6
:10174000121F08C1002AFAD170477047002001E03B
:1017500001C1121F002AFBD1704700002DE9FF4F85
:101760008BB09A460F460546002606E025280BD08A
:1017700052460D9990476D1C761C28780028F5D1AB
:101780000FB03046BDE8F08F0024A046012260492A
:1017900000E0044315F8013F203B02FA03F0084241
:1017A000F7D128782E2817D115F8010F44F004043A
:1017B0002A280ED06FF02F022878A0F130010929D5
:1017C0000AD808EB880102EB410100EB01086D1C0F
:1017D000F2E757F8048B6D1C287869283ED006DCA8
:1017E0000028CDD063280BD0642804D136E07328BC
:1017F00010D075284BD052460D999047761C85E045
:1018000017F8040B8DF8000000208DF80100E94660
:10181000012003E057F8049B4FF0FF3061074FF0C1
:10182000000401D40AE0641C44450DDA8442FADB6A
:1018300019F804100029F6D106E0641C8442FCDB90
:1018400019F804100029F8D1264404E019F8010B16
:1018500052460D999047641EF8D257E001CF4FF0E1
:101860000A0B002802DA40422D2102E0210504D5AE
:101870002B218DF82410012103E0E10705D0202160
:10188000F7E70DF1200908910CE00021F9E701CFFD
:101890004FF00A0BF9E75946FEF77AFC01F13002E6
:1018A00009F8012D0028F6D1ADEB090000F1200B5D
:1018B000600701D44FF00108D84502DDA8EB0B000A
:1018C00000E000208046002406E009A85246005DA2
:1018D0000D999047641C761C08988442F5DB04E05F
:1018E000302052460D999047761CB8F10001A8F1BE
:1018F0000108F5DC05E019F8010B52460D999047F7
:10190000761CBBF10001ABF1010BF4DC6D1C34E77C
:101910000928010010B56FF00400FFF7F4F90A4838
:1019200000680A49B0FBF1F00949087008460078E0
:1019300000EB4001C1EBC0104FF6FF7101EAC0009F
:101940000449088010BD00000000002000127A0049
:10195000280000202A0000200146114A12884A432C
:101960004FF0E0235A6100229A611A46126942F050
:1019700001021A6100BF4FF0E022106900F001027D
:101980001AB100F48032002AF5D04FF0E02212693B
:1019900022F001024FF0E0231A6100229A617047A1
:1019A0002A00002000BF054A128802F04002002AE7
:1019B000F9D0C2B2014B1B1D1A807047003801409C
:1019C0000024FFF781F91CE00E48008800F4004075
:1019D000B8B106E00C48015D0CA0FFF79FFE601C4B
:1019E00084B208480088C0F30D00A042F2DC084829
:1019F0000068C0430749C1F89401002001490880EC
:101A00000024E1E73000002058000020256300009A
:101A1000948121420080214210B586B00446012104
:101A200044F20400FFF762F84FF40070ADF81400C0
:101A300003208DF8160018208DF8170005A91C4802
:101A4000FEF738FE4FF48060ADF8140004208DF8E6
:101A5000170005A91648FEF72DFE25208DF8000079
:101A600003208DF801008DF8020001208DF803009D
:101A70006846FEF7E9FF01940020ADF80800ADF8D4
:101A80000A00ADF80C00ADF810000C20ADF80E0007
:101A900001A90848FFF7D0FD012240F22551054871
:101AA000FFF7A4FD01210348FFF76AFD06B010BD52
:101AB0000008014000380140D81A0008000000204A
:101AC000580000003C170008301B00085800002098
:101AD000400E00004C17000800A24A04000000005D
:101AE00000000000010203040607080900000000CE
:101AF00001020304010203040607080902040608A0
:101B000000000000000000000000000000000000D5
:101B100000000000000000000000000000000000C5
:101B200000000000000000000000000000000000B5
:0400000508000131BD
:00000001FF
