:020000040800F2
:10000000900E0020450100084D0100084F01000836
:1000100051010008530100085501000800000000CC
:100020000000000000000000000000005701000870
:1000300059010008000000005B0100085D01000894
:100040005F0100085F0100085F0100085F01000810
:100050005F0100085F0100085F0100085F01000800
:10006000590B0008910B0008CD0B00085F01000838
:100070005F0100085F0100085F0100085F010008E0
:100080005F0100085F0100085F0100085F010008D0
:100090005F0100085F0100085F0100080D0C000807
:1000A0005F0100085F0100085F0100085F010008B0
:1000B000251B0008911C00089D1D00085F01000819
:1000C0005F0100085F0100085F0100085F01000890
:1000D0005F0100085D2200085F0100085F01000861
:1000E0005F0100085F0100085F0100085F01000870
:1000F0005F0100085F0100085F0100085F01000860
:100100005F0100085F0100085F0100085F0100084F
:100110005F0100085F0100085F0100085F0100083F
:100120005F0100085F0100085F0100085F0100082F
:10013000DFF80CD000F0AAFB004800479525000826
:10014000900E00200648804706480047FEE7FEE77D
:10015000FEE7FEE7FEE7FEE7FEE7FEE7FEE7FEE777
:10016000C51A00083101000840EA01039B0703D0CB
:1001700009E008C9121F08C0042AFAD203E011F8E6
:10018000013B00F8013B521EF9D27047F0B480EAFF
:100190000102D40F4200B2EB410F02D202460846E0
:1001A00011464A0042D0C30DDDB2C1F3C752AD1AA9
:1001B000202D35DAC1F3160141F4000204B1524298
:1001C000C5F1200602FA06F12A411044B3EBD05FD4
:1001D00023D0C4B1012DA0EBC35009DCF0BC4FF01B
:1001E000004202EAC352DBB200F5000000F0C3BADD
:1001F000400000F1807000EBC350A0F1807040EA35
:10020000D170490009E0490841EAC071A0EBC35030
:1002100000F50000400800EBC350F0BC00F0A2BAAB
:100220006142012202EB4101001BF6E7F0BC70477E
:1002300081F00041AAE780F00040A7E780EA0102D0
:1002400010B502F00043400022D04A001FD0010E3A
:1002500001EB1261C0F35600C2F3560240F40000F5
:1002600042F40002A0FB022000047F39140400D0F5
:10027000401C50EA124001D44000491EC2B20C0694
:1002800004EBD010401C4008802A02D003E000207C
:1002900010BD20F00100002900DA0020184310BD35
:1002A00030B480EA010202F0004530F0004221F053
:1002B000004013D090B1C30DD40DC2F31601C0F3AA
:1002C0001600E41A41F4000140F400027D3491422A
:1002D00001D3641C00E04900002C02DA30BC00208D
:1002E00070474FF400000023914201D3891A034361
:1002F00040084FEA4101F7D151B1914202D14FF08C
:10030000004105E002D24FF0010101E06FF0010170
:1003100003EBC450284430BC00F024BA2DE9FE4F52
:10032000804681EA0300C00F0C46009021F0004196
:1003300023F00045B8EB0200A94105D24046214612
:1003400090461C460B46024623F00040104347D01F
:10035000270DC7F30A00C3F30A510290401A019017
:1003600040286BDAC3F3130040F4801B00989246D8
:1003700020B10023D2EB030A63EB0B0B0198594623
:10038000C0F14002504600F0CCF906460D465046FA
:100390005946019A00F0D4F910EB0800614100249D
:1003A00087EA115284EAE7731A4340D0009A62B395
:1003B000019A012A4FEA075215DC001B61EB02018A
:1003C0004FF0004202EA0752CDE90042001C41F51D
:1003D000801132462B4600F00BFA03B0BDE8F08FD7
:1003E00040462146F9E7001B61EB0201001C41F584
:1003F000801300185B412018A2F5001747EB03019A
:1004000040EAD570B6196D4111E06D084FEA360625
:1004100045EAC0754FEA0752001B61EB0201001C60
:1004200041F5801149084FEA300000195141324628
:100430002B4603B0BDE8F04F00F0CBB90098012285
:1004400040000023D0EB020263EBE07300982146EA
:100450004FEAE074B8EB000061EB0401E9E783F0D8
:1004600000435BE781F0004158E72DE9FE4F81EA48
:10047000030404F0004421F0004100944FF0000B0D
:1004800023F0004350EA01045ED052EA03045BD03B
:10049000C3F30A54C1F30A552C44A4F2F334019473
:1004A000A0FB0254C1F3130141F48011C3F3130301
:1004B00043F4801301FB024400FB034E840A970AB5
:1004C00044EA815447EA8357A4FB076802958D0AE2
:1004D00005FB07854FEA932C04FB0C542705029D6E
:1004E0004FEA065847EA1637B5EB08056EEB070CDE
:1004F000870E920E47EA811742EA8312A7FB020198
:10050000B6EB0B0164EB00042B0D43EA0C335E18D1
:1005100044EB1C50DA465146E7FB0201C5F31304D5
:100520004FEA0B3343EA14534FEA0432019C43EA87
:100530000603A4F10C040294009CCDE900B400F081
:1005400057F903B0BDE8F08F00200146F9E72DE927
:10055000F04D81EA030404F0004B21F000451446FD
:100560004FF0000A23F0004150EA050220D054EA7F
:1005700001021DD0C5F30A570246C5F31303C1F3A8
:100580001300C1F30A5640F4801543F48013A7EB1F
:100590000608101BD64608F2FD3873EB050002D39F
:1005A00008F1010801E092185B41B8F1000F03DA8D
:1005B00000200146BDE8F08D00204FF48011064672
:1005C00084460EE0171B73EB050705D3121B63EB84
:1005D000050306434CEA010C49084FEA3000921823
:1005E0005B4150EA0107EDD152EA030012D082EAE2
:1005F000040083EA0501084305D0101BAB4106D275
:100600000122002306E000224FF0004302E06FF0D9
:10061000010253101AEB06004CEB085110EB0A00D4
:1006200041EB0B01BDE8F04D00F0D3B8C10F80EAFB
:10063000E0700844CA079623002100F09CB8962376
:100640000022114600F097B80EB5C10F80EAE070A5
:100650000844CA07002140F233438DE80E000A46E1
:100660000B4600F0C5F803B000BD00F0004220F0DA
:100670000040C10DC0F3160040F400007F2901DAEC
:1006800000207047962903DCC1F19601C84001E0C3
:1006900096398840002AF4D04042704720F000404C
:1006A000C10DC0F3160040F400007F2901DA0020DC
:1006B0007047962903DCC1F19601C840704796390E
:1006C0008840704700F0004230F000400AD0C10D71
:1006D00001F56071C0F3160042EA0151C2084007FB
:1006E0001143704700200146704701F0004330B4C9
:1006F00021F0004150EA010206D00A0DA2F5607215
:10070000C1F31301002A02DC30BC00207047440F03
:1007100044EAC104C100E01830BC00EBC25000F054
:1007200021B8202A04DB203A00FA02F100207047A9
:100730009140C2F1200320FA03F31943904070471F
:10074000202A06DBCB17203A41FA02F043EAE07395
:1007500006E041FA02F3D040C2F120029140084382
:10076000194670470029A8BF7047401C490008BFC0
:1007700020F00100704710B4B0FA80FC00FA0CF0D1
:1007800050EA010404BF10BC704749B1CCF1200409
:1007900021FA04F411FA0CF118BF01212143084396
:1007A000A3EB0C01CB1D4FEA00614FEA102042BFC2
:1007B000002010BC704700EBC35010440029A4BFB8
:1007C00010BC7047401C490008BF20F0010010BC5D
:1007D000704710B5141E73F1000408DA401C41F193
:1007E000000192185B411A4301D120F0010010BDB5
:1007F0002DE9F04D92469B4611B1B1FA81F202E02B
:10080000B0FA80F220329046FFF78BFF04460F4685
:1008100040EA0A0041EA0B0153465A46084313D006
:10082000114653EA010019D0C8F14002504600F0C9
:100830003FF805460E46504659464246FFF771FFBF
:10084000084305D0012004E020463946BDE8F08D7C
:100850000020054346EAE0762C4337430A986305B7
:10086000E40AA0EB08000022FD0A44EA47540A30DB
:1008700002D500200146E9E7010510196941DDE9CB
:10088000084500196941BDE8F04DA2E7064C074D47
:1008900006E0E06840F0010394E807009847103450
:1008A000AC42F6D3FFF748FC442600086426000853
:1008B000202A04DB203A21FA02F00021704721FAB5
:1008C00002F3D040C2F1200291400843194670471C
:1008D0002DE9F34F85B04FF0000A002004900390FB
:1008E000DDE90501FFF7A4FC029052E0AAF1C8007F
:1008F000FFF7AAFE80460022294BFFF7B6FD064609
:100900000022284BFFF723FE0446FFF7EEFE04907B
:10091000049880F0004B5846FFF7D4FECDE9000163
:1009200001F010FE064600221F4BFFF7F7FC0446BD
:1009300022460B4600201C49FFF709FE8046FFF7C0
:10094000D4FE0390DDE90201FFF778FC0446069926
:10095000FFF71CFC154941F82A00154800680921D9
:10096000B0FBF1F73846FFF76AFE06460F4850F82D
:100970002A103046FFF794FC05464FF07E51FFF7F2
:1009800057FC0446FFF78AFE0A4921F81A000AF1CB
:10099000010ABAF5C87FA9DB07B0BDE8F08F0000F7
:1009A00000001440000069400000F03F2C010020CE
:1009B000000000206C07002008B50121102000F085
:1009C000DDFE0121102000F0D9FE0121042000F0FD
:1009D000D5FE0121102000F0D1FE0220ADF800006C
:1009E00010208DF8030003208DF8020069464F485F
:1009F00000F070FA0820ADF8000010208DF8030018
:100A000003208DF802006946484800F063FA01208F
:100A1000ADF8000010208DF8030003208DF80200CF
:100A20006946434800F056FA0420ADF80000102053
:100A30008DF8030003208DF8020069463B4800F062
:100A400049FA1020ADF800008DF8030003208DF85E
:100A500002006946364800F03DFA2020ADF800005B
:100A600010208DF8030003208DF8020069463048FD
:100A700000F030FA1020ADF800008DF803000320DC
:100A80008DF802006946294800F024FA0120ADF8EB
:100A9000000010208DF8030003208DF80200694645
:100AA000244800F017FA2020ADF8000010208DF83F
:100AB000030003208DF8020069461E4800F00AFA80
:100AC0004020ADF8000010208DF8030003208DF8C1
:100AD00002006946174800F0FDF90221134800F0B2
:100AE00086FA0821114800F080FA0121104800F030
:100AF0007EFA04210D4800F078FA10210C4800F02D
:100B000076FA20210A4800F070FA1021074800F018
:100B10006EFA0121074800F068FA2021054800F02C
:100B200066FA4021034800F060FA08BD0010014059
:100B300000080140000C01407FB505460C467020BE
:100B4000ADF800000020ADF802000220ADF808006A
:100B500069462846A0477FBD10B5042000F02CF957
:100B600070B10A2001F0BCFC0648006828B90B20CF
:100B700005490870022005490874042000F016F9A0
:100B800010BD000008012342380000201801002099
:100B900010B5082000F010F978B10A2001F0A0FC8F
:100BA0000648006830B90A2005490870054906481A
:100BB000FFF7C2FF082000F0F9F810BD0C01234236
:100BC00038000020ED1E00080004004010B5102081
:100BD00000F0F2F888B10A2001F082FC07480068B2
:100BE00040B907480068C0430649C1F89401012094
:100BF00005490870102000F0D9F810BD10012342FB
:100C000094812142008021423800002010B50A2042
:100C100001F066FC202000F0CFF880B12C4800687D
:100C200050B905202B49087040F6B83001F058FC47
:100C300029492A48FFF780FF202000F0B7F840201C
:100C400000F0BAF868B12248001D006830B90620EB
:100C50002049087022492348FFF76EFF402000F02A
:100C6000A5F84FF4007000F0A7F868B118481030EC
:100C7000006828B902201C49087409201549087029
:100C80004FF4007000F092F8802000F095F860B109
:100C9000802000F08BF80E480830006828B9022048
:100CA0001149087407200B4908704FF4807000F058
:100CB00083F860B106480C30006840B902200A4948
:100CC0000874082003490870400100F06FF810BD57
:100CD0001401234238000020ED1E000800040040EB
:100CE000991F0008000800401801002010B500F00E
:100CF00081F90921042000F0CDF80821042000F03A
:100D0000C9F80721042000F0C5F80621042000F0EE
:100D1000C1F80521042000F0BDF80421084600F0C8
:100D2000B9F80321042000F0B5F80221042000F0F6
:100D3000B1F800F059FC00F066FC00F073FC00F024
:100D400080FC00F022F810BD38B50446E0B28DF802
:100D5000000001208DF801008DF8020000208DF8C0
:100D60000300684600F082FC38BD38B50446E0B2A6
:100D70008DF8000001208DF801008DF802008DF83B
:100D80000300684600F072FC38BD1CB54FF47F705C
:100D9000009000208DF804000C208DF80500012043
:100DA0008DF80600684600F01BF81CBD014908607C
:100DB0007047000014040140014600200022074B48
:100DC0001B6803EA0102054B14331B680B4013B187
:100DD0000AB1012000E0002070470000000401403B
:100DE000002123498279002A3AD00A461268036812
:100DF0009A430B461A600A1D126803689A430B1D3A
:100E00001A60027911440A6803681A430A60184A92
:100E10000832126803689A43154B08331A601A1D8A
:100E2000126803689A43124B0C331A604279102AF5
:100E30000ED11A1F126803681A430D4B08331A604B
:100E40001A1D126803681A43094B0C331A600DE02F
:100E50000749427911440A6803681A430A6005E0A9
:100E6000027911440A6803689A430A6070470000D7
:100E7000000401407FB505460C467020ADF8000027
:100E80000120ADF802000220ADF8080069462846AE
:100E9000A0477FBD30B500228B071C0F0F2303FA3C
:100EA00004F20B4B8C1053F824309343084C8D10F4
:100EB00044F8253023468C1053F824308C07240F37
:100EC00000FA04F42343024C8D1044F8253030BD61
:100ED000080001402DE9F0410246002500260020CF
:100EE00000230024002791F803C00CF00F0591F8AF
:100EF00003C00CF0100CBCF1000F03D091F802C03D
:100F00004CEA050591F800C0BCF1000F31D014681F
:100F100000202BE04FF0010C0CFA00F3B1F800C0F8
:100F20000CEA03069E4220D183004FF00F0C0CFA0E
:100F300003F7BC4305FA03FC4CEA040491F803C030
:100F4000BCF1280F06D14FF0010C0CFA00FCC2F8DE
:100F500014C00AE091F803C0BCF1480F05D14FF06E
:100F6000010C0CFA00FCC2F810C0401C0828D1D3B8
:100F70001460B1F800C0BCF1FF0F34DD54680020EC
:100F80002EE000F1080C4FF0010808FA0CF3B1F85C
:100F900000C00CEA03069E4221D183004FF00F0CE3
:100FA0000CFA03F7BC4305FA03FC4CEA040491F87D
:100FB00003C0BCF1280F05D100F1080C08FA0CF8A9
:100FC000C2F8148091F803C0BCF1480F07D100F1BA
:100FD000080C4FF0010808FA0CF8C2F81080401C09
:100FE0000828CED35460BDE8F081416170470161AB
:100FF0007047000008B50121412000F0BFFB4FF40D
:101000007F70ADF8000048208DF8030003208DF8B4
:10101000020069460148FFF75DFF08BD0018014066
:1010200008B50121082000F0A9FB2020ADF8000040
:1010300010208DF8030003208DF802006946024855
:10104000FFF748FF08BD0000000C01400FB410B5C9
:10105000142202A93C48FFF787F83B48407C062849
:1010600022D13948007820B902213848FFF7BFFF64
:1010700007E035480078012803D102213348FFF703
:10108000B4FF3148808881B24FF0804001F089F888
:101090002D48B0F9044004EBD470C0F34F014FF079
:1010A000804001F082F84CE02748407C072822D19C
:1010B0002548007820B901212548FFF798FF07E06F
:1010C00021480078012803D101212148FFF78DFF35
:1010D0001D48808881B24FF0804001F062F81A48C4
:1010E000B0F9044004EBD470C0F34F014FF08040DE
:1010F00001F05DF825E01448407C082821D1124811
:10110000007820B910211248FFF771FF07E00E4860
:101110000078012803D110210D48FFF766FF0A4827
:10112000808881B24FF0804001F03BF80648B0F96A
:10113000044004EBD470C0F34F014FF0804001F045
:1011400038F810BC5DF814FB1801002000100140B5
:10115000000801402DE9F04F87B004460D461646C1
:101160001F468DF8197031462846FFF7B1FB002C59
:1011700004DA01208DF80800644202E000208DF8B6
:10118000080020B2ADF80A00012C1FD10120059003
:10119000374800680921B0FBF1FB5846FFF74FFACA
:1011A00082463146FFF77CF881464FF07E51FFF7CB
:1011B0003FF88046FFF759FA00B2ADF80C00042062
:1011C0008DF8180001202B49087027E034B3B4F5DE
:1011D000487F12DC2848008800B2ADF80C00204699
:1011E00004EBD071491005910598049003208DF807
:1011F000180001201F49087010E01F48008800B245
:10120000ADF80C004FF4C8700590A4F5C8700490B8
:1012100003208DF8180001201649087006980090E8
:1012200002A80FC8FFF712FF1448407C062805D11A
:1012300013494FF08040FFF71DFE11E00F48407C3E
:10124000072805D10F494FF08040FFF713FE07E054
:101250000A48407C082803D10B49C006FFF70AFE64
:101260000121880700F01CFE07B0BDE8F08F0000E8
:10127000000000203C0000206C0700201801002026
:10128000991F0008592000080D2100082DE9F05F82
:101290004FF448644FF416654FF47A66A710A046E1
:1012A0004FF448794846FFF7C1F982464046FFF7B8
:1012B000BDF983460723524659466842FFF74AFF65
:1012C00000BF254800780028FBD14846FFF7AEF95B
:1012D00082464046FFF7AAF98346072352465946FD
:1012E0002846FFF737FF00BF1B4800780028FBD1D6
:1012F0001720FFF729FD3846FFF798F98246304658
:10130000FFF794F983460623524659462046FFF7D5
:1013100021FF00BF104800780028FBD14FF49670E1
:1013200001F0DEF83846FFF781F982463046FFF7D4
:101330007DF98346E1004842062352465946FFF7AD
:1013400009FF1720FFF711FD00BF034800780028B0
:10135000FBD1BDE8F09F00003C00002070B50546C1
:101360000C46207C022806D0032828D0042871D0FF
:10137000052870D161E00020554908805549087062
:101380000021284600F08CFD5348407C062804D1FB
:1013900052492846FFF7D0FB10E04F48407C072811
:1013A00004D14F492846FFF7C7FB07E04A48407C75
:1013B000082803D14B492846FFF7BEFB85E0444887
:1013C0000088401C42490880207828B946480068B7
:1013D000401C4549086004E043480068401E4249FB
:1013E00008603B490988E068884209DD3F48384980
:1013F000098830F8110000B2A080032020741BE09F
:1014000033490988A06888420AD831480088401EBC
:10141000364931F8100000B2A080042020740BE09F
:101420002B480088B0F5C87F06DB3048B0F81E03B3
:1014300000B2A0800520207447E025480088401CA9
:1014400023490880207838B927480068401C26497D
:10145000086006E012E037E023480068401E224999
:1014600008601B490988A068884206D81F48B0F860
:101470001E0300B2A0800420207426E014480088D7
:10148000401C13490880207828B917480068401C80
:101490001549086004E014480068401E12490860BD
:1014A000B4F902000A49098888420ADDB4F9020049
:1014B00007490988401A0D4931F8100000B2A08090
:1014C00001E00220207400E000BF00BF70BD0000FA
:1014D0004C0000203C00002018010020991F00084B
:1014E000592000080D210008400000206C07002052
:1014F0002DE9F04105460C462846FFF7A0F81749AC
:10150000086024B910211648FFF771FD05E0012C91
:1015100003D110211248FFF768FD10480068FFF75B
:10152000BDF886B231460F4800F03BFE4FF08041D7
:101530000A480068FEF7B4FE0746FFF7AFF886B228
:101540003146084800F02FFE07490648FFF792FC95
:101550000121044800F0A4FCBDE8F0814400002013
:101560000010014000040040ED1E00082DE9F0418C
:1015700005460C462846FFF762F81749086024B96B
:1015800020211648FFF733FD05E0012C03D120216F
:101590001248FFF72AFD10480068FFF77FF886B26F
:1015A00031460F4800F0FDFD4FF080410A480068C9
:1015B000FEF776FE0746FFF771F886B23146084817
:1015C00000F0F3FD07490648FFF754FC01210448E9
:1015D00000F066FCBDE8F08148000020000C0140EE
:1015E00000080040991F000808B508208DF8000089
:1015F00001208DF801008DF802008DF80300684687
:1016000000F034F808BD08B509208DF8000001206D
:101610008DF801008DF802008DF80300684600F097
:1016200025F808BD08B50A208DF8000001208DF8C6
:1016300001008DF802008DF80300684600F016F8EE
:1016400008BD08B517208DF8000001208DF80100B5
:101650008DF802008DF80300684600F007F808BD19
:1016600010B54FF4A06000F039F810BD70B500213E
:1016700000230F22C47804B3154C246804F4E064FA
:10168000C4F5E064210AC1F10403CA40447804FAB5
:1016900003F184781440214309010E4C0678A155CA
:1016A000047804F01F050124AC4005786D11AD00ED
:1016B00005F1E025C5F8004109E0047804F01F05B4
:1016C0000124AC40044D0678761145F8264070BDE3
:1016D0000CED00E000E400E080E100E0024901439D
:1016E000024A1160704700000000FA050CED00E0AE
:1016F00010B5012142F20F70FFF7FAFE012141F20D
:101700008730FFF733FF07E005480078062803D14C
:1017100000200349087000E0F6E700BF10BD00009C
:101720003800002010B5002008490870012141F25E
:101730008730FFF71BFF00BF054800680028FBD07B
:1017400004490548FFF7F8F910BD000038000020F3
:1017500018012342991F00080008004029B1064AD9
:10176000D2690243044BDA6104E0034AD26982433E
:10177000014BDA61704700000010024029B1064AAF
:1017800092690243044B9A6104E0034A92698243DE
:10179000014B9A61704700000010024030B50021F3
:1017A0000022002400232D4D6D6805F00C0121B1AD
:1017B000042905D0082923D105E0294D056022E040
:1017C000274D05601FE0254D6D6805F47012234D0F
:1017D0006D6805F48034022505EB92421CB9214D59
:1017E000554305600BE01D4D6D6805F400351DB1D6
:1017F0001C4D5543056002E0194D5543056002E05C
:10180000174D056000BF00BF144D6D6805F0F00175
:101810000909154D6B5C0568DD4045600F4D6D682D
:1018200005F4E061090A104D6B5C4568DD40856098
:101830000A4D6D6805F46051C90A0B4D6B5C456833
:10184000DD40C560054D6D6805F44041890B074DCD
:101850006B5CC568B5FBF3F5056130BD0010024057
:1018600000127A0000093D0014000020240000202E
:1018700010B500F001F810BD0CB5002001900090EB
:101880003348006840F480303149086000BF304878
:10189000006800F4003000900198401C019000980E
:1018A00018B90198B0F5A06FF1D12948006800F48B
:1018B000003010B10120009001E00020009000985D
:1018C000012843D12348006840F0100021490860F6
:1018D0000846006820F0030008600846006840F0F1
:1018E000020008601A484068194948600846406884
:1018F00048600846406840F4806048600846406898
:1019000020F47C1048600846406840F4E8104860C5
:101910000846006840F08070086000BF0C4800680E
:1019200000F000700028F9D00948406820F003005A
:10193000074948600846406840F00200486000BF20
:101940000348406800F00C000828F9D10CBD0000E5
:1019500000100240002002402DE9F05F48F6A0444C
:101960004FF4FA554FF42F564FF448774FF4486828
:10197000B946E81000F0B4FD3846FEF757FE82463F
:101980003046FEF753FE834606235246594620460C
:10199000FFF7E0FB00BF234800780028FBD14FF49D
:1019A000FA6000F09DFD4846FEF740FE8246404644
:1019B000FEF73CFE83460723524659466842FFF72E
:1019C000C9FB00BF174800780028FBD1022000F0B7
:1019D000ADFD4846FEF72AFE82464046FEF726FE4B
:1019E00083460723524659462846FFF7B3FB00BFFC
:1019F0000C4800780028FBD13846FEF717FE8246D7
:101A00003046FEF713FE834606235246594660428F
:101A1000FFF7A0FB00BF034800780028FBD1BDE81A
:101A2000F09F00003C000020FFF730FC12E00A4865
:101A3000007801280ED1002007490870FFF758FEF2
:101A40001720FFF781F9FFF787FF1720FFF78DF9C0
:101A5000FFF768FEEBE700003800002010B500F04B
:101A60001DFDFFF7FDFD4FF4165000F09BFDFFF745
:101A7000D7FAFFF73BF9FEF79FFF082142F20F70FC
:101A800000F09AF8082142F20F7000F027F90821BF
:101A900042F20F7000F0A8F910BD042808D14FF0F1
:101AA000E021096941F004014FF0E022116107E0F3
:101AB0004FF0E021096921F004014FF0E0221161AB
:101AC0007047000010B51348006840F0010011494C
:101AD000086008464068104908400E4948600846BA
:101AE00000680E4908400B4908600846006820F469
:101AF000802008600846406820F4FE0048604FF4EB
:101B00001F008860FFF7B4FE4FF0006004490860D2
:101B100010BD0000001002400000FFF8FFFFF6FEBD
:101B200008ED00E010B50121880700F0C5F9002894
:101B30003ED00121880700F0B0F91E494FF08040E7
:101B4000FFF70CFC1B48808881B24FF0804000F00A
:101B500028FB1848407C06280BD11648B0F90440F1
:101B600004EBD470C0F34F014FF0804000F01DFB38
:101B70001EE01048407C07280BD10E48B0F9044005
:101B800004EBD470C0F34F014FF0804000F00FFB26
:101B90000EE00848407C08280AD10648B0F9044005
:101BA00004EBD470C0F34F014FF0804000F001FB14
:101BB00010BD00001801002030B585B005460C4668
:101BC00001210520FFF7DAFD01210846FFF7C6FDD8
:101BD0000E20ADF8100018208DF8130003208DF8AA
:101BE000120004A92648FFF775F926494FF08040F6
:101BF000FEF7A2FF24494FF08040FEF79DFF2349E6
:101C00004FF08040FEF798FF0821C80600F016FA52
:101C10000821C80600F070FA0821C80600F0B4FADE
:101C20000121880700F036F901221146900700F0E3
:101C300054F94FF4A060FFF751FD1C208DF80C0003
:101C400002208DF80D008DF80E0001208DF80F0098
:101C500003A8FFF70BFDADF80450ADF800400020DD
:101C6000ADF80600ADF8020069464FF0804000F084
:101C7000A3FA00214FF0804000F012F905B030BD0A
:101C800000080140991F0008592000080D21000894
:101C900070B501210F4800F00FF9D0B101210D48B6
:101CA00000F0FBF80C480068FEF7F8FC84B221460F
:101CB000084800F076FA4FF0804107480068FEF7C8
:101CC000EFFA0546FEF7EAFC84B22146014800F02F
:101CD0006AFA70BD000400404400002030B585B0B1
:101CE00005460C4601210520FFF748FD0121022091
:101CF000FFF734FDC020ADF8100018208DF8130058
:101D000003208DF8120004A92048FFF7E3F82049CA
:101D10002048FEF711FF20491E48FEF70DFF08215D
:101D20001C4800F02FF908211A4800F087F901211A
:101D3000184800F0AFF801221146164800F0CDF81F
:101D40004FF4A060FFF7CAFC1D208DF80C000220A4
:101D50008DF80D008DF80E0001208DF80F0003A8FE
:101D6000FFF784FCADF80450ADF800400020ADF85A
:101D70000600ADF802006946064800F01DFA002191
:101D8000044800F08DF805B030BD000000080140A7
:101D9000ED1E000800040040991F000870B50121E5
:101DA0000F4800F089F8D0B101210D4800F075F816
:101DB0000C480068FEF772FC84B22146084800F027
:101DC000F0F94FF0804107480068FEF769FA0546D0
:101DD000FEF764FC84B22146014800F0E6F970BDCC
:101DE000000800404800002030B585B005460C468C
:101DF00001210920FFF7C2FC01210420FFF7AEFCFE
:101E00008020ADF8100018208DF8130003208DF805
:101E1000120004A91C48FFF75DF81C491C48FEF796
:101E20008BFE08211A4800F009F90121184800F03A
:101E300031F801221146164800F04FF84FF4A06027
:101E4000FFF74CFC1D208DF80C0002208DF80D00D2
:101E50008DF80E0001208DF80F0003A8FFF706FC97
:101E6000ADF80450ADF800400020ADF80600ADF824
:101E700002006946064800F09FF90021044800F07E
:101E80000FF805B030BD0000000C0140991F00089C
:101E900000080040CA4302827047CA43028270476A
:101EA00021B1028842F00102028004E002884FF66C
:101EB000FE731A400280704730B5024600200023AE
:101EC0000024158A05EA0103958905EA010413B186
:101ED0000CB1012000E0002030BD1AB183890B4312
:101EE000838102E083898B438381704770B500242E
:101EF00000220023058C4FF6FE7635400584028CC7
:101F00008388048B4FF68F752C40B51E2C400D88AE
:101F10002C43751E2A400D892A434D882A43144DAF
:101F2000A8420BD0134DA84208D0134DA84205D0AB
:101F3000124DA84202D0124DA84213D14FF6F775A8
:101F40002A404D892A434FF6FB752A408D882A4343
:101F50004FF6FF652B404FF6FF552B408D892B43E5
:101F6000CD892B4383800483CD888586028470BD10
:101F7000002C014000340140004001400044014079
:101F8000004801400A460021018B4FF6F7731940C3
:101F9000114301837047000070B500240022002324
:101FA000058C4FF6EF7635400584028C8388048BD0
:101FB00048F6FF752C404FF6FF452C400D884FF634
:101FC000FF7606EA05252C434FF6DF752A400D897A
:101FD00006EA05152A434D8806EA05152A43154DDC
:101FE000A84202D0144DA8421DD14FF67F752A4059
:101FF0004D894FF6FF7606EA05152A434FF6BF7561
:102000002A408D8806EA05152A434FF6FF352B40F6
:102010004FF2FF752B408D8906EA85052B43CD894C
:1020200006EA85052B4383800483CD8805870284D7
:1020300070BD0000002C0140003401400A46002120
:10204000018B4FF2FF7319404FF6FF7303EA02232F
:10205000194301837047000070B50024002200235B
:10206000058C4FF6FF6635400584028C8388848B8F
:102070004FF68F752C404FF6FC752C400D882C4385
:102080004FF6FF552A400D894FF6FF7606EA0525E3
:102090002A434D8806EA05252A43154DA84202D059
:1020A000144DA8421DD14FF2FF752A404D894FF6BD
:1020B000FF7606EA05252A434FF6FF352A408D882C
:1020C00006EA05252A434EF6FF752B404DF6FF75AF
:1020D0002B408D8906EA05152B43CD8906EA0515A7
:1020E0002B4383808483CD888587028470BD000064
:1020F000002C0140003401400A460021818B4FF63C
:10210000F7731940114381837047000070B50022B6
:1021100000230024058C4EF6FF7635400584038CA1
:102120008488828B48F6FF752A404FF6FF452A4087
:102130000D884FF6FF7606EA05252A434DF6FF7512
:102140002B400D8906EA05352B434D8806EA0535F7
:102150002B430B4DA84202D00A4DA84208D14BF6A2
:10216000FF752C408D894FF6FF7606EA85152C43C6
:1021700084808283CD88A0F84050038470BD000025
:10218000002C0140003401400A460021818B4FF2AF
:10219000FF7319404FF6FF7303EA0223194381834B
:1021A00070478185704781867047018770478187B6
:1021B0007047A0F840107047002202881D4B9842DB
:1021C0000ED01D4B98420BD0B0F1804F08D01B4B66
:1021D000984205D01A4B984202D01A4B984204D12B
:1021E0004FF68F731A404B881A43174B984207D00B
:1021F000164B984204D04FF6FF431A40CB881A433F
:1022000002808B8883850B8803850A4B98420BD00C
:10221000094B984208D00E4B984205D00D4B98427E
:1022200002D00D4B984201D10B7A038601238382A1
:1022300070470000002C01400034014000040040C1
:1022400000080040000C0040001000400014004056
:1022500000400140004401400048014010B5002406
:1022600040F225511C4800F049F810B31A4800F01C
:1022700001F9C4B21948008800F40040C8B91748F1
:10228000008800F4804060B10A2C03D0002013497C
:10229000088020E01148008840F400400F49088081
:1022A00019E00D2C06D10D48008840F480400B4900
:1022B000088010E009480088C0F30D0008490C545C
:1022C00006480088401C0549088008460088C72841
:1022D00001DD0020088010BD0038014030000020E2
:1022E0005000002021B1828942F40052828104E032
:1022F00082894DF6FF731A408281704770B502469D
:10230000002400230025002040F66A16B14200D1C7
:1023100000BFC1F3421501F01F03012606FA03F3C3
:10232000012D02D19689334006E0022D02D1168A92
:10233000334001E0968A33400C12012606FA04F479
:102340001688344013B10CB1012000E0002070BDAC
:10235000F0B50346002400260025002040F66A1749
:10236000B94200D100BF1846C1F3421401F01F0664
:10237000012707FA06F5012C01D10C3004E0022CEC
:1023800001D1103000E014301AB107682F43076004
:1023900002E00768AF430760F0BD00002DE9F04799
:1023A00086B005460E460024A24600BFA14600277F
:1023B000B08900B100BF2F462C8A4CF6FF70044054
:1023C000F08804432C82AC894EF6F3100440B088A8
:1023D00031890843718908430443AC81AC8A4FF6C4
:1023E000FF400440B0890443AC8201A8FFF7D6F94E
:1023F0001F48874202D1DDF810A001E0DDF80CA0F3
:10240000A88900F4004040B10AEBCA0000EB0A10B2
:1024100031684900B0FBF1F807E00AEBCA0000EBB5
:102420000A1031688900B0FBF1F86420B8FBF0F0C5
:1024300004012009642101FB1089A88900F40040EF
:1024400040B1322000EBC900B0FBF1F000F0070012
:10245000044308E0322000EB09106421B0FBF1F0E6
:1024600000F00F0004432C8106B0BDE8F0870000A7
:102470000038014001468888C0F30800704702E038
:1024800008C8121F08C1002AFAD1704770470020FF
:1024900001E001C1121F002AFBD1704710B56FF097
:1024A0000400FFF7FAFA0A4800680A49B0FBF1F0A5
:1024B000094908700846007800EB4001C1EBC010E4
:1024C0004FF6FF7101EAC0000449088010BD00000A
:1024D0000000002000127A00280000202A000020BE
:1024E0000146114A12884A434FF0E0235A61002204
:1024F0009A611A46126942F001021A6100BF4FF058
:10250000E022106900F001021AB100F48032002AC2
:10251000F5D04FF0E022126922F001024FF0E023E3
:102520001A6100229A6170472A00002010B5044603
:1025300005E04FF47A70FFF7D3FF601E84B2002CE1
:10254000F7DC10BD2DE9F04104460D4600260022BF
:102550000E4B20462946FDF7FAFF074600220C4B9A
:10256000FDF7DCFE04460D4609E022462B462046D8
:102570002946FDF77AFF04460D46701C86B2082EE8
:10258000F3DB20462946BDE8F081000000007040E2
:102590000000F03F10B5FFF761FAFFF745FA0020A1
:1025A00010BD000010B586B00446012144F20400BD
:1025B000FFF7E4F84FF40070ADF8140003208DF835
:1025C000160018208DF8170005A91C48FEF782FC9C
:1025D0004FF48060ADF8140004208DF8170005A9B1
:1025E0001648FEF777FC25208DF8000003208DF8B3
:1025F00001008DF8020001208DF803006846FFF706
:1026000035F801940020ADF80800ADF80A00ADF8E7
:102610000C00ADF810000C20ADF80E0001A9084820
:10262000FFF7BCFE012240F225510548FFF790FE5E
:1026300001210348FFF756FE06B010BD0008014017
:10264000003801406426000800000020500000000F
:102650007E240008B426000850000020400E000030
:102660008E24000800A24A040000000000000000C0
:102670000102030406070809000000000102030428
:10268000010203040607080902040608000000000E
:10269000000000000000000000000000000000003A
:1026A000000000000000000000000000000000002A
:0426B0000000000026
:0400000508000131BD
:00000001FF
